{
  "contractName": "CommentRepository",
  "abi": [
    {
      "inputs": [],
      "payable": false,
      "stateMutability": "nonpayable",
      "type": "constructor"
    },
    {
      "anonymous": false,
      "inputs": [
        {
          "indexed": false,
          "name": "payer",
          "type": "address"
        },
        {
          "indexed": false,
          "name": "restaurant",
          "type": "address"
        },
        {
          "indexed": false,
          "name": "duedate",
          "type": "uint256"
        }
      ],
      "name": "CommentAllowed",
      "type": "event"
    },
    {
      "constant": true,
      "inputs": [
        {
          "name": "rating",
          "type": "uint256"
        }
      ],
      "name": "isValidRating",
      "outputs": [
        {
          "name": "",
          "type": "bool"
        }
      ],
      "payable": false,
      "stateMutability": "view",
      "type": "function"
    },
    {
      "constant": true,
      "inputs": [
        {
          "name": "restaurant",
          "type": "address"
        }
      ],
      "name": "getDueDate",
      "outputs": [
        {
          "name": "",
          "type": "uint256"
        }
      ],
      "payable": false,
      "stateMutability": "view",
      "type": "function"
    },
    {
      "constant": false,
      "inputs": [
        {
          "name": "_restaurant",
          "type": "address"
        },
        {
          "name": "_comment",
          "type": "string"
        },
        {
          "name": "_rating",
          "type": "uint256"
        }
      ],
      "name": "makeComment",
      "outputs": [],
      "payable": false,
      "stateMutability": "nonpayable",
      "type": "function"
    },
    {
      "constant": true,
      "inputs": [
        {
          "name": "rest",
          "type": "address"
        }
      ],
      "name": "getAverageRating",
      "outputs": [
        {
          "name": "",
          "type": "uint256"
        }
      ],
      "payable": false,
      "stateMutability": "view",
      "type": "function"
    },
    {
      "constant": false,
      "inputs": [
        {
          "name": "payer",
          "type": "address"
        }
      ],
      "name": "allowToComment",
      "outputs": [],
      "payable": false,
      "stateMutability": "nonpayable",
      "type": "function"
    },
    {
      "constant": false,
      "inputs": [
        {
          "name": "payer",
          "type": "address"
        },
        {
          "name": "restaurant",
          "type": "address"
        }
      ],
      "name": "allowToCommentForTest",
      "outputs": [],
      "payable": false,
      "stateMutability": "nonpayable",
      "type": "function"
    },
    {
      "constant": false,
      "inputs": [
        {
          "name": "repositoryAddress",
          "type": "address"
        }
      ],
      "name": "setRestaurantRepository",
      "outputs": [],
      "payable": false,
      "stateMutability": "nonpayable",
      "type": "function"
    },
    {
      "constant": true,
      "inputs": [],
      "name": "getRestaurantRepositoryAddress",
      "outputs": [
        {
          "name": "",
          "type": "address"
        }
      ],
      "payable": false,
      "stateMutability": "view",
      "type": "function"
    },
    {
      "constant": true,
      "inputs": [
        {
          "name": "addr",
          "type": "address"
        }
      ],
      "name": "getCommentNoList",
      "outputs": [
        {
          "name": "",
          "type": "uint256[]"
        }
      ],
      "payable": false,
      "stateMutability": "view",
      "type": "function"
    },
    {
      "constant": true,
      "inputs": [
        {
          "name": "no",
          "type": "uint256"
        }
      ],
      "name": "getComment",
      "outputs": [
        {
          "name": "",
          "type": "uint256"
        },
        {
          "name": "",
          "type": "address"
        },
        {
          "name": "",
          "type": "address"
        },
        {
          "name": "",
          "type": "string"
        },
        {
          "name": "",
          "type": "uint256"
        },
        {
          "name": "",
          "type": "uint256"
        }
      ],
      "payable": false,
      "stateMutability": "view",
      "type": "function"
    }
  ],
  "bytecode": "0x608060405234801561001057600080fd5b5061123f806100206000396000f3006080604052600436106100a4576000357c0100000000000000000000000000000000000000000000000000000000900463ffffffff1680630800e300146100a95780631b77ad1c146101ca57806351a348ce1461026257806354623318146102b95780637f16ab80146102fe5780638167892a14610355578063b1243af014610398578063c8b67522146103db578063e9e0871814610432578063ecb08a96146104c5575b600080fd5b3480156100b557600080fd5b506100d460048036038101908080359060200190929190505050610528565b604051808781526020018673ffffffffffffffffffffffffffffffffffffffff1673ffffffffffffffffffffffffffffffffffffffff1681526020018573ffffffffffffffffffffffffffffffffffffffff1673ffffffffffffffffffffffffffffffffffffffff16815260200180602001848152602001838152602001828103825285818151815260200191508051906020019080838360005b8381101561018a57808201518184015260208101905061016f565b50505050905090810190601f1680156101b75780820380516001836020036101000a031916815260200191505b5097505050505050505060405180910390f35b3480156101d657600080fd5b5061020b600480360381019080803573ffffffffffffffffffffffffffffffffffffffff169060200190929190505050610658565b6040518080602001828103825283818151815260200191508051906020019060200280838360005b8381101561024e578082015181840152602081019050610233565b505050509050019250505060405180910390f35b34801561026e57600080fd5b506102776106ef565b604051808273ffffffffffffffffffffffffffffffffffffffff1673ffffffffffffffffffffffffffffffffffffffff16815260200191505060405180910390f35b3480156102c557600080fd5b506102e460048036038101908080359060200190929190505050610718565b604051808215151515815260200191505060405180910390f35b34801561030a57600080fd5b5061033f600480360381019080803573ffffffffffffffffffffffffffffffffffffffff169060200190929190505050610741565b6040518082815260200191505060405180910390f35b34801561036157600080fd5b50610396600480360381019080803573ffffffffffffffffffffffffffffffffffffffff1690602001909291905050506107c7565b005b3480156103a457600080fd5b506103d9600480360381019080803573ffffffffffffffffffffffffffffffffffffffff169060200190929190505050610866565b005b3480156103e757600080fd5b5061041c600480360381019080803573ffffffffffffffffffffffffffffffffffffffff169060200190929190505050610ab5565b6040518082815260200191505060405180910390f35b34801561043e57600080fd5b506104c3600480360381019080803573ffffffffffffffffffffffffffffffffffffffff169060200190929190803590602001908201803590602001908080601f016020809104026020016040519081016040528093929190818152602001838380828437820191505050505050919291929080359060200190929190505050610bac565b005b3480156104d157600080fd5b50610526600480360381019080803573ffffffffffffffffffffffffffffffffffffffff169060200190929190803573ffffffffffffffffffffffffffffffffffffffff169060200190929190505050610f72565b005b60008060006060600080600060026000898152602001908152602001600020905080600001548160010160009054906101000a900473ffffffffffffffffffffffffffffffffffffffff168260020160009054906101000a900473ffffffffffffffffffffffffffffffffffffffff168360030184600401548560050154828054600181600116156101000203166002900480601f01602080910402602001604051908101604052809291908181526020018280546001816001161561010002031660029004801561063b5780601f106106105761010080835404028352916020019161063b565b820191906000526020600020905b81548152906001019060200180831161061e57829003601f168201915b505050505092509650965096509650965096505091939550919395565b6060600160008373ffffffffffffffffffffffffffffffffffffffff1673ffffffffffffffffffffffffffffffffffffffff1681526020019081526020016000208054806020026020016040519081016040528092919081815260200182805480156106e357602002820191906000526020600020905b8154815260200190600101908083116106cf575b50505050509050919050565b60008060009054906101000a900473ffffffffffffffffffffffffffffffffffffffff16905090565b600080821180156107295750600882105b15610737576001905061073c565b600090505b919050565b6000600460003373ffffffffffffffffffffffffffffffffffffffff1673ffffffffffffffffffffffffffffffffffffffff16815260200190815260200160002060008373ffffffffffffffffffffffffffffffffffffffff1673ffffffffffffffffffffffffffffffffffffffff168152602001908152602001600020549050919050565b600073ffffffffffffffffffffffffffffffffffffffff166000809054906101000a900473ffffffffffffffffffffffffffffffffffffffff1673ffffffffffffffffffffffffffffffffffffffff1614151561082357600080fd5b806000806101000a81548173ffffffffffffffffffffffffffffffffffffffff021916908373ffffffffffffffffffffffffffffffffffffffff16021790555050565b6000809054906101000a900473ffffffffffffffffffffffffffffffffffffffff1673ffffffffffffffffffffffffffffffffffffffff166392686832336040518263ffffffff167c0100000000000000000000000000000000000000000000000000000000028152600401808273ffffffffffffffffffffffffffffffffffffffff1673ffffffffffffffffffffffffffffffffffffffff168152602001915050602060405180830381600087803b15801561092257600080fd5b505af1158015610936573d6000803e3d6000fd5b505050506040513d602081101561094c57600080fd5b8101908080519060200190929190505050151561096857600080fd5b61097e62015180426110c090919063ffffffff16565b600460008373ffffffffffffffffffffffffffffffffffffffff1673ffffffffffffffffffffffffffffffffffffffff16815260200190815260200160002060003373ffffffffffffffffffffffffffffffffffffffff1673ffffffffffffffffffffffffffffffffffffffff168152602001908152602001600020819055507f3f061473595aa270a61d095fb2db1d63d12e7ac7c238890375933763bc35ca7b8133610a3762015180426110c090919063ffffffff16565b604051808473ffffffffffffffffffffffffffffffffffffffff1673ffffffffffffffffffffffffffffffffffffffff1681526020018373ffffffffffffffffffffffffffffffffffffffff1673ffffffffffffffffffffffffffffffffffffffff168152602001828152602001935050505060405180910390a150565b6000806000600160008573ffffffffffffffffffffffffffffffffffffffff1673ffffffffffffffffffffffffffffffffffffffff168152602001908152602001600020805490501415610b0c5760049150610ba6565b610ba0600160008573ffffffffffffffffffffffffffffffffffffffff1673ffffffffffffffffffffffffffffffffffffffff16815260200190815260200160002080549050600360008673ffffffffffffffffffffffffffffffffffffffff1673ffffffffffffffffffffffffffffffffffffffff168152602001908152602001600020546110e190919063ffffffff16565b90508091505b50919050565b610bb461110b565b600460003373ffffffffffffffffffffffffffffffffffffffff1673ffffffffffffffffffffffffffffffffffffffff16815260200190815260200160002060008573ffffffffffffffffffffffffffffffffffffffff1673ffffffffffffffffffffffffffffffffffffffff168152602001908152602001600020544211151515610c3f57600080fd5b610c4882610718565b1515610c5357600080fd5b610c6960016005546110c090919063ffffffff16565b60058190555060055481600001818152505083816020019073ffffffffffffffffffffffffffffffffffffffff16908173ffffffffffffffffffffffffffffffffffffffff16815250508281606001819052508181608001818152505033816040019073ffffffffffffffffffffffffffffffffffffffff16908173ffffffffffffffffffffffffffffffffffffffff1681525050428160a0018181525050806002600060055481526020019081526020016000206000820151816000015560208201518160010160006101000a81548173ffffffffffffffffffffffffffffffffffffffff021916908373ffffffffffffffffffffffffffffffffffffffff16021790555060408201518160020160006101000a81548173ffffffffffffffffffffffffffffffffffffffff021916908373ffffffffffffffffffffffffffffffffffffffff1602179055506060820151816003019080519060200190610dd292919061116e565b506080820151816004015560a08201518160050155905050600160008573ffffffffffffffffffffffffffffffffffffffff1673ffffffffffffffffffffffffffffffffffffffff1681526020019081526020016000206005549080600181540180825580915050906001820390600052602060002001600090919290919091505550610ea782600360008773ffffffffffffffffffffffffffffffffffffffff1673ffffffffffffffffffffffffffffffffffffffff168152602001908152602001600020546110c090919063ffffffff16565b600360008673ffffffffffffffffffffffffffffffffffffffff1673ffffffffffffffffffffffffffffffffffffffff168152602001908152602001600020819055506000600460003373ffffffffffffffffffffffffffffffffffffffff1673ffffffffffffffffffffffffffffffffffffffff16815260200190815260200160002060008673ffffffffffffffffffffffffffffffffffffffff1673ffffffffffffffffffffffffffffffffffffffff1681526020019081526020016000208190555050505050565b610f8862015180426110c090919063ffffffff16565b600460008473ffffffffffffffffffffffffffffffffffffffff1673ffffffffffffffffffffffffffffffffffffffff16815260200190815260200160002060008373ffffffffffffffffffffffffffffffffffffffff1673ffffffffffffffffffffffffffffffffffffffff168152602001908152602001600020819055507f3f061473595aa270a61d095fb2db1d63d12e7ac7c238890375933763bc35ca7b828261104162015180426110c090919063ffffffff16565b604051808473ffffffffffffffffffffffffffffffffffffffff1673ffffffffffffffffffffffffffffffffffffffff1681526020018373ffffffffffffffffffffffffffffffffffffffff1673ffffffffffffffffffffffffffffffffffffffff168152602001828152602001935050505060405180910390a15050565b60008082840190508381101515156110d757600080fd5b8091505092915050565b6000806000831115156110f357600080fd5b82848115156110fe57fe5b0490508091505092915050565b60c06040519081016040528060008152602001600073ffffffffffffffffffffffffffffffffffffffff168152602001600073ffffffffffffffffffffffffffffffffffffffff1681526020016060815260200160008152602001600081525090565b828054600181600116156101000203166002900490600052602060002090601f016020900481019282601f106111af57805160ff19168380011785556111dd565b828001600101855582156111dd579182015b828111156111dc5782518255916020019190600101906111c1565b5b5090506111ea91906111ee565b5090565b61121091905b8082111561120c5760008160009055506001016111f4565b5090565b905600a165627a7a723058203fe6408300d8b869f032f7634338aeb02a496344b7269eff5332cdfdee32c44d0029",
  "source": "pragma solidity ^0.4.0;\nimport \"./RestaurantRepositoryInterface.sol\";\nimport \"./SafeMath.sol\";\ncontract CommentRepository {\n    using SafeMath for uint;\n    address private restaurantRepository;\n    mapping(address=> uint[]) private queryCommentNoList; //rest => comment\n    mapping(uint=> Comment) private queryComment; // no => comment\n    mapping(address => uint) private queryTotalRating; //\n    mapping(address=>mapping(address=>uint)) private queryDueDate; // ad\n\n    uint private currentCommentNo;\n\n    event CommentAllowed(address payer, address restaurant, uint duedate);\n\n\n    struct Comment{\n        uint no;\n        address restaurant;\n        address payer;\n        string comment;\n        uint rating;\n        uint date;\n    }\n\n\n    constructor(){\n    }\n\n    function isValidRating(uint rating)public view returns(bool){\n        if(rating>0 && rating<8){\n            return true;\n        } else {\n            return false;\n        }\n    }\n    function getDueDate(address restaurant) public view returns(uint){\n        return queryDueDate[msg.sender][restaurant];\n    }\n\n    function makeComment(address _restaurant, string _comment, uint _rating) public {\n        require(now<=queryDueDate[msg.sender][_restaurant]);\n        require(isValidRating(_rating));\n        currentCommentNo = currentCommentNo.add(1);\n        Comment memory c;\n        c.no = currentCommentNo;\n        c.restaurant = _restaurant;\n        c.comment = _comment;\n        c.rating = _rating;\n        c.payer = msg.sender;\n        c.date = now;\n        queryComment[currentCommentNo] = c;\n        queryCommentNoList[_restaurant].push(currentCommentNo);\n        queryTotalRating[_restaurant] = queryTotalRating[_restaurant].add(_rating);\n\n        queryDueDate[msg.sender][_restaurant] = 0;\n    }\n\n    function getAverageRating(address rest) public view returns(uint){\n        if(queryCommentNoList[rest].length==0) return 4;\n        uint average = queryTotalRating[rest].div(queryCommentNoList[rest].length);\n        return average;\n    }\n\n    function allowToComment(address payer) public{\n        require(RestaurantRepositoryInterface(restaurantRepository).isRegisteredRestaurant(msg.sender));\n        queryDueDate[payer][msg.sender] = now.add(1 days);\n        CommentAllowed(payer, msg.sender, now.add(1 days));\n    }\n\n    function allowToCommentForTest(address payer, address restaurant) public{\n        queryDueDate[payer][restaurant] = now.add(1 days);\n        CommentAllowed(payer, restaurant, now.add(1 days));\n    }\n\n    function setRestaurantRepository(address repositoryAddress) public{\n        require(restaurantRepository == address(0));\n        restaurantRepository = repositoryAddress;\n    }\n    function getRestaurantRepositoryAddress() public view returns (address){\n        return restaurantRepository;\n    }\n\n    function getCommentNoList(address addr) public view returns(uint[]){\n        return queryCommentNoList[addr];\n    }\n\n    function getComment(uint no) public view returns(uint, address, address, string, uint, uint){\n        Comment storage c = queryComment[no];\n        return (c.no, c.restaurant, c.payer, c.comment, c.rating, c.date);\n    }\n\n\n}\n",
  "sourcePath": "/Users/noahkim/Documents/College/preps_v2/src/preps/src/core/contracts/CommentRepository.sol",
  "compiler": {
    "name": "solc",
    "version": "0.4.24+commit.e67f0147.Emscripten.clang"
  },
  "schemaVersion": "2.0.1",
  "updatedAt": "2019-04-06T08:57:33.134Z"
}