{
  "contractName": "DateTime",
  "abi": [
    {
      "constant": true,
      "inputs": [
        {
          "name": "year",
          "type": "uint16"
        }
      ],
      "name": "isLeapYear",
      "outputs": [
        {
          "name": "",
          "type": "bool"
        }
      ],
      "payable": false,
      "stateMutability": "pure",
      "type": "function"
    },
    {
      "constant": true,
      "inputs": [
        {
          "name": "year",
          "type": "uint256"
        }
      ],
      "name": "leapYearsBefore",
      "outputs": [
        {
          "name": "",
          "type": "uint256"
        }
      ],
      "payable": false,
      "stateMutability": "pure",
      "type": "function"
    },
    {
      "constant": true,
      "inputs": [
        {
          "name": "month",
          "type": "uint8"
        },
        {
          "name": "year",
          "type": "uint16"
        }
      ],
      "name": "getDaysInMonth",
      "outputs": [
        {
          "name": "",
          "type": "uint8"
        }
      ],
      "payable": false,
      "stateMutability": "pure",
      "type": "function"
    },
    {
      "constant": true,
      "inputs": [
        {
          "name": "timestamp",
          "type": "uint256"
        }
      ],
      "name": "getYear",
      "outputs": [
        {
          "name": "",
          "type": "uint16"
        }
      ],
      "payable": false,
      "stateMutability": "pure",
      "type": "function"
    },
    {
      "constant": true,
      "inputs": [
        {
          "name": "timestamp",
          "type": "uint256"
        }
      ],
      "name": "getMonth",
      "outputs": [
        {
          "name": "",
          "type": "uint8"
        }
      ],
      "payable": false,
      "stateMutability": "pure",
      "type": "function"
    },
    {
      "constant": true,
      "inputs": [
        {
          "name": "timestamp",
          "type": "uint256"
        }
      ],
      "name": "getDay",
      "outputs": [
        {
          "name": "",
          "type": "uint8"
        }
      ],
      "payable": false,
      "stateMutability": "pure",
      "type": "function"
    },
    {
      "constant": true,
      "inputs": [
        {
          "name": "timestamp",
          "type": "uint256"
        }
      ],
      "name": "getHour",
      "outputs": [
        {
          "name": "",
          "type": "uint8"
        }
      ],
      "payable": false,
      "stateMutability": "pure",
      "type": "function"
    },
    {
      "constant": true,
      "inputs": [
        {
          "name": "timestamp",
          "type": "uint256"
        }
      ],
      "name": "getMinute",
      "outputs": [
        {
          "name": "",
          "type": "uint8"
        }
      ],
      "payable": false,
      "stateMutability": "pure",
      "type": "function"
    },
    {
      "constant": true,
      "inputs": [
        {
          "name": "timestamp",
          "type": "uint256"
        }
      ],
      "name": "getSecond",
      "outputs": [
        {
          "name": "",
          "type": "uint8"
        }
      ],
      "payable": false,
      "stateMutability": "pure",
      "type": "function"
    },
    {
      "constant": true,
      "inputs": [
        {
          "name": "timestamp",
          "type": "uint256"
        }
      ],
      "name": "getWeekday",
      "outputs": [
        {
          "name": "",
          "type": "uint8"
        }
      ],
      "payable": false,
      "stateMutability": "pure",
      "type": "function"
    },
    {
      "constant": true,
      "inputs": [
        {
          "name": "year",
          "type": "uint16"
        },
        {
          "name": "month",
          "type": "uint8"
        },
        {
          "name": "day",
          "type": "uint8"
        }
      ],
      "name": "toTimestamp",
      "outputs": [
        {
          "name": "timestamp",
          "type": "uint256"
        }
      ],
      "payable": false,
      "stateMutability": "pure",
      "type": "function"
    },
    {
      "constant": true,
      "inputs": [
        {
          "name": "year",
          "type": "uint16"
        },
        {
          "name": "month",
          "type": "uint8"
        },
        {
          "name": "day",
          "type": "uint8"
        },
        {
          "name": "hour",
          "type": "uint8"
        }
      ],
      "name": "toTimestamp",
      "outputs": [
        {
          "name": "timestamp",
          "type": "uint256"
        }
      ],
      "payable": false,
      "stateMutability": "pure",
      "type": "function"
    },
    {
      "constant": true,
      "inputs": [
        {
          "name": "year",
          "type": "uint16"
        },
        {
          "name": "month",
          "type": "uint8"
        },
        {
          "name": "day",
          "type": "uint8"
        },
        {
          "name": "hour",
          "type": "uint8"
        },
        {
          "name": "minute",
          "type": "uint8"
        }
      ],
      "name": "toTimestamp",
      "outputs": [
        {
          "name": "timestamp",
          "type": "uint256"
        }
      ],
      "payable": false,
      "stateMutability": "pure",
      "type": "function"
    },
    {
      "constant": true,
      "inputs": [
        {
          "name": "year",
          "type": "uint16"
        },
        {
          "name": "month",
          "type": "uint8"
        },
        {
          "name": "day",
          "type": "uint8"
        },
        {
          "name": "hour",
          "type": "uint8"
        },
        {
          "name": "minute",
          "type": "uint8"
        },
        {
          "name": "second",
          "type": "uint8"
        }
      ],
      "name": "toTimestamp",
      "outputs": [
        {
          "name": "timestamp",
          "type": "uint256"
        }
      ],
      "payable": false,
      "stateMutability": "pure",
      "type": "function"
    },
    {
      "constant": true,
      "inputs": [],
      "name": "getNow",
      "outputs": [
        {
          "name": "",
          "type": "uint256"
        }
      ],
      "payable": false,
      "stateMutability": "view",
      "type": "function"
    }
  ],
  "bytecode": "0x610d2c610030600b82828239805160001a6073146000811461002057610022565bfe5b5030600052607381538281f30073000000000000000000000000000000000000000030146080604052600436106100f2576000357c0100000000000000000000000000000000000000000000000000000000900463ffffffff1680633e239e1a146100f75780634ac1ad781461013157806362ba96871461016b57806365c72840146101d75780637f791833146102115780638aa001fc146102705780638c8d98a0146102aa5780639054bdec146102fc57806392d6631314610375578063a324ad24146103b1578063a6f0e577146103eb578063b199993714610427578063b238ad0e1461045b578063bbe4fd50146104a6578063fa93f883146104c4575b600080fd5b610115600480360381019080803590602001909291905050506104fe565b604051808260ff1660ff16815260200191505060405180910390f35b61014f6004803603810190808035906020019092919050505061052b565b604051808260ff1660ff16815260200191505060405180910390f35b6101c1600480360381019080803561ffff169060200190929190803560ff169060200190929190803560ff169060200190929190803560ff169060200190929190803560ff169060200190929190505050610552565b6040518082815260200191505060405180910390f35b6101f56004803603810190808035906020019092919050505061056e565b604051808260ff1660ff16815260200191505060405180910390f35b61025a600480360381019080803561ffff169060200190929190803560ff169060200190929190803560ff169060200190929190803560ff169060200190929190505050610584565b6040518082815260200191505060405180910390f35b61028e6004803603810190808035906020019092919050505061059f565b604051808260ff1660ff16815260200191505060405180910390f35b6102e6600480360381019080803561ffff169060200190929190803560ff169060200190929190803560ff1690602001909291905050506105b5565b6040518082815260200191505060405180910390f35b61035f600480360381019080803561ffff169060200190929190803560ff169060200190929190803560ff169060200190929190803560ff169060200190929190803560ff169060200190929190803560ff1690602001909291905050506105d0565b6040518082815260200191505060405180910390f35b61039360048036038101908080359060200190929190505050610877565b604051808261ffff1661ffff16815260200191505060405180910390f35b6103cf60048036038101908080359060200190929190505050610922565b604051808260ff1660ff16815260200191505060405180910390f35b61040d600480360381019080803561ffff169060200190929190505050610938565b604051808215151515815260200191505060405180910390f35b610445600480360381019080803590602001909291905050506109b9565b6040518082815260200191505060405180910390f35b61048a600480360381019080803560ff169060200190929190803561ffff1690602001909291905050506109f2565b604051808260ff1660ff16815260200191505060405180910390f35b6104ae610abe565b6040518082815260200191505060405180910390f35b6104e260048036038101908080359060200190929190505050610ac6565b604051808260ff1660ff16815260200191505060405180910390f35b60006018603c808481151561050f57fe5b0481151561051957fe5b0481151561052357fe5b069050919050565b600060076004620151808481151561053f57fe5b040181151561054a57fe5b069050919050565b6000610563868686868660006105d0565b905095945050505050565b600061057982610ae7565b604001519050919050565b6000610595858585856000806105d0565b9050949350505050565b6000603c828115156105ad57fe5b069050919050565b60006105c784848460008060006105d0565b90509392505050565b6000806105db610c88565b6107b291505b8861ffff168261ffff161015610624576105fa82610938565b1561060d576301e2850083019250610617565b6301e13380830192505b81806001019250506105e1565b601f816000600c8110151561063557fe5b602002019060ff16908160ff168152505061064f89610938565b1561067b57601d816001600c8110151561066557fe5b602002019060ff16908160ff168152505061069e565b601c816001600c8110151561068c57fe5b602002019060ff16908160ff16815250505b601f816002600c811015156106af57fe5b602002019060ff16908160ff1681525050601e816003600c811015156106d157fe5b602002019060ff16908160ff1681525050601f816004600c811015156106f357fe5b602002019060ff16908160ff1681525050601e816005600c8110151561071557fe5b602002019060ff16908160ff1681525050601f816006600c8110151561073757fe5b602002019060ff16908160ff1681525050601f816007600c8110151561075957fe5b602002019060ff16908160ff1681525050601e816008600c8110151561077b57fe5b602002019060ff16908160ff1681525050601f816009600c8110151561079d57fe5b602002019060ff16908160ff1681525050601e81600a600c811015156107bf57fe5b602002019060ff16908160ff1681525050601f81600b600c811015156107e157fe5b602002019060ff16908160ff1681525050600191505b8760ff168261ffff16101561083957806001830361ffff16600c8110151561081b57fe5b602002015160ff1662015180028301925081806001019250506107f7565b6001870360ff166201518002830192508560ff16610e1002830192508460ff16603c02830192508360ff168301925082925050509695505050505050565b600080600080600092506301e133808581151561089057fe5b046107b261ffff160191506108aa6107b261ffff166109b9565b6108b78361ffff166109b9565b039050806301e285000283019250806107b2830361ffff16036301e1338002830192505b84831115610917576108ef60018303610938565b15610902576301e285008303925061090c565b6301e13380830392505b6001820391506108db565b819350505050919050565b600061092d82610ae7565b602001519050919050565b60008060048361ffff1681151561094b57fe5b0661ffff1614151561096057600090506109b4565b600060648361ffff1681151561097257fe5b0661ffff1614151561098757600190506109b4565b60006101908361ffff1681151561099a57fe5b0661ffff161415156109af57600090506109b4565b600190505b919050565b6000600182039150610190828115156109ce57fe5b046064838115156109db57fe5b046004848115156109e857fe5b0403019050919050565b600060018360ff161480610a09575060038360ff16145b80610a17575060058360ff16145b80610a25575060078360ff16145b80610a33575060088360ff16145b80610a415750600a8360ff16145b80610a4f5750600c8360ff16145b15610a5d57601f9050610ab8565b60048360ff161480610a72575060068360ff16145b80610a80575060098360ff16145b80610a8e5750600b8360ff16145b15610a9c57601e9050610ab8565b610aa582610938565b15610ab357601d9050610ab8565b601c90505b92915050565b600042905090565b6000603c8083811515610ad557fe5b04811515610adf57fe5b069050919050565b610aef610cac565b60008060008060009350610b0286610877565b856000019061ffff16908161ffff1681525050610b246107b261ffff166109b9565b610b35866000015161ffff166109b9565b039250826301e285000284019350826107b286600001510361ffff16036301e133800284019350600191505b600c8260ff16111515610bb957610b7c8286600001516109f2565b60ff1662015180029050858482011115610ba75781856020019060ff16908160ff1681525050610bb9565b80840193508180600101925050610b61565b600191505b610bd0856020015186600001516109f2565b60ff168260ff16111515610c1757858462015180011115610c025781856040019060ff16908160ff1681525050610c17565b62015180840193508180600101925050610bbe565b610c20866104fe565b856060019060ff16908160ff1681525050610c3a86610ac6565b856080019060ff16908160ff1681525050610c548661059f565b8560a0019060ff16908160ff1681525050610c6e8661052b565b8560c0019060ff16908160ff168152505050505050919050565b61018060405190810160405280600c90602082028038833980820191505090505090565b60e060405190810160405280600061ffff168152602001600060ff168152602001600060ff168152602001600060ff168152602001600060ff168152602001600060ff168152602001600060ff16815250905600a165627a7a7230582039813ac4ba073737522b4ad75f09d3a134b1f090b2ae731fe7ca6a75e561f0140029",
  "source": "pragma solidity 0.4.24;\nlibrary DateTime {\n\n    struct _DateTime {\n        uint16 year;\n        uint8 month;\n        uint8 day;\n        uint8 hour;\n        uint8 minute;\n        uint8 second;\n        uint8 weekday;\n    }\n\n    uint constant DAY_IN_SECONDS = 86400;\n    uint constant YEAR_IN_SECONDS = 31536000;\n    uint constant LEAP_YEAR_IN_SECONDS = 31622400;\n\n    uint constant HOUR_IN_SECONDS = 3600;\n    uint constant MINUTE_IN_SECONDS = 60;\n\n    uint16 constant ORIGIN_YEAR = 1970;\n\n    function isLeapYear(uint16 year) public pure returns (bool) {\n        if (year % 4 != 0) {\n            return false;\n        }\n        if (year % 100 != 0) {\n            return true;\n        }\n        if (year % 400 != 0) {\n            return false;\n        }\n        return true;\n    }\n\n    function leapYearsBefore(uint year) public pure returns (uint) {\n        year -= 1;\n        return year / 4 - year / 100 + year / 400;\n    }\n\n    function getDaysInMonth(uint8 month, uint16 year) public pure returns (uint8) {\n        if (month == 1 || month == 3 || month == 5 || month == 7 || month == 8 || month == 10 || month == 12) {\n            return 31;\n        }\n        else if (month == 4 || month == 6 || month == 9 || month == 11) {\n            return 30;\n        }\n        else if (isLeapYear(year)) {\n            return 29;\n        }\n        else {\n            return 28;\n        }\n    }\n\n    function parseTimestamp(uint timestamp) internal pure returns (_DateTime dt) {\n        uint secondsAccountedFor = 0;\n        uint buf;\n        uint8 i;\n\n        // Year\n        dt.year = getYear(timestamp);\n        buf = leapYearsBefore(dt.year) - leapYearsBefore(ORIGIN_YEAR);\n\n        secondsAccountedFor += LEAP_YEAR_IN_SECONDS * buf;\n        secondsAccountedFor += YEAR_IN_SECONDS * (dt.year - ORIGIN_YEAR - buf);\n\n        // Month\n        uint secondsInMonth;\n        for (i = 1; i <= 12; i++) {\n            secondsInMonth = DAY_IN_SECONDS * getDaysInMonth(i, dt.year);\n            if (secondsInMonth + secondsAccountedFor > timestamp) {\n                dt.month = i;\n                break;\n            }\n            secondsAccountedFor += secondsInMonth;\n        }\n\n        // Day\n        for (i = 1; i <= getDaysInMonth(dt.month, dt.year); i++) {\n            if (DAY_IN_SECONDS + secondsAccountedFor > timestamp) {\n                dt.day = i;\n                break;\n            }\n            secondsAccountedFor += DAY_IN_SECONDS;\n        }\n\n        // Hour\n        dt.hour = getHour(timestamp);\n\n        // Minute\n        dt.minute = getMinute(timestamp);\n\n        // Second\n        dt.second = getSecond(timestamp);\n\n        // Day of week.\n        dt.weekday = getWeekday(timestamp);\n    }\n\n    function getYear(uint timestamp) public pure returns (uint16) {\n        uint secondsAccountedFor = 0;\n        uint16 year;\n        uint numLeapYears;\n\n        // Year\n        year = uint16(ORIGIN_YEAR + timestamp / YEAR_IN_SECONDS);\n        numLeapYears = leapYearsBefore(year) - leapYearsBefore(ORIGIN_YEAR);\n\n        secondsAccountedFor += LEAP_YEAR_IN_SECONDS * numLeapYears;\n        secondsAccountedFor += YEAR_IN_SECONDS * (year - ORIGIN_YEAR - numLeapYears);\n\n        while (secondsAccountedFor > timestamp) {\n            if (isLeapYear(uint16(year - 1))) {\n                secondsAccountedFor -= LEAP_YEAR_IN_SECONDS;\n            }\n            else {\n                secondsAccountedFor -= YEAR_IN_SECONDS;\n            }\n            year -= 1;\n        }\n        return year;\n    }\n\n    function getMonth(uint timestamp) public pure returns (uint8) {\n        return parseTimestamp(timestamp).month;\n    }\n\n    function getDay(uint timestamp) public pure returns (uint8) {\n        return parseTimestamp(timestamp).day;\n    }\n\n    function getHour(uint timestamp) public pure returns (uint8) {\n        return uint8((timestamp / 60 / 60) % 24);\n    }\n\n    function getMinute(uint timestamp) public pure returns (uint8) {\n        return uint8((timestamp / 60) % 60);\n    }\n\n    function getSecond(uint timestamp) public pure returns (uint8) {\n        return uint8(timestamp % 60);\n    }\n\n    function getWeekday(uint timestamp) public pure returns (uint8) {\n        return uint8((timestamp / DAY_IN_SECONDS + 4) % 7);\n    }\n\n    function toTimestamp(uint16 year, uint8 month, uint8 day) public pure returns (uint timestamp) {\n        return toTimestamp(year, month, day, 0, 0, 0);\n    }\n\n    function toTimestamp(uint16 year, uint8 month, uint8 day, uint8 hour) public pure returns (uint timestamp) {\n        return toTimestamp(year, month, day, hour, 0, 0);\n    }\n\n    function toTimestamp(uint16 year, uint8 month, uint8 day, uint8 hour, uint8 minute) public pure returns (uint timestamp) {\n        return toTimestamp(year, month, day, hour, minute, 0);\n    }\n\n    function toTimestamp(uint16 year, uint8 month, uint8 day, uint8 hour, uint8 minute, uint8 second) public pure returns (uint timestamp) {\n        uint16 i;\n\n        // Year\n        for (i = ORIGIN_YEAR; i < year; i++) {\n            if (isLeapYear(i)) {\n                timestamp += LEAP_YEAR_IN_SECONDS;\n            }\n            else {\n                timestamp += YEAR_IN_SECONDS;\n            }\n        }\n\n        // Month\n        uint8[12] memory monthDayCounts;\n        monthDayCounts[0] = 31;\n        if (isLeapYear(year)) {\n            monthDayCounts[1] = 29;\n        }\n        else {\n            monthDayCounts[1] = 28;\n        }\n        monthDayCounts[2] = 31;\n        monthDayCounts[3] = 30;\n        monthDayCounts[4] = 31;\n        monthDayCounts[5] = 30;\n        monthDayCounts[6] = 31;\n        monthDayCounts[7] = 31;\n        monthDayCounts[8] = 30;\n        monthDayCounts[9] = 31;\n        monthDayCounts[10] = 30;\n        monthDayCounts[11] = 31;\n\n        for (i = 1; i < month; i++) {\n            timestamp += DAY_IN_SECONDS * monthDayCounts[i - 1];\n        }\n\n        // Day\n        timestamp += DAY_IN_SECONDS * (day - 1);\n\n        // Hour\n        timestamp += HOUR_IN_SECONDS * (hour);\n\n        // Minute\n        timestamp += MINUTE_IN_SECONDS * (minute);\n\n        // Second\n        timestamp += second;\n\n        return timestamp;\n    }\n    function getNow() public view returns(uint){\n        return now;\n    }\n}",
  "sourcePath": "/Users/noahkim/Documents/College/preps_v2/src/preps/src/core/contracts/DateTime.sol",
  "compiler": {
    "name": "solc",
    "version": "0.4.24+commit.e67f0147.Emscripten.clang"
  },
  "schemaVersion": "2.0.1",
  "updatedAt": "2019-03-13T15:05:32.144Z"
}