{
  "contractName": "Deployment",
  "abi": [
    {
      "inputs": [],
      "payable": false,
      "stateMutability": "nonpayable",
      "type": "constructor"
    },
    {
      "constant": true,
      "inputs": [],
      "name": "getRestaurantRepository",
      "outputs": [
        {
          "name": "",
          "type": "address"
        }
      ],
      "payable": false,
      "stateMutability": "view",
      "type": "function"
    },
    {
      "constant": true,
      "inputs": [],
      "name": "getCommentRepository",
      "outputs": [
        {
          "name": "",
          "type": "address"
        }
      ],
      "payable": false,
      "stateMutability": "view",
      "type": "function"
    },
    {
      "constant": true,
      "inputs": [],
      "name": "getMembershipRepository",
      "outputs": [
        {
          "name": "",
          "type": "address"
        }
      ],
      "payable": false,
      "stateMutability": "view",
      "type": "function"
    }
  ],
  "bytecode": "0x608060405234801561001057600080fd5b506060806060600080610021611bc0565b604051809103906000f08015801561003d573d6000803e3d6000fd5b50600260006101000a81548173ffffffffffffffffffffffffffffffffffffffff021916908373ffffffffffffffffffffffffffffffffffffffff160217905550610086611bd1565b604051809103906000f0801580156100a2573d6000803e3d6000fd5b50600160006101000a81548173ffffffffffffffffffffffffffffffffffffffff021916908373ffffffffffffffffffffffffffffffffffffffff1602179055506100eb611be2565b604051809103906000f080158015610107573d6000803e3d6000fd5b506000806101000a81548173ffffffffffffffffffffffffffffffffffffffff021916908373ffffffffffffffffffffffffffffffffffffffff160217905550600260009054906101000a900473ffffffffffffffffffffffffffffffffffffffff1673ffffffffffffffffffffffffffffffffffffffff16634b035bea6000809054906101000a900473ffffffffffffffffffffffffffffffffffffffff166040518263ffffffff167c0100000000000000000000000000000000000000000000000000000000028152600401808273ffffffffffffffffffffffffffffffffffffffff1673ffffffffffffffffffffffffffffffffffffffff168152602001915050600060405180830381600087803b15801561022557600080fd5b505af1158015610239573d6000803e3d6000fd5b50505050600260009054906101000a900473ffffffffffffffffffffffffffffffffffffffff1673ffffffffffffffffffffffffffffffffffffffff1663df721e7f600160009054906101000a900473ffffffffffffffffffffffffffffffffffffffff166040518263ffffffff167c0100000000000000000000000000000000000000000000000000000000028152600401808273ffffffffffffffffffffffffffffffffffffffff1673ffffffffffffffffffffffffffffffffffffffff168152602001915050600060405180830381600087803b15801561031c57600080fd5b505af1158015610330573d6000803e3d6000fd5b505050506000809054906101000a900473ffffffffffffffffffffffffffffffffffffffff1673ffffffffffffffffffffffffffffffffffffffff16638167892a600260009054906101000a900473ffffffffffffffffffffffffffffffffffffffff166040518263ffffffff167c0100000000000000000000000000000000000000000000000000000000028152600401808273ffffffffffffffffffffffffffffffffffffffff1673ffffffffffffffffffffffffffffffffffffffff168152602001915050600060405180830381600087803b15801561041257600080fd5b505af1158015610426573d6000803e3d6000fd5b50505050600160009054906101000a900473ffffffffffffffffffffffffffffffffffffffff1673ffffffffffffffffffffffffffffffffffffffff16638167892a600260009054906101000a900473ffffffffffffffffffffffffffffffffffffffff166040518263ffffffff167c0100000000000000000000000000000000000000000000000000000000028152600401808273ffffffffffffffffffffffffffffffffffffffff1673ffffffffffffffffffffffffffffffffffffffff168152602001915050600060405180830381600087803b15801561050957600080fd5b505af115801561051d573d6000803e3d6000fd5b5050505060e06040519081016040528060bf81526020016200c87760bf913994506040805190810160405280601681526020017f616263406162632e636f6d2c20585858582d58585858000000000000000000008152509350600260009054906101000a900473ffffffffffffffffffffffffffffffffffffffff1673ffffffffffffffffffffffffffffffffffffffff1663f1b2685973b2c6709463c084b00db413488f5d6677c39d27be878760046040518563ffffffff167c0100000000000000000000000000000000000000000000000000000000028152600401808573ffffffffffffffffffffffffffffffffffffffff1673ffffffffffffffffffffffffffffffffffffffff168152602001806020018060200180602001806020018681526020018581038552600c8152602001807f52657374617572616e7420310000000000000000000000000000000000000000815250602001858103845288818151815260200191508051906020019080838360005b838110156106b0578082015181840152602081019050610695565b50505050905090810190601f1680156106dd5780820380516001836020036101000a031916815260200191505b50858103835287818151815260200191508051906020019080838360005b838110156107165780820151818401526020810190506106fb565b50505050905090810190601f1680156107435780820380516001836020036101000a031916815260200191505b50858103825260188152602001807f2f696d672f73616d706c652f62616e6e65722f612e6a7067000000000000000081525060200198505050505050505050602060405180830381600087803b15801561079c57600080fd5b505af11580156107b0573d6000803e3d6000fd5b505050506040513d60208110156107c657600080fd5b810190808051906020019092919050505050600260009054906101000a900473ffffffffffffffffffffffffffffffffffffffff1673ffffffffffffffffffffffffffffffffffffffff1663f1b2685973b53a4e90b720c68d5beb996739c2baa4fcbd10b6878760046040518563ffffffff167c0100000000000000000000000000000000000000000000000000000000028152600401808573ffffffffffffffffffffffffffffffffffffffff1673ffffffffffffffffffffffffffffffffffffffff168152602001806020018060200180602001806020018681526020018581038552600c8152602001807f52657374617572616e7420320000000000000000000000000000000000000000815250602001858103845288818151815260200191508051906020019080838360005b838110156109125780820151818401526020810190506108f7565b50505050905090810190601f16801561093f5780820380516001836020036101000a031916815260200191505b50858103835287818151815260200191508051906020019080838360005b8381101561097857808201518184015260208101905061095d565b50505050905090810190601f1680156109a55780820380516001836020036101000a031916815260200191505b50858103825260188152602001807f2f696d672f73616d706c652f62616e6e65722f622e6a7067000000000000000081525060200198505050505050505050602060405180830381600087803b1580156109fe57600080fd5b505af1158015610a12573d6000803e3d6000fd5b505050506040513d6020811015610a2857600080fd5b810190808051906020019092919050505050600260009054906101000a900473ffffffffffffffffffffffffffffffffffffffff1673ffffffffffffffffffffffffffffffffffffffff1663f1b268597342033ed8a06df40fd4933f5d03e2558ae1412f15878760046040518563ffffffff167c0100000000000000000000000000000000000000000000000000000000028152600401808573ffffffffffffffffffffffffffffffffffffffff1673ffffffffffffffffffffffffffffffffffffffff168152602001806020018060200180602001806020018681526020018581038552600c8152602001807f52657374617572616e7420330000000000000000000000000000000000000000815250602001858103845288818151815260200191508051906020019080838360005b83811015610b74578082015181840152602081019050610b59565b50505050905090810190601f168015610ba15780820380516001836020036101000a031916815260200191505b50858103835287818151815260200191508051906020019080838360005b83811015610bda578082015181840152602081019050610bbf565b50505050905090810190601f168015610c075780820380516001836020036101000a031916815260200191505b50858103825260188152602001807f2f696d672f73616d706c652f62616e6e65722f632e6a7067000000000000000081525060200198505050505050505050602060405180830381600087803b158015610c6057600080fd5b505af1158015610c74573d6000803e3d6000fd5b505050506040513d6020811015610c8a57600080fd5b8101908080519060200190929190505050506040805190810160405280601d81526020017f566976616d757320656c656d656e74756d2073656d706572206e6973690000008152509250600091505b600260009054906101000a900473ffffffffffffffffffffffffffffffffffffffff1673ffffffffffffffffffffffffffffffffffffffff16638a7169c06040518163ffffffff167c0100000000000000000000000000000000000000000000000000000000028152600401600060405180830381600087803b158015610d5f57600080fd5b505af1158015610d73573d6000803e3d6000fd5b505050506040513d6000823e3d601f19601f820116820180604052506020811015610d9d57600080fd5b810190808051640100000000811115610db557600080fd5b82810190506020810184811115610dcb57600080fd5b8151856020820283011164010000000082111715610de857600080fd5b505092919050505051821015611b1957600260009054906101000a900473ffffffffffffffffffffffffffffffffffffffff1673ffffffffffffffffffffffffffffffffffffffff16638a7169c06040518163ffffffff167c0100000000000000000000000000000000000000000000000000000000028152600401600060405180830381600087803b158015610e7e57600080fd5b505af1158015610e92573d6000803e3d6000fd5b505050506040513d6000823e3d601f19601f820116820180604052506020811015610ebc57600080fd5b810190808051640100000000811115610ed457600080fd5b82810190506020810184811115610eea57600080fd5b8151856020820283011164010000000082111715610f0757600080fd5b505092919050505082815181101515610f1c57fe5b9060200190602002015190508073ffffffffffffffffffffffffffffffffffffffff1663986646a78460966040518363ffffffff167c010000000000000000000000000000000000000000000000000000000002815260040180806020018060200180602001858152602001848103845260078152602001807f436869636b656e00000000000000000000000000000000000000000000000000815250602001848103835286818151815260200191508051906020019080838360005b83811015610ff4578082015181840152602081019050610fd9565b50505050905090810190601f1680156110215780820380516001836020036101000a031916815260200191505b508481038252601c8152602001807f2f696d672f73616d706c652f6d656e752f636869636b656e2e6a70670000000081525060200195505050505050600060405180830381600087803b15801561107757600080fd5b505af115801561108b573d6000803e3d6000fd5b505050508073ffffffffffffffffffffffffffffffffffffffff1663986646a784603c6040518363ffffffff167c010000000000000000000000000000000000000000000000000000000002815260040180806020018060200180602001858152602001848103845260088152602001807f426962696d626170000000000000000000000000000000000000000000000000815250602001848103835286818151815260200191508051906020019080838360005b8381101561115b578082015181840152602081019050611140565b50505050905090810190601f1680156111885780820380516001836020036101000a031916815260200191505b508481038252601d8152602001807f2f696d672f73616d706c652f6d656e752f626962696d6261702e6a706700000081525060200195505050505050600060405180830381600087803b1580156111de57600080fd5b505af11580156111f2573d6000803e3d6000fd5b505050508073ffffffffffffffffffffffffffffffffffffffff1663986646a78460466040518363ffffffff167c010000000000000000000000000000000000000000000000000000000002815260040180806020018060200180602001858152602001848103845260078152602001807f44696d2053756d00000000000000000000000000000000000000000000000000815250602001848103835286818151815260200191508051906020019080838360005b838110156112c25780820151818401526020810190506112a7565b50505050905090810190601f1680156112ef5780820380516001836020036101000a031916815260200191505b508481038252601b8152602001807f2f696d672f73616d706c652f6d656e752f64696d73756d2e6a7067000000000081525060200195505050505050600060405180830381600087803b15801561134557600080fd5b505af1158015611359573d6000803e3d6000fd5b505050508073ffffffffffffffffffffffffffffffffffffffff1663986646a78460326040518363ffffffff167c0100000000000000000000000000000000000000000000000000000000028152600401808060200180602001806020018581526020018481038452600a8152602001807f447279204e6f6f646c6500000000000000000000000000000000000000000000815250602001848103835286818151815260200191508051906020019080838360005b8381101561142957808201518184015260208101905061140e565b50505050905090810190601f1680156114565780820380516001836020036101000a031916815260200191505b508481038252601b8152602001807f2f696d672f73616d706c652f6d656e752f6e6f6f646c652e6a7067000000000081525060200195505050505050600060405180830381600087803b1580156114ac57600080fd5b505af11580156114c0573d6000803e3d6000fd5b505050508073ffffffffffffffffffffffffffffffffffffffff1663986646a78460286040518363ffffffff167c010000000000000000000000000000000000000000000000000000000002815260040180806020018060200180602001858152602001848103845260048152602001807f546f667500000000000000000000000000000000000000000000000000000000815250602001848103835286818151815260200191508051906020019080838360005b83811015611590578082015181840152602081019050611575565b50505050905090810190601f1680156115bd5780820380516001836020036101000a031916815260200191505b50848103825260198152602001807f2f696d672f73616d706c652f6d656e752f746f66752e6a70670000000000000081525060200195505050505050600060405180830381600087803b15801561161357600080fd5b505af1158015611627573d6000803e3d6000fd5b505050508073ffffffffffffffffffffffffffffffffffffffff1663986646a784601e6040518363ffffffff167c010000000000000000000000000000000000000000000000000000000002815260040180806020018060200180602001858152602001848103845260068152602001807f436f666665650000000000000000000000000000000000000000000000000000815250602001848103835286818151815260200191508051906020019080838360005b838110156116f75780820151818401526020810190506116dc565b50505050905090810190601f1680156117245780820380516001836020036101000a031916815260200191505b508481038252601b8152602001807f2f696d672f73616d706c652f6d656e752f636f666665652e6a7067000000000081525060200195505050505050600060405180830381600087803b15801561177a57600080fd5b505af115801561178e573d6000803e3d6000fd5b505050508073ffffffffffffffffffffffffffffffffffffffff1663986646a78460196040518363ffffffff167c010000000000000000000000000000000000000000000000000000000002815260040180806020018060200180602001858152602001848103845260088152602001807f4d696c6b20546561000000000000000000000000000000000000000000000000815250602001848103835286818151815260200191508051906020019080838360005b8381101561185e578082015181840152602081019050611843565b50505050905090810190601f16801561188b5780820380516001836020036101000a031916815260200191505b508481038252601c8152602001807f2f696d672f73616d706c652f6d656e752f6d696c6b7465612e6a70670000000081525060200195505050505050600060405180830381600087803b1580156118e157600080fd5b505af11580156118f5573d6000803e3d6000fd5b5050505060008214156119ae578073ffffffffffffffffffffffffffffffffffffffff166340fcf56b60726202abfc60166205245e6040518563ffffffff167c010000000000000000000000000000000000000000000000000000000002815260040180858152602001848152602001838152602001828152602001945050505050600060405180830381600087803b15801561199157600080fd5b505af11580156119a5573d6000803e3d6000fd5b50505050611b0c565b6001821415611a63578073ffffffffffffffffffffffffffffffffffffffff166340fcf56b60726202b818601662052a9c6040518563ffffffff167c010000000000000000000000000000000000000000000000000000000002815260040180858152602001848152602001838152602001828152602001945050505050600060405180830381600087803b158015611a4657600080fd5b505af1158015611a5a573d6000803e3d6000fd5b50505050611b0b565b8073ffffffffffffffffffffffffffffffffffffffff166340fcf56b60726202c349601662050b756040518563ffffffff167c010000000000000000000000000000000000000000000000000000000002815260040180858152602001848152602001838152602001828152602001945050505050600060405180830381600087803b158015611af257600080fd5b505af1158015611b06573d6000803e3d6000fd5b505050505b5b8180600101925050610cd9565b6000809054906101000a900473ffffffffffffffffffffffffffffffffffffffff1673ffffffffffffffffffffffffffffffffffffffff1663e0dcd96a6040518163ffffffff167c0100000000000000000000000000000000000000000000000000000000028152600401600060405180830381600087803b158015611b9e57600080fd5b505af1158015611bb2573d6000803e3d6000fd5b505050505050505050611bf3565b6040516157268062001e0d83390190565b60405161125f806200753383390190565b6040516140e5806200879283390190565b61020a8062001c036000396000f300608060405260043610610057576000357c0100000000000000000000000000000000000000000000000000000000900463ffffffff168063282c41611461005c57806359c0634e146100b35780635edfe03c1461010a575b600080fd5b34801561006857600080fd5b50610071610161565b604051808273ffffffffffffffffffffffffffffffffffffffff1673ffffffffffffffffffffffffffffffffffffffff16815260200191505060405180910390f35b3480156100bf57600080fd5b506100c861018b565b604051808273ffffffffffffffffffffffffffffffffffffffff1673ffffffffffffffffffffffffffffffffffffffff16815260200191505060405180910390f35b34801561011657600080fd5b5061011f6101b5565b604051808273ffffffffffffffffffffffffffffffffffffffff1673ffffffffffffffffffffffffffffffffffffffff16815260200191505060405180910390f35b6000600260009054906101000a900473ffffffffffffffffffffffffffffffffffffffff16905090565b6000600160009054906101000a900473ffffffffffffffffffffffffffffffffffffffff16905090565b60008060009054906101000a900473ffffffffffffffffffffffffffffffffffffffff169050905600a165627a7a72305820581fef7e933d1cc25d417a85d826db43fa07233b9117acbe406f2727f1abd0b30029608060405234801561001057600080fd5b50615706806100206000396000f300608060405260043610620000c7576000357c0100000000000000000000000000000000000000000000000000000000900463ffffffff168063234b185014620000cc5780632f54bf6e14620001125780633ddadf7c1462000170578063465cbd6714620001f65780634b035bea146200027c57806356baf8a114620002c25780638a7169c0146200044a5780639268683214620004bb578063a67514261462000519578063d0e314f4146200055f578063df721e7f14620005af578063f1b2685914620005f5575b600080fd5b348015620000d957600080fd5b5062000110600480360381019080803573ffffffffffffffffffffffffffffffffffffffff1690602001909291905050506200079d565b005b3480156200011f57600080fd5b5062000156600480360381019080803573ffffffffffffffffffffffffffffffffffffffff16906020019092919050505062000835565b604051808215151515815260200191505060405180910390f35b3480156200017d57600080fd5b50620001b4600480360381019080803573ffffffffffffffffffffffffffffffffffffffff169060200190929190505050620008cc565b604051808273ffffffffffffffffffffffffffffffffffffffff1673ffffffffffffffffffffffffffffffffffffffff16815260200191505060405180910390f35b3480156200020357600080fd5b506200023a600480360381019080803573ffffffffffffffffffffffffffffffffffffffff16906020019092919050505062000935565b604051808273ffffffffffffffffffffffffffffffffffffffff1673ffffffffffffffffffffffffffffffffffffffff16815260200191505060405180910390f35b3480156200028957600080fd5b50620002c0600480360381019080803573ffffffffffffffffffffffffffffffffffffffff169060200190929190505050620009b4565b005b348015620002cf57600080fd5b5062000408600480360381019080803590602001908201803590602001908080601f0160208091040260200160405190810160405280939291908181526020018383808284378201915050505050509192919290803590602001908201803590602001908080601f0160208091040260200160405190810160405280939291908181526020018383808284378201915050505050509192919290803590602001908201803590602001908080601f0160208091040260200160405190810160405280939291908181526020018383808284378201915050505050509192919290803590602001908201803590602001908080601f01602080910402602001604051908101604052809392919081815260200183838082843782019150505050505091929192908035906020019092919050505062000a56565b604051808273ffffffffffffffffffffffffffffffffffffffff1673ffffffffffffffffffffffffffffffffffffffff16815260200191505060405180910390f35b3480156200045757600080fd5b506200046262000ec8565b6040518080602001828103825283818151815260200191508051906020019060200280838360005b83811015620004a75780820151818401526020810190506200048a565b505050509050019250505060405180910390f35b348015620004c857600080fd5b50620004ff600480360381019080803573ffffffffffffffffffffffffffffffffffffffff16906020019092919050505062000f58565b604051808215151515815260200191505060405180910390f35b3480156200052657600080fd5b506200055d600480360381019080803573ffffffffffffffffffffffffffffffffffffffff16906020019092919050505062001018565b005b3480156200056c57600080fd5b50620005ad600480360381019080803573ffffffffffffffffffffffffffffffffffffffff16906020019092919080359060200190929190505050620010b1565b005b348015620005bc57600080fd5b50620005f3600480360381019080803573ffffffffffffffffffffffffffffffffffffffff1690602001909291905050506200116b565b005b3480156200060257600080fd5b506200075b600480360381019080803573ffffffffffffffffffffffffffffffffffffffff169060200190929190803590602001908201803590602001908080601f0160208091040260200160405190810160405280939291908181526020018383808284378201915050505050509192919290803590602001908201803590602001908080601f0160208091040260200160405190810160405280939291908181526020018383808284378201915050505050509192919290803590602001908201803590602001908080601f0160208091040260200160405190810160405280939291908181526020018383808284378201915050505050509192919290803590602001908201803590602001908080601f0160208091040260200160405190810160405280939291908181526020018383808284378201915050505050509192919290803590602001909291905050506200120d565b604051808273ffffffffffffffffffffffffffffffffffffffff1673ffffffffffffffffffffffffffffffffffffffff16815260200191505060405180910390f35b620007a83362000f58565b1515620007b457600080fd5b33600460008373ffffffffffffffffffffffffffffffffffffffff1673ffffffffffffffffffffffffffffffffffffffff16815260200190815260200160002060006101000a81548173ffffffffffffffffffffffffffffffffffffffff021916908373ffffffffffffffffffffffffffffffffffffffff16021790555050565b60008073ffffffffffffffffffffffffffffffffffffffff166000808473ffffffffffffffffffffffffffffffffffffffff1673ffffffffffffffffffffffffffffffffffffffff16815260200190815260200160002060009054906101000a900473ffffffffffffffffffffffffffffffffffffffff1673ffffffffffffffffffffffffffffffffffffffff1614159050919050565b6000600460008373ffffffffffffffffffffffffffffffffffffffff1673ffffffffffffffffffffffffffffffffffffffff16815260200190815260200160002060009054906101000a900473ffffffffffffffffffffffffffffffffffffffff169050919050565b6000620009428262000835565b15156200094e57600080fd5b6000808373ffffffffffffffffffffffffffffffffffffffff1673ffffffffffffffffffffffffffffffffffffffff16815260200190815260200160002060009054906101000a900473ffffffffffffffffffffffffffffffffffffffff169050919050565b600073ffffffffffffffffffffffffffffffffffffffff16600260009054906101000a900473ffffffffffffffffffffffffffffffffffffffff1673ffffffffffffffffffffffffffffffffffffffff1614151562000a1257600080fd5b80600260006101000a81548173ffffffffffffffffffffffffffffffffffffffff021916908373ffffffffffffffffffffffffffffffffffffffff16021790555050565b60008060008311151562000a6957600080fd5b600073ffffffffffffffffffffffffffffffffffffffff166000803373ffffffffffffffffffffffffffffffffffffffff1673ffffffffffffffffffffffffffffffffffffffff16815260200190815260200160002060009054906101000a900473ffffffffffffffffffffffffffffffffffffffff1673ffffffffffffffffffffffffffffffffffffffff1614151562000b0357600080fd5b338787878787600260009054906101000a900473ffffffffffffffffffffffffffffffffffffffff16600360009054906101000a900473ffffffffffffffffffffffffffffffffffffffff1662000b5962001680565b808973ffffffffffffffffffffffffffffffffffffffff1673ffffffffffffffffffffffffffffffffffffffff168152602001806020018060200180602001806020018881526020018773ffffffffffffffffffffffffffffffffffffffff1673ffffffffffffffffffffffffffffffffffffffff1681526020018673ffffffffffffffffffffffffffffffffffffffff1673ffffffffffffffffffffffffffffffffffffffff16815260200185810385528c818151815260200191508051906020019080838360005b8381101562000c4057808201518184015260208101905062000c23565b50505050905090810190601f16801562000c6e5780820380516001836020036101000a031916815260200191505b5085810384528b818151815260200191508051906020019080838360005b8381101562000ca957808201518184015260208101905062000c8c565b50505050905090810190601f16801562000cd75780820380516001836020036101000a031916815260200191505b5085810383528a818151815260200191508051906020019080838360005b8381101562000d1257808201518184015260208101905062000cf5565b50505050905090810190601f16801562000d405780820380516001836020036101000a031916815260200191505b50858103825289818151815260200191508051906020019080838360005b8381101562000d7b57808201518184015260208101905062000d5e565b50505050905090810190601f16801562000da95780820380516001836020036101000a031916815260200191505b509c50505050505050505050505050604051809103906000f08015801562000dd5573d6000803e3d6000fd5b509050806000803373ffffffffffffffffffffffffffffffffffffffff1673ffffffffffffffffffffffffffffffffffffffff16815260200190815260200160002060006101000a81548173ffffffffffffffffffffffffffffffffffffffff021916908373ffffffffffffffffffffffffffffffffffffffff16021790555060018190806001815401808255809150509060018203906000526020600020016000909192909190916101000a81548173ffffffffffffffffffffffffffffffffffffffff021916908373ffffffffffffffffffffffffffffffffffffffff160217905550508091505095945050505050565b6060600180548060200260200160405190810160405280929190818152602001828054801562000f4e57602002820191906000526020600020905b8160009054906101000a900473ffffffffffffffffffffffffffffffffffffffff1673ffffffffffffffffffffffffffffffffffffffff168152602001906001019080831162000f03575b5050505050905090565b60008060008391508173ffffffffffffffffffffffffffffffffffffffff16630c4f65bd6040518163ffffffff167c0100000000000000000000000000000000000000000000000000000000028152600401602060405180830381600087803b15801562000fc557600080fd5b505af115801562000fda573d6000803e3d6000fd5b505050506040513d602081101562000ff157600080fd5b810190808051906020019092919050505090506200100f8162000835565b92505050919050565b620010233362000f58565b15156200102f57600080fd5b6000600460008373ffffffffffffffffffffffffffffffffffffffff1673ffffffffffffffffffffffffffffffffffffffff16815260200190815260200160002060006101000a81548173ffffffffffffffffffffffffffffffffffffffff021916908373ffffffffffffffffffffffffffffffffffffffff16021790555050565b620010bc3362000f58565b1515620010c857600080fd5b7f9401eb2eee112cf064424252893cfb3c017f15304636d37d7a2ba143bc76ec73338383604051808473ffffffffffffffffffffffffffffffffffffffff1673ffffffffffffffffffffffffffffffffffffffff1681526020018373ffffffffffffffffffffffffffffffffffffffff1673ffffffffffffffffffffffffffffffffffffffff168152602001828152602001935050505060405180910390a15050565b600073ffffffffffffffffffffffffffffffffffffffff16600360009054906101000a900473ffffffffffffffffffffffffffffffffffffffff1673ffffffffffffffffffffffffffffffffffffffff16141515620011c957600080fd5b80600360006101000a81548173ffffffffffffffffffffffffffffffffffffffff021916908373ffffffffffffffffffffffffffffffffffffffff16021790555050565b6000806000831115156200122057600080fd5b600073ffffffffffffffffffffffffffffffffffffffff166000808a73ffffffffffffffffffffffffffffffffffffffff1673ffffffffffffffffffffffffffffffffffffffff16815260200190815260200160002060009054906101000a900473ffffffffffffffffffffffffffffffffffffffff1673ffffffffffffffffffffffffffffffffffffffff16141515620012ba57600080fd5b878787878787600260009054906101000a900473ffffffffffffffffffffffffffffffffffffffff16600360009054906101000a900473ffffffffffffffffffffffffffffffffffffffff166200131062001680565b808973ffffffffffffffffffffffffffffffffffffffff1673ffffffffffffffffffffffffffffffffffffffff168152602001806020018060200180602001806020018881526020018773ffffffffffffffffffffffffffffffffffffffff1673ffffffffffffffffffffffffffffffffffffffff1681526020018673ffffffffffffffffffffffffffffffffffffffff1673ffffffffffffffffffffffffffffffffffffffff16815260200185810385528c818151815260200191508051906020019080838360005b83811015620013f7578082015181840152602081019050620013da565b50505050905090810190601f168015620014255780820380516001836020036101000a031916815260200191505b5085810384528b818151815260200191508051906020019080838360005b838110156200146057808201518184015260208101905062001443565b50505050905090810190601f1680156200148e5780820380516001836020036101000a031916815260200191505b5085810383528a818151815260200191508051906020019080838360005b83811015620014c9578082015181840152602081019050620014ac565b50505050905090810190601f168015620014f75780820380516001836020036101000a031916815260200191505b50858103825289818151815260200191508051906020019080838360005b838110156200153257808201518184015260208101905062001515565b50505050905090810190601f168015620015605780820380516001836020036101000a031916815260200191505b509c50505050505050505050505050604051809103906000f0801580156200158c573d6000803e3d6000fd5b509050806000808a73ffffffffffffffffffffffffffffffffffffffff1673ffffffffffffffffffffffffffffffffffffffff16815260200190815260200160002060006101000a81548173ffffffffffffffffffffffffffffffffffffffff021916908373ffffffffffffffffffffffffffffffffffffffff16021790555060018190806001815401808255809150509060018203906000526020600020016000909192909190916101000a81548173ffffffffffffffffffffffffffffffffffffffff021916908373ffffffffffffffffffffffffffffffffffffffff16021790555050809150509695505050505050565b604051614049806200169283390190560060806040523480156200001157600080fd5b5060405162004049380380620040498339810180604052810190808051906020019092919080518201929190602001805182019291906020018051820192919060200180518201929190602001805190602001909291908051906020019092919080519060200190929190505050336000806101000a81548173ffffffffffffffffffffffffffffffffffffffff021916908373ffffffffffffffffffffffffffffffffffffffff16021790555081600160006101000a81548173ffffffffffffffffffffffffffffffffffffffff021916908373ffffffffffffffffffffffffffffffffffffffff16021790555087600560006101000a81548173ffffffffffffffffffffffffffffffffffffffff021916908373ffffffffffffffffffffffffffffffffffffffff16021790555086600390805190602001906200015992919062000216565b5085600490805190602001906200017292919062000216565b5084600690805190602001906200018b92919062000216565b508360079080519060200190620001a492919062000216565b506000601460006101000a81548160ff0219169083151502179055508260088190555080600260006101000a81548173ffffffffffffffffffffffffffffffffffffffff021916908373ffffffffffffffffffffffffffffffffffffffff1602179055505050505050505050620002c5565b828054600181600116156101000203166002900490600052602060002090601f016020900481019282601f106200025957805160ff19168380011785556200028a565b828001600101855582156200028a579182015b82811115620002895782518255916020019190600101906200026c565b5b5090506200029991906200029d565b5090565b620002c291905b80821115620002be576000816000905550600101620002a4565b5090565b90565b613d7480620002d56000396000f3006080604052600436106101d8576000357c0100000000000000000000000000000000000000000000000000000000900463ffffffff1680630b9362a2146101dd5780630c4f65bd146102495780630cd0fe86146102a05780630d94bed5146102cd5780630dd7cba9146102fa57806312065fe01461043f57806321bd3bec1461046a57806321ed0f6414610573578063249f748e146105a0578063282c4161146105d7578063290bb4531461062e57806334b1b7c2146106975780633ca14969146107035780633cbeb84b1461073257806340fcf56b146107a957806343d726d6146107f45780635edfe03c1461080b578063699028531461086257806370c3fa081461089157806372ad34e4146108bc57806379fbab91146108f357806386896d041461095f578063986646a7146109cb5780639ab35f8314610aca578063a0df976f14610b2b578063a373529014610b94578063add7d41d14610bb4578063ae0a2eb414610beb578063b1ef2d8b14610e04578063bc55491914610e86578063cd42bc1814610ec6578063ce8bb0bd14610ef1578063d09ef24114610f1e578063e8224de014611053578063f3cb8c311461109e578063f943eecd146110e1578063fcfff16f14611278578063fdfd7c981461128f575b600080fd5b3480156101e957600080fd5b506101f26112c2565b6040518080602001828103825283818151815260200191508051906020019060200280838360005b8381101561023557808201518184015260208101905061021a565b505050509050019250505060405180910390f35b34801561025557600080fd5b5061025e611350565b604051808273ffffffffffffffffffffffffffffffffffffffff1673ffffffffffffffffffffffffffffffffffffffff16815260200191505060405180910390f35b3480156102ac57600080fd5b506102cb6004803603810190808035906020019092919050505061137a565b005b3480156102d957600080fd5b506102f8600480360381019080803590602001909291905050506113ec565b005b34801561030657600080fd5b5061043d600480360381019080803590602001908201803590602001908080601f0160208091040260200160405190810160405280939291908181526020018383808284378201915050505050509192919290803590602001908201803590602001908080601f0160208091040260200160405190810160405280939291908181526020018383808284378201915050505050509192919290803590602001908201803590602001908080601f0160208091040260200160405190810160405280939291908181526020018383808284378201915050505050509192919290803590602001908201803590602001908080601f0160208091040260200160405190810160405280939291908181526020018383808284378201915050505050509192919290803590602001909291905050506114d1565b005b34801561044b57600080fd5b5061045461155d565b6040518082815260200191505060405180910390f35b34801561047657600080fd5b5061057160048036038101908080359060200190929190803590602001908201803590602001908080601f0160208091040260200160405190810160405280939291908181526020018383808284378201915050505050509192919290803590602001908201803590602001908080601f0160208091040260200160405190810160405280939291908181526020018383808284378201915050505050509192919290803590602001908201803590602001908080601f01602080910402602001604051908101604052809392919081815260200183838082843782019150505050505091929192908035906020019092919050505061157c565b005b34801561057f57600080fd5b5061059e600480360381019080803590602001909291905050506116f3565b005b3480156105ac57600080fd5b506105d560048036038101908080359060200190929190803590602001909291905050506117eb565b005b3480156105e357600080fd5b506105ec611a65565b604051808273ffffffffffffffffffffffffffffffffffffffff1673ffffffffffffffffffffffffffffffffffffffff16815260200191505060405180910390f35b34801561063a57600080fd5b50610695600480360381019080803590602001908201803590602001908080601f0160208091040260200160405190810160405280939291908181526020018383808284378201915050505050509192919290505050611a8e565b005b3480156106a357600080fd5b506106ac611b3d565b6040518080602001828103825283818151815260200191508051906020019060200280838360005b838110156106ef5780820151818401526020810190506106d4565b505050509050019250505060405180910390f35b34801561070f57600080fd5b50610718611b95565b604051808215151515815260200191505060405180910390f35b6107936004803603810190808035906020019092919080359060200190820180359060200190808060200260200160405190810160405280939291908181526020018383602002808284378201915050505050509192919290505050611bb5565b6040518082815260200191505060405180910390f35b3480156107b557600080fd5b506107f260048036038101908080359060200190929190803590602001909291908035906020019092919080359060200190929190505050612073565b005b34801561080057600080fd5b506108096120c3565b005b34801561081757600080fd5b506108206120e0565b604051808273ffffffffffffffffffffffffffffffffffffffff1673ffffffffffffffffffffffffffffffffffffffff16815260200191505060405180910390f35b34801561086e57600080fd5b5061087761210a565b604051808215151515815260200191505060405180910390f35b34801561089d57600080fd5b506108a6612119565b6040518082815260200191505060405180910390f35b3480156108c857600080fd5b506108f16004803603810190808035906020019092919080359060200190929190505050612160565b005b3480156108ff57600080fd5b5061090861236b565b6040518080602001828103825283818151815260200191508051906020019060200280838360005b8381101561094b578082015181840152602081019050610930565b505050509050019250505060405180910390f35b34801561096b57600080fd5b506109746123c3565b6040518080602001828103825283818151815260200191508051906020019060200280838360005b838110156109b757808201518184015260208101905061099c565b505050509050019250505060405180910390f35b3480156109d757600080fd5b50610ac8600480360381019080803590602001908201803590602001908080601f0160208091040260200160405190810160405280939291908181526020018383808284378201915050505050509192919290803590602001908201803590602001908080601f0160208091040260200160405190810160405280939291908181526020018383808284378201915050505050509192919290803590602001908201803590602001908080601f01602080910402602001604051908101604052809392919081815260200183838082843782019150505050505091929192908035906020019092919050505061241b565b005b348015610ad657600080fd5b50610b15600480360381019080803573ffffffffffffffffffffffffffffffffffffffff1690602001909291908035906020019092919050505061257e565b6040518082815260200191505060405180910390f35b348015610b3757600080fd5b50610b92600480360381019080803590602001908201803590602001908080601f01602080910402602001604051908101604052809392919081815260200183838082843782019150505050505091929192905050506126bc565b005b610bb2600480360381019080803590602001909291905050506127c0565b005b348015610bc057600080fd5b50610be96004803603810190808035906020019092919080359060200190929190505050612f39565b005b348015610bf757600080fd5b50610c00613146565b604051808873ffffffffffffffffffffffffffffffffffffffff1673ffffffffffffffffffffffffffffffffffffffff168152602001806020018060200180602001806020018781526020018615151515815260200185810385528b818151815260200191508051906020019080838360005b83811015610c8e578082015181840152602081019050610c73565b50505050905090810190601f168015610cbb5780820380516001836020036101000a031916815260200191505b5085810384528a818151815260200191508051906020019080838360005b83811015610cf4578082015181840152602081019050610cd9565b50505050905090810190601f168015610d215780820380516001836020036101000a031916815260200191505b50858103835289818151815260200191508051906020019080838360005b83811015610d5a578082015181840152602081019050610d3f565b50505050905090810190601f168015610d875780820380516001836020036101000a031916815260200191505b50858103825288818151815260200191508051906020019080838360005b83811015610dc0578082015181840152602081019050610da5565b50505050905090810190601f168015610ded5780820380516001836020036101000a031916815260200191505b509b50505050505050505050505060405180910390f35b348015610e1057600080fd5b50610e2f60048036038101908080359060200190929190505050613416565b6040518080602001828103825283818151815260200191508051906020019060200280838360005b83811015610e72578082015181840152602081019050610e57565b505050509050019250505060405180910390f35b348015610e9257600080fd5b50610e9b6134bc565b6040518085815260200184815260200183815260200182815260200194505050505060405180910390f35b348015610ed257600080fd5b50610edb6134e8565b6040518082815260200191505060405180910390f35b348015610efd57600080fd5b50610f1c600480360381019080803590602001909291905050506134f5565b005b348015610f2a57600080fd5b50610f496004803603810190808035906020019092919050505061353c565b604051808c81526020018b73ffffffffffffffffffffffffffffffffffffffff1673ffffffffffffffffffffffffffffffffffffffff1681526020018a81526020018981526020018881526020018060200187815260200186815260200185815260200184815260200180602001838103835289818151815260200191508051906020019060200280838360005b83811015610ff2578082015181840152602081019050610fd7565b50505050905001838103825284818151815260200191508051906020019060200280838360005b83811015611034578082015181840152602081019050611019565b505050509050019d505050505050505050505050505060405180910390f35b34801561105f57600080fd5b50611088600480360381019080803590602001909291908035906020019092919050505061364e565b6040518082815260200191505060405180910390f35b3480156110aa57600080fd5b506110df600480360381019080803573ffffffffffffffffffffffffffffffffffffffff169060200190929190505050613695565b005b3480156110ed57600080fd5b5061110c600480360381019080803590602001909291905050506137b5565b6040518087815260200180602001806020018060200186151515158152602001858152602001848103845289818151815260200191508051906020019080838360005b8381101561116a57808201518184015260208101905061114f565b50505050905090810190601f1680156111975780820380516001836020036101000a031916815260200191505b50848103835288818151815260200191508051906020019080838360005b838110156111d05780820151818401526020810190506111b5565b50505050905090810190601f1680156111fd5780820380516001836020036101000a031916815260200191505b50848103825287818151815260200191508051906020019080838360005b8381101561123657808201518184015260208101905061121b565b50505050905090810190601f1680156112635780820380516001836020036101000a031916815260200191505b50995050505050505050505060405180910390f35b34801561128457600080fd5b5061128d6139e8565b005b34801561129b57600080fd5b506112a4613a27565b60405180826000191660001916815260200191505060405180910390f35b6060600980548060200260200160405190810160405280929190818152602001828054801561134657602002820191906000526020600020905b8160009054906101000a900473ffffffffffffffffffffffffffffffffffffffff1673ffffffffffffffffffffffffffffffffffffffff16815260200190600101908083116112fc575b5050505050905090565b6000600560009054906101000a900473ffffffffffffffffffffffffffffffffffffffff16905090565b6000600b600083815260200190815260200160002090508060040160009054906101000a900460ff16156113ca5760008160040160006101000a81548160ff0219169083151502179055506113e8565b60018160040160006101000a81548160ff0219169083151502179055505b5050565b60008060001515601460009054906101000a900460ff16151514151561141157600080fd5b60009150600090505b600a805490508110156114c05782600a8281548110151561143757fe5b906000526020600020015414156114b35760019150600a6001600a805490500381548110151561146357fe5b9060005260206000200154600a8281548110151561147d57fe5b90600052602060002001819055506114a46001600a80549050613a3190919063ffffffff16565b600a816114b19190613adb565b505b808060010191505061141a565b8115156114cc57600080fd5b505050565b60001515601460009054906101000a900460ff1615151415156114f357600080fd5b8460039080519060200190611509929190613b07565b508360049080519060200190611520929190613b07565b508260069080519060200190611537929190613b07565b50816007908051906020019061154e929190613b07565b50806008819055505050505050565b60003073ffffffffffffffffffffffffffffffffffffffff1631905090565b60008060001515601460009054906101000a900460ff1615151415156115a157600080fd5b60009150600090505b600a805490508110156116de5786600a828154811015156115c757fe5b906000526020600020015414156116d1576001915060c060405190810160405280888152602001878152602001868152602001858152602001600b60008a815260200190815260200160002060040160009054906101000a900460ff161515815260200184815250600b6000898152602001908152602001600020600082015181600001556020820151816001019080519060200190611668929190613b87565b506040820151816002019080519060200190611685929190613b87565b5060608201518160030190805190602001906116a2929190613b87565b5060808201518160040160006101000a81548160ff02191690831515021790555060a082015181600501559050505b80806001019150506115aa565b8115156116ea57600080fd5b50505050505050565b60001515601460009054906101000a900460ff16151514151561171557600080fd5b6009805490508110151561172857600080fd5b600960016009805490500381548110151561173f57fe5b9060005260206000200160009054906101000a900473ffffffffffffffffffffffffffffffffffffffff1660098281548110151561177957fe5b9060005260206000200160006101000a81548173ffffffffffffffffffffffffffffffffffffffff021916908373ffffffffffffffffffffffffffffffffffffffff1602179055506117da6001600980549050613a3190919063ffffffff16565b6009816117e79190613c07565b5050565b600080600060011515601460009054906101000a900460ff16151514151561181257600080fd5b8484600060126000848152602001908152602001600020600001541180156118525750806012600084815260200190815260200160002060050180549050115b8015611874575060006012600084815260200190815260200160002060030154145b151561187f57600080fd5b60126000888152602001908152602001600020945060136000888152602001908152602001600020600087815260200190815260200160002060009054906101000a900460ff169350600060048111156118d557fe5b8460048111156118e157fe5b14806119035750600160048111156118f557fe5b84600481111561190157fe5b145b151561190e57600080fd5b846005018681548110151561191f57fe5b906000526020600020015492506000600481111561193957fe5b84600481111561194557fe5b141561198557611978600b6000858152602001908152602001600020600501548660070154613a5290919063ffffffff16565b85600701819055506119ce565b6119c56119b26002600b600087815260200190815260200160002060050154613a7390919063ffffffff16565b8660070154613a5290919063ffffffff16565b85600701819055505b600260136000898152602001908152602001600020600088815260200190815260200160002060006101000a81548160ff02191690836004811115611a0f57fe5b02179055507f6268dfae090a8e5f077f6d575fdfa2c0811ed556ce19184492bfb265039c47608742604051808381526020018281526020019250505060405180910390a1611a5c876127c0565b50505050505050565b60008060009054906101000a900473ffffffffffffffffffffffffffffffffffffffff16905090565b6002816040518082805190602001908083835b602083101515611ac65780518252602082019150602081019050602083039250611aa1565b6001836020036101000a0380198251168184511680821785525050505050509050019150506020604051808303816000865af1158015611b0a573d6000803e3d6000fd5b5050506040513d6020811015611b1f57600080fd5b81019080805190602001909291905050506010816000191690555050565b6060600e805480602002602001604051908101604052809291908181526020018280548015611b8b57602002820191906000526020600020905b815481526020019060010190808311611b77575b5050505050905090565b600080601560020154138015611bb057506000601560000154135b905090565b6000806000806000611bc5613c33565b60011515601460009054906101000a900460ff161515141515611be757600080fd5b87600081118015611bfa57506008548111155b1515611c0557600080fd5b6000955042601160003373ffffffffffffffffffffffffffffffffffffffff1673ffffffffffffffffffffffffffffffffffffffff16815260200190815260200160002054111515611c5657600080fd5b600094505b8751851015611d6d5760009350600092505b600a80549050831015611d5457600a83815481101515611c8957fe5b90600052602060002001548886815181101515611ca257fe5b906020019060200201511415611d475760019350600b6000600a85815481101515611cc957fe5b9060005260206000200154815260200190815260200160002060040160009054906101000a900460ff161515611cfe57600080fd5b611d40600b6000600a86815481101515611d1457fe5b906000526020600020015481526020019081526020016000206005015487613a5290919063ffffffff16565b9550611d54565b8280600101935050611c6d565b831515611d6057600080fd5b8480600101955050611c5b565b611d88670de0b6b3a764000087613a9d90919063ffffffff16565b34141515611d9557600080fd5b3073ffffffffffffffffffffffffffffffffffffffff166108fc349081150290604051600060405180830381858888f1935050505050611de16001600d54613a5290919063ffffffff16565b600d8190555061014060405190810160405280600d5481526020013373ffffffffffffffffffffffffffffffffffffffff168152602001428152602001600081526020018a81526020018981526020018781526020016000815260200160008152602001600081525091508160126000600d5481526020019081526020016000206000820151816000015560208201518160010160006101000a81548173ffffffffffffffffffffffffffffffffffffffff021916908373ffffffffffffffffffffffffffffffffffffffff16021790555060408201518160020155606082015181600301556080820151816004015560a0820151816005019080519060200190611eed929190613c9d565b5060c0820151816006015560e0820151816007015561010082015181600801556101208201518160090155905050600e600d5490806001815401808255809150509060018203906000526020600020016000909192909190915055506000809054906101000a900473ffffffffffffffffffffffffffffffffffffffff1673ffffffffffffffffffffffffffffffffffffffff1663234b185083602001516040518263ffffffff167c0100000000000000000000000000000000000000000000000000000000028152600401808273ffffffffffffffffffffffffffffffffffffffff1673ffffffffffffffffffffffffffffffffffffffff168152602001915050600060405180830381600087803b15801561200957600080fd5b505af115801561201d573d6000803e3d6000fd5b505050507fa8e6270d089961394d47c9439cc915b4dd3a0228f301d98cd623c4e44fede679600d5442604051808381526020018281526020019250505060405180910390a1600d54965050505050505092915050565b60001515601460009054906101000a900460ff16151514151561209557600080fd5b8360156000018190555082601560010181905550816015600201819055508060156003018190555050505050565b6000601460006101000a81548160ff021916908315150217905550565b6000600160009054906101000a900473ffffffffffffffffffffffffffffffffffffffff16905090565b600080600a8054905011905090565b6000601160003373ffffffffffffffffffffffffffffffffffffffff1673ffffffffffffffffffffffffffffffffffffffff16815260200190815260200160002054905090565b600060011515601460009054906101000a900460ff16151514151561218457600080fd5b8282600060126000848152602001908152602001600020600001541180156121c45750806012600084815260200190815260200160002060050180549050115b80156121e6575060006012600084815260200190815260200160002060030154145b15156121f157600080fd5b60136000868152602001908152602001600020600085815260200190815260200160002060009054906101000a900460ff1692506000600481111561223257fe5b83600481111561223e57fe5b148061226057506001600481111561225257fe5b83600481111561225e57fe5b145b151561226b57600080fd5b6000600481111561227857fe5b83600481111561228457fe5b14156122d557600160136000878152602001908152602001600020600086815260200190815260200160002060006101000a81548160ff021916908360048111156122cb57fe5b021790555061231c565b600460136000878152602001908152602001600020600086815260200190815260200160002060006101000a81548160ff0219169083600481111561231657fe5b02179055505b7f6268dfae090a8e5f077f6d575fdfa2c0811ed556ce19184492bfb265039c47608542604051808381526020018281526020019250505060405180910390a1612364856127c0565b5050505050565b6060600f8054806020026020016040519081016040528092919081815260200182805480156123b957602002820191906000526020600020905b8154815260200190600101908083116123a5575b5050505050905090565b6060600a80548060200260200160405190810160405280929190818152602001828054801561241157602002820191906000526020600020905b8154815260200190600101908083116123fd575b5050505050905090565b612423613cea565b60001515601460009054906101000a900460ff16151514151561244557600080fd5b60008211151561245457600080fd5b61246a6001600c54613a5290919063ffffffff16565b600c8190555060c060405190810160405280600c548152602001868152602001858152602001848152602001600115158152602001838152509050600a600c54908060018154018082558091505090600182039060005260206000200160009091929091909150555080600b6000600c54815260200190815260200160002060008201518160000155602082015181600101908051906020019061250f929190613b87565b50604082015181600201908051906020019061252c929190613b87565b506060820151816003019080519060200190612549929190613b87565b5060808201518160040160006101000a81548160ff02191690831515021790555060a082015181600501559050505050505050565b6000600160009054906101000a900473ffffffffffffffffffffffffffffffffffffffff1673ffffffffffffffffffffffffffffffffffffffff1663acd1ddc88484306040518463ffffffff167c0100000000000000000000000000000000000000000000000000000000028152600401808473ffffffffffffffffffffffffffffffffffffffff1673ffffffffffffffffffffffffffffffffffffffff1681526020018381526020018273ffffffffffffffffffffffffffffffffffffffff1673ffffffffffffffffffffffffffffffffffffffff1681526020019350505050602060405180830381600087803b15801561267957600080fd5b505af115801561268d573d6000803e3d6000fd5b505050506040513d60208110156126a357600080fd5b8101908080519060200190929190505050905092915050565b6002816040518082805190602001908083835b6020831015156126f457805182526020820191506020810190506020830392506126cf565b6001836020036101000a0380198251168184511680821785525050505050509050019150506020604051808303816000865af1158015612738573d6000803e3d6000fd5b5050506040513d602081101561274d57600080fd5b8101908080519060200190929190505050600019166010546000191614151561277557600080fd5b610e104201601160003373ffffffffffffffffffffffffffffffffffffffff1673ffffffffffffffffffffffffffffffffffffffff1681526020019081526020016000208190555050565b6000806000806000806000806000601260008b81526020019081526020016000209850600089600301541415156127f657600080fd5b60019750600096505b886005018054905087101561289457601360008b8152602001908152602001600020600088815260200190815260200160002060009054906101000a900460ff1695506000600481111561284f57fe5b86600481111561285b57fe5b148061287d57506001600481111561286f57fe5b86600481111561287b57fe5b145b1561288757600097505b86806001019750506127ff565b8715612f2d576128b589600701548a60060154613a3190919063ffffffff16565b94506128e58960010160009054906101000a900473ffffffffffffffffffffffffffffffffffffffff168661257e565b8960080181905550612904896008015486613a3190919063ffffffff16565b896009018190555061292789600901548a60060154613a3190919063ffffffff16565b9350600560009054906101000a900473ffffffffffffffffffffffffffffffffffffffff1673ffffffffffffffffffffffffffffffffffffffff166108fc612984670de0b6b3a76400008c60090154613a9d90919063ffffffff16565b9081150290604051600060405180830381858888f19350505050508860010160009054906101000a900473ffffffffffffffffffffffffffffffffffffffff1673ffffffffffffffffffffffffffffffffffffffff166108fc612a12670de0b6b3a7640000612a048d600801548e60070154613a5290919063ffffffff16565b613a9d90919063ffffffff16565b9081150290604051600060405180830381858888f19350505050504289600301819055507f7c3f93091d6a13e0438473f0d6ba31c52b56b0c08e0220f29ef563a5ab833a0a8a42604051808381526020018281526020019250505060405180910390a1600260009054906101000a900473ffffffffffffffffffffffffffffffffffffffff1673ffffffffffffffffffffffffffffffffffffffff1663b1243af08a60010160009054906101000a900473ffffffffffffffffffffffffffffffffffffffff166040518263ffffffff167c0100000000000000000000000000000000000000000000000000000000028152600401808273ffffffffffffffffffffffffffffffffffffffff1673ffffffffffffffffffffffffffffffffffffffff168152602001915050600060405180830381600087803b158015612b5657600080fd5b505af1158015612b6a573d6000803e3d6000fd5b50505050600092505b600e80549050831015612c5a5789600e84815481101515612b9057fe5b90600052602060002001541415612c4d57600f600e84815481101515612bb257fe5b90600052602060002001549080600181540180825580915050906001820390600052602060002001600090919290919091505550600e6001600e8054905003815481101515612bfd57fe5b9060005260206000200154600e84815481101515612c1757fe5b9060005260206000200181905550612c3e6001600e80549050613a3190919063ffffffff16565b600e81612c4b9190613adb565b505b8280600101935050612b73565b60019150600090505b600e80549050811015612d2d578860010160009054906101000a900473ffffffffffffffffffffffffffffffffffffffff1673ffffffffffffffffffffffffffffffffffffffff1660126000600e84815481101515612cbe57fe5b9060005260206000200154815260200190815260200160002060010160009054906101000a900473ffffffffffffffffffffffffffffffffffffffff1673ffffffffffffffffffffffffffffffffffffffff161415612d205760009150612d2d565b8080600101915050612c63565b8115612e2c576000809054906101000a900473ffffffffffffffffffffffffffffffffffffffff1673ffffffffffffffffffffffffffffffffffffffff1663a67514268a60010160009054906101000a900473ffffffffffffffffffffffffffffffffffffffff166040518263ffffffff167c0100000000000000000000000000000000000000000000000000000000028152600401808273ffffffffffffffffffffffffffffffffffffffff1673ffffffffffffffffffffffffffffffffffffffff168152602001915050600060405180830381600087803b158015612e1357600080fd5b505af1158015612e27573d6000803e3d6000fd5b505050505b6000809054906101000a900473ffffffffffffffffffffffffffffffffffffffff1673ffffffffffffffffffffffffffffffffffffffff1663d0e314f48a60010160009054906101000a900473ffffffffffffffffffffffffffffffffffffffff168c6040518363ffffffff167c0100000000000000000000000000000000000000000000000000000000028152600401808373ffffffffffffffffffffffffffffffffffffffff1673ffffffffffffffffffffffffffffffffffffffff16815260200182815260200192505050600060405180830381600087803b158015612f1457600080fd5b505af1158015612f28573d6000803e3d6000fd5b505050505b50505050505050505050565b600080600060011515601460009054906101000a900460ff161515141515612f6057600080fd5b848460006012600084815260200190815260200160002060000154118015612fa05750806012600084815260200190815260200160002060050180549050115b8015612fc2575060006012600084815260200190815260200160002060030154145b1515612fcd57600080fd5b60126000888152602001908152602001600020945060136000888152602001908152602001600020600087815260200190815260200160002060009054906101000a900460ff1693506000600481111561302357fe5b84600481111561302f57fe5b148061305157506001600481111561304357fe5b84600481111561304f57fe5b145b151561305c57600080fd5b846005018681548110151561306d57fe5b906000526020600020015492506130a7600b6000858152602001908152602001600020600501548660070154613a5290919063ffffffff16565b8560070181905550600360136000898152602001908152602001600020600088815260200190815260200160002060006101000a81548160ff021916908360048111156130f057fe5b02179055507f6268dfae090a8e5f077f6d575fdfa2c0811ed556ce19184492bfb265039c47608742604051808381526020018281526020019250505060405180910390a161313d876127c0565b50505050505050565b6000606080606080600080600560009054906101000a900473ffffffffffffffffffffffffffffffffffffffff166003600460066007600854601460009054906101000a900460ff16858054600181600116156101000203166002900480601f0160208091040260200160405190810160405280929190818152602001828054600181600116156101000203166002900480156132245780601f106131f957610100808354040283529160200191613224565b820191906000526020600020905b81548152906001019060200180831161320757829003601f168201915b50505050509550848054600181600116156101000203166002900480601f0160208091040260200160405190810160405280929190818152602001828054600181600116156101000203166002900480156132c05780601f10613295576101008083540402835291602001916132c0565b820191906000526020600020905b8154815290600101906020018083116132a357829003601f168201915b50505050509450838054600181600116156101000203166002900480601f01602080910402602001604051908101604052809291908181526020018280546001816001161561010002031660029004801561335c5780601f106133315761010080835404028352916020019161335c565b820191906000526020600020905b81548152906001019060200180831161333f57829003601f168201915b50505050509350828054600181600116156101000203166002900480601f0160208091040260200160405190810160405280929190818152602001828054600181600116156101000203166002900480156133f85780601f106133cd576101008083540402835291602001916133f8565b820191906000526020600020905b8154815290600101906020018083116133db57829003601f168201915b50505050509250965096509650965096509650965090919293949596565b606060008060606000601260008781526020019081526020016000209350836005018054905092508260405190808252806020026020018201604052801561346d5781602001602082028038833980820191505090505b509150600090505b828110156134b057613487868261364e565b828281518110151561349557fe5b90602001906020020181815250508080600101915050613475565b81945050505050919050565b600080600080601560000154601560010154601560020154601560030154935093509350935090919293565b6000600e80549050905090565b60001515601460009054906101000a900460ff16151514151561351757600080fd5b6000811180156135275750606481105b151561353257600080fd5b8060088190555050565b6000806000806000606060008060008060606000601260008e815260200190815260200160002090506000816000015411151561357857600080fd5b80600001548160010160009054906101000a900473ffffffffffffffffffffffffffffffffffffffff168260020154836003015484600401548560050186600601548760070154886008015489600901546135d68b60000154613416565b8580548060200260200160405190810160405280929190818152602001828054801561362157602002820191906000526020600020905b81548152602001906001019080831161360d575b505050505095509b509b509b509b509b509b509b509b509b509b509b505091939597999b90929496989a50565b600060136000848152602001908152602001600020600083815260200190815260200160002060009054906101000a900460ff16600481111561368d57fe5b905092915050565b6000801515601460009054906101000a900460ff1615151415156136b857600080fd5b600090505b60098054905081101561374b578173ffffffffffffffffffffffffffffffffffffffff166009828154811015156136f057fe5b9060005260206000200160009054906101000a900473ffffffffffffffffffffffffffffffffffffffff1673ffffffffffffffffffffffffffffffffffffffff161415151561373e57600080fd5b80806001019150506136bd565b60098290806001815401808255809150509060018203906000526020600020016000909192909190916101000a81548173ffffffffffffffffffffffffffffffffffffffff021916908373ffffffffffffffffffffffffffffffffffffffff160217905550505050565b600060608060606000806000600b6000898152602001908152602001600020905080600001548160010182600201836003018460040160009054906101000a900460ff168560050154848054600181600116156101000203166002900480601f0160208091040260200160405190810160405280929190818152602001828054600181600116156101000203166002900480156138935780601f1061386857610100808354040283529160200191613893565b820191906000526020600020905b81548152906001019060200180831161387657829003601f168201915b50505050509450838054600181600116156101000203166002900480601f01602080910402602001604051908101604052809291908181526020018280546001816001161561010002031660029004801561392f5780601f106139045761010080835404028352916020019161392f565b820191906000526020600020905b81548152906001019060200180831161391257829003601f168201915b50505050509350828054600181600116156101000203166002900480601f0160208091040260200160405190810160405280929190818152602001828054600181600116156101000203166002900480156139cb5780601f106139a0576101008083540402835291602001916139cb565b820191906000526020600020905b8154815290600101906020018083116139ae57829003601f168201915b505050505092509650965096509650965096505091939550919395565b6000600a805490501180156139ff57506000600854115b1515613a0a57600080fd5b6001601460006101000a81548160ff021916908315150217905550565b6000601054905090565b600080838311151515613a4357600080fd5b82840390508091505092915050565b6000808284019050838110151515613a6957600080fd5b8091505092915050565b600080600083111515613a8557600080fd5b8284811515613a9057fe5b0490508091505092915050565b6000806000841415613ab25760009150613ad4565b8284029050828482811515613ac357fe5b04141515613ad057600080fd5b8091505b5092915050565b815481835581811115613b0257818360005260206000209182019101613b019190613d23565b5b505050565b828054600181600116156101000203166002900490600052602060002090601f016020900481019282601f10613b4857805160ff1916838001178555613b76565b82800160010185558215613b76579182015b82811115613b75578251825591602001919060010190613b5a565b5b509050613b839190613d23565b5090565b828054600181600116156101000203166002900490600052602060002090601f016020900481019282601f10613bc857805160ff1916838001178555613bf6565b82800160010185558215613bf6579182015b82811115613bf5578251825591602001919060010190613bda565b5b509050613c039190613d23565b5090565b815481835581811115613c2e57818360005260206000209182019101613c2d9190613d23565b5b505050565b6101406040519081016040528060008152602001600073ffffffffffffffffffffffffffffffffffffffff16815260200160008152602001600081526020016000815260200160608152602001600081526020016000815260200160008152602001600081525090565b828054828255906000526020600020908101928215613cd9579160200282015b82811115613cd8578251825591602001919060010190613cbd565b5b509050613ce69190613d23565b5090565b60c06040519081016040528060008152602001606081526020016060815260200160608152602001600015158152602001600081525090565b613d4591905b80821115613d41576000816000905550600101613d29565b5090565b905600a165627a7a72305820b3c98530b8ae885187a8a73549308882fc3cd78914e65516c0b27a5524b930f00029a165627a7a72305820fe33732a98e4ee9dfd2c0a6d8639535caa2c4c9cebf1a916fa06d0b79af39d630029608060405234801561001057600080fd5b5061123f806100206000396000f3006080604052600436106100a4576000357c0100000000000000000000000000000000000000000000000000000000900463ffffffff1680630800e300146100a95780631b77ad1c146101ca57806351a348ce1461026257806354623318146102b95780637f16ab80146102fe5780638167892a14610355578063b1243af014610398578063c8b67522146103db578063e9e0871814610432578063ecb08a96146104c5575b600080fd5b3480156100b557600080fd5b506100d460048036038101908080359060200190929190505050610528565b604051808781526020018673ffffffffffffffffffffffffffffffffffffffff1673ffffffffffffffffffffffffffffffffffffffff1681526020018573ffffffffffffffffffffffffffffffffffffffff1673ffffffffffffffffffffffffffffffffffffffff16815260200180602001848152602001838152602001828103825285818151815260200191508051906020019080838360005b8381101561018a57808201518184015260208101905061016f565b50505050905090810190601f1680156101b75780820380516001836020036101000a031916815260200191505b5097505050505050505060405180910390f35b3480156101d657600080fd5b5061020b600480360381019080803573ffffffffffffffffffffffffffffffffffffffff169060200190929190505050610658565b6040518080602001828103825283818151815260200191508051906020019060200280838360005b8381101561024e578082015181840152602081019050610233565b505050509050019250505060405180910390f35b34801561026e57600080fd5b506102776106ef565b604051808273ffffffffffffffffffffffffffffffffffffffff1673ffffffffffffffffffffffffffffffffffffffff16815260200191505060405180910390f35b3480156102c557600080fd5b506102e460048036038101908080359060200190929190505050610718565b604051808215151515815260200191505060405180910390f35b34801561030a57600080fd5b5061033f600480360381019080803573ffffffffffffffffffffffffffffffffffffffff169060200190929190505050610741565b6040518082815260200191505060405180910390f35b34801561036157600080fd5b50610396600480360381019080803573ffffffffffffffffffffffffffffffffffffffff1690602001909291905050506107c7565b005b3480156103a457600080fd5b506103d9600480360381019080803573ffffffffffffffffffffffffffffffffffffffff169060200190929190505050610866565b005b3480156103e757600080fd5b5061041c600480360381019080803573ffffffffffffffffffffffffffffffffffffffff169060200190929190505050610ab5565b6040518082815260200191505060405180910390f35b34801561043e57600080fd5b506104c3600480360381019080803573ffffffffffffffffffffffffffffffffffffffff169060200190929190803590602001908201803590602001908080601f016020809104026020016040519081016040528093929190818152602001838380828437820191505050505050919291929080359060200190929190505050610bac565b005b3480156104d157600080fd5b50610526600480360381019080803573ffffffffffffffffffffffffffffffffffffffff169060200190929190803573ffffffffffffffffffffffffffffffffffffffff169060200190929190505050610f72565b005b60008060006060600080600060026000898152602001908152602001600020905080600001548160010160009054906101000a900473ffffffffffffffffffffffffffffffffffffffff168260020160009054906101000a900473ffffffffffffffffffffffffffffffffffffffff168360030184600401548560050154828054600181600116156101000203166002900480601f01602080910402602001604051908101604052809291908181526020018280546001816001161561010002031660029004801561063b5780601f106106105761010080835404028352916020019161063b565b820191906000526020600020905b81548152906001019060200180831161061e57829003601f168201915b505050505092509650965096509650965096505091939550919395565b6060600160008373ffffffffffffffffffffffffffffffffffffffff1673ffffffffffffffffffffffffffffffffffffffff1681526020019081526020016000208054806020026020016040519081016040528092919081815260200182805480156106e357602002820191906000526020600020905b8154815260200190600101908083116106cf575b50505050509050919050565b60008060009054906101000a900473ffffffffffffffffffffffffffffffffffffffff16905090565b600080821180156107295750600882105b15610737576001905061073c565b600090505b919050565b6000600460003373ffffffffffffffffffffffffffffffffffffffff1673ffffffffffffffffffffffffffffffffffffffff16815260200190815260200160002060008373ffffffffffffffffffffffffffffffffffffffff1673ffffffffffffffffffffffffffffffffffffffff168152602001908152602001600020549050919050565b600073ffffffffffffffffffffffffffffffffffffffff166000809054906101000a900473ffffffffffffffffffffffffffffffffffffffff1673ffffffffffffffffffffffffffffffffffffffff1614151561082357600080fd5b806000806101000a81548173ffffffffffffffffffffffffffffffffffffffff021916908373ffffffffffffffffffffffffffffffffffffffff16021790555050565b6000809054906101000a900473ffffffffffffffffffffffffffffffffffffffff1673ffffffffffffffffffffffffffffffffffffffff166392686832336040518263ffffffff167c0100000000000000000000000000000000000000000000000000000000028152600401808273ffffffffffffffffffffffffffffffffffffffff1673ffffffffffffffffffffffffffffffffffffffff168152602001915050602060405180830381600087803b15801561092257600080fd5b505af1158015610936573d6000803e3d6000fd5b505050506040513d602081101561094c57600080fd5b8101908080519060200190929190505050151561096857600080fd5b61097e62015180426110c090919063ffffffff16565b600460008373ffffffffffffffffffffffffffffffffffffffff1673ffffffffffffffffffffffffffffffffffffffff16815260200190815260200160002060003373ffffffffffffffffffffffffffffffffffffffff1673ffffffffffffffffffffffffffffffffffffffff168152602001908152602001600020819055507f3f061473595aa270a61d095fb2db1d63d12e7ac7c238890375933763bc35ca7b8133610a3762015180426110c090919063ffffffff16565b604051808473ffffffffffffffffffffffffffffffffffffffff1673ffffffffffffffffffffffffffffffffffffffff1681526020018373ffffffffffffffffffffffffffffffffffffffff1673ffffffffffffffffffffffffffffffffffffffff168152602001828152602001935050505060405180910390a150565b6000806000600160008573ffffffffffffffffffffffffffffffffffffffff1673ffffffffffffffffffffffffffffffffffffffff168152602001908152602001600020805490501415610b0c5760049150610ba6565b610ba0600160008573ffffffffffffffffffffffffffffffffffffffff1673ffffffffffffffffffffffffffffffffffffffff16815260200190815260200160002080549050600360008673ffffffffffffffffffffffffffffffffffffffff1673ffffffffffffffffffffffffffffffffffffffff168152602001908152602001600020546110e190919063ffffffff16565b90508091505b50919050565b610bb461110b565b600460003373ffffffffffffffffffffffffffffffffffffffff1673ffffffffffffffffffffffffffffffffffffffff16815260200190815260200160002060008573ffffffffffffffffffffffffffffffffffffffff1673ffffffffffffffffffffffffffffffffffffffff168152602001908152602001600020544211151515610c3f57600080fd5b610c4882610718565b1515610c5357600080fd5b610c6960016005546110c090919063ffffffff16565b60058190555060055481600001818152505083816020019073ffffffffffffffffffffffffffffffffffffffff16908173ffffffffffffffffffffffffffffffffffffffff16815250508281606001819052508181608001818152505033816040019073ffffffffffffffffffffffffffffffffffffffff16908173ffffffffffffffffffffffffffffffffffffffff1681525050428160a0018181525050806002600060055481526020019081526020016000206000820151816000015560208201518160010160006101000a81548173ffffffffffffffffffffffffffffffffffffffff021916908373ffffffffffffffffffffffffffffffffffffffff16021790555060408201518160020160006101000a81548173ffffffffffffffffffffffffffffffffffffffff021916908373ffffffffffffffffffffffffffffffffffffffff1602179055506060820151816003019080519060200190610dd292919061116e565b506080820151816004015560a08201518160050155905050600160008573ffffffffffffffffffffffffffffffffffffffff1673ffffffffffffffffffffffffffffffffffffffff1681526020019081526020016000206005549080600181540180825580915050906001820390600052602060002001600090919290919091505550610ea782600360008773ffffffffffffffffffffffffffffffffffffffff1673ffffffffffffffffffffffffffffffffffffffff168152602001908152602001600020546110c090919063ffffffff16565b600360008673ffffffffffffffffffffffffffffffffffffffff1673ffffffffffffffffffffffffffffffffffffffff168152602001908152602001600020819055506000600460003373ffffffffffffffffffffffffffffffffffffffff1673ffffffffffffffffffffffffffffffffffffffff16815260200190815260200160002060008673ffffffffffffffffffffffffffffffffffffffff1673ffffffffffffffffffffffffffffffffffffffff1681526020019081526020016000208190555050505050565b610f8862015180426110c090919063ffffffff16565b600460008473ffffffffffffffffffffffffffffffffffffffff1673ffffffffffffffffffffffffffffffffffffffff16815260200190815260200160002060008373ffffffffffffffffffffffffffffffffffffffff1673ffffffffffffffffffffffffffffffffffffffff168152602001908152602001600020819055507f3f061473595aa270a61d095fb2db1d63d12e7ac7c238890375933763bc35ca7b828261104162015180426110c090919063ffffffff16565b604051808473ffffffffffffffffffffffffffffffffffffffff1673ffffffffffffffffffffffffffffffffffffffff1681526020018373ffffffffffffffffffffffffffffffffffffffff1673ffffffffffffffffffffffffffffffffffffffff168152602001828152602001935050505060405180910390a15050565b60008082840190508381101515156110d757600080fd5b8091505092915050565b6000806000831115156110f357600080fd5b82848115156110fe57fe5b0490508091505092915050565b60c06040519081016040528060008152602001600073ffffffffffffffffffffffffffffffffffffffff168152602001600073ffffffffffffffffffffffffffffffffffffffff1681526020016060815260200160008152602001600081525090565b828054600181600116156101000203166002900490600052602060002090601f016020900481019282601f106111af57805160ff19168380011785556111dd565b828001600101855582156111dd579182015b828111156111dc5782518255916020019190600101906111c1565b5b5090506111ea91906111ee565b5090565b61121091905b8082111561120c5760008160009055506001016111f4565b5090565b905600a165627a7a723058203fe6408300d8b869f032f7634338aeb02a496344b7269eff5332cdfdee32c44d0029608060405234801561001057600080fd5b506140c5806100206000396000f300608060405260043610610180576000357c0100000000000000000000000000000000000000000000000000000000900463ffffffff16806312065fe0146101855780631ce109b6146101b0578063234c566d146101db578063238d66241461027357806326cd5274146102d45780632bd5d82d146104c15780632f54bf6e146105595780633ccfd60b146105b45780633eb474ae146105cb57806345a08c9314610610578063465cbd67146106515780634b5ad89c146106d457806351a348ce14610739578063616b51761461079057806364bb4904146107d557806366730814146108575780638167892a146108ef57806384cd5206146109325780638a722f45146109c3578063980d408e146109ed578063acd1ddc814610a1a578063bbe4fd5014610a9b578063c477ecab14610ac6578063c58343ef14610b48578063e0dcd96a14610cb8578063e93ab2a114610ccf578063e9a672ff14610cfc578063ea31985414610d3d578063f4dbfabb14610d68578063f7952fef14610e14575b600080fd5b34801561019157600080fd5b5061019a610e75565b6040518082815260200191505060405180910390f35b3480156101bc57600080fd5b506101c5610e94565b6040518082815260200191505060405180910390f35b3480156101e757600080fd5b5061021c600480360381019080803573ffffffffffffffffffffffffffffffffffffffff169060200190929190505050610e9e565b6040518080602001828103825283818151815260200191508051906020019060200280838360005b8381101561025f578082015181840152602081019050610244565b505050509050019250505060405180910390f35b34801561027f57600080fd5b506102be60048036038101908080359060200190929190803573ffffffffffffffffffffffffffffffffffffffff169060200190929190505050610f35565b6040518082815260200191505060405180910390f35b3480156102e057600080fd5b506102ff60048036038101908080359060200190929190505050611007565b604051808b8152602001806020018060200180602001806020018a8152602001898152602001888152602001871515151581526020018060200186810386528f818151815260200191508051906020019080838360005b83811015610371578082015181840152602081019050610356565b50505050905090810190601f16801561039e5780820380516001836020036101000a031916815260200191505b5086810385528e818151815260200191508051906020019060200280838360005b838110156103da5780820151818401526020810190506103bf565b5050505090500186810384528d818151815260200191508051906020019060200280838360005b8381101561041c578082015181840152602081019050610401565b5050505090500186810383528c818151815260200191508051906020019060200280838360005b8381101561045e578082015181840152602081019050610443565b50505050905001868103825287818151815260200191508051906020019060200280838360005b838110156104a0578082015181840152602081019050610485565b505050509050019f5050505050505050505050505050505060405180910390f35b3480156104cd57600080fd5b50610502600480360381019080803573ffffffffffffffffffffffffffffffffffffffff1690602001909291905050506112c9565b6040518080602001828103825283818151815260200191508051906020019060200280838360005b8381101561054557808201518184015260208101905061052a565b505050509050019250505060405180910390f35b34801561056557600080fd5b5061059a600480360381019080803573ffffffffffffffffffffffffffffffffffffffff169060200190929190505050611360565b604051808215151515815260200191505060405180910390f35b3480156105c057600080fd5b506105c9611460565b005b3480156105d757600080fd5b506105f660048036038101908080359060200190929190505050611513565b604051808215151515815260200191505060405180910390f35b34801561061c57600080fd5b5061063b600480360381019080803590602001909291905050506115a0565b6040518082815260200191505060405180910390f35b34801561065d57600080fd5b50610692600480360381019080803573ffffffffffffffffffffffffffffffffffffffff1690602001909291905050506115bd565b604051808273ffffffffffffffffffffffffffffffffffffffff1673ffffffffffffffffffffffffffffffffffffffff16815260200191505060405180910390f35b3480156106e057600080fd5b5061071f60048036038101908080359060200190929190803573ffffffffffffffffffffffffffffffffffffffff1690602001909291905050506116bd565b604051808215151515815260200191505060405180910390f35b34801561074557600080fd5b5061074e61177d565b604051808273ffffffffffffffffffffffffffffffffffffffff1673ffffffffffffffffffffffffffffffffffffffff16815260200191505060405180910390f35b34801561079c57600080fd5b506107bb600480360381019080803590602001909291905050506117a6565b604051808215151515815260200191505060405180910390f35b3480156107e157600080fd5b50610800600480360381019080803590602001909291905050506118a7565b6040518080602001828103825283818151815260200191508051906020019060200280838360005b83811015610843578082015181840152602081019050610828565b505050509050019250505060405180910390f35b34801561086357600080fd5b50610898600480360381019080803573ffffffffffffffffffffffffffffffffffffffff169060200190929190505050611940565b6040518080602001828103825283818151815260200191508051906020019060200280838360005b838110156108db5780820151818401526020810190506108c0565b505050509050019250505060405180910390f35b3480156108fb57600080fd5b50610930600480360381019080803573ffffffffffffffffffffffffffffffffffffffff1690602001909291905050506119d7565b005b34801561093e57600080fd5b506109c160048036038101908080359060200190929190803590602001908201803590602001908080601f0160208091040260200160405190810160405280939291908181526020018383808284378201915050505050509192919290803590602001909291908035906020019092919080359060200190929190505050611a76565b005b6109eb6004803603810190808035906020019092919080359060200190929190505050611b34565b005b3480156109f957600080fd5b50610a1860048036038101908080359060200190929190505050612003565b005b348015610a2657600080fd5b50610a85600480360381019080803573ffffffffffffffffffffffffffffffffffffffff16906020019092919080359060200190929190803573ffffffffffffffffffffffffffffffffffffffff1690602001909291905050506121d1565b6040518082815260200191505060405180910390f35b348015610aa757600080fd5b50610ab0612417565b6040518082815260200191505060405180910390f35b348015610ad257600080fd5b50610af16004803603810190808035906020019092919050505061241f565b6040518080602001828103825283818151815260200191508051906020019060200280838360005b83811015610b34578082015181840152602081019050610b19565b505050509050019250505060405180910390f35b348015610b5457600080fd5b50610b73600480360381019080803590602001909291905050506124c0565b604051808681526020018573ffffffffffffffffffffffffffffffffffffffff1673ffffffffffffffffffffffffffffffffffffffff168152602001806020018060200180602001848103845287818151815260200191508051906020019060200280838360005b83811015610bf6578082015181840152602081019050610bdb565b50505050905001848103835286818151815260200191508051906020019080838360005b83811015610c35578082015181840152602081019050610c1a565b50505050905090810190601f168015610c625780820380516001836020036101000a031916815260200191505b50848103825285818151815260200191508051906020019060200280838360005b83811015610c9e578082015181840152602081019050610c83565b505050509050019850505050505050505060405180910390f35b348015610cc457600080fd5b50610ccd6126c4565b005b348015610cdb57600080fd5b50610cfa60048036038101908080359060200190929190505050612d54565b005b348015610d0857600080fd5b50610d3b600480360381019080803590602001909291908035906020019092919080359060200190929190505050612e53565b005b348015610d4957600080fd5b50610d52612eff565b6040518082815260200191505060405180910390f35b348015610d7457600080fd5b50610e1260048036038101908080359060200190820180359060200190808060200260200160405190810160405280939291908181526020018383602002808284378201915050505050509192919290803590602001908201803590602001908080601f0160208091040260200160405190810160405280939291908181526020018383808284378201915050505050509192919290505050612f46565b005b348015610e2057600080fd5b50610e5f60048036038101908080359060200190929190803573ffffffffffffffffffffffffffffffffffffffff169060200190929190505050613283565b6040518082815260200191505060405180910390f35b60003073ffffffffffffffffffffffffffffffffffffffff1631905090565b6000600b54905090565b6060600460008373ffffffffffffffffffffffffffffffffffffffff1673ffffffffffffffffffffffffffffffffffffffff168152602001908152602001600020805480602002602001604051908101604052809291908181526020018280548015610f2957602002820191906000526020600020905b815481526020019060010190808311610f15575b50505050509050919050565b600080600080600060036000888152602001908152602001600020935060009250600090505b8360030180549050811015610fee578573ffffffffffffffffffffffffffffffffffffffff168460030182815481101515610f9257fe5b9060005260206000200160009054906101000a900473ffffffffffffffffffffffffffffffffffffffff1673ffffffffffffffffffffffffffffffffffffffff161415610fe157809150600192505b8080600101915050610f5b565b821515610ffa57600080fd5b8194505050505092915050565b600060608060608060008060008060606000600360008d815260200190815260200160002090508060010154816002018260030183600601846007018560080154866009015487600a01548860000160009054906101000a900460ff1689600501888054600181600116156101000203166002900480601f0160208091040260200160405190810160405280929190818152602001828054600181600116156101000203166002900480156110fd5780601f106110d2576101008083540402835291602001916110fd565b820191906000526020600020905b8154815290600101906020018083116110e057829003601f168201915b505050505098508780548060200260200160405190810160405280929190818152602001828054801561118557602002820191906000526020600020905b8160009054906101000a900473ffffffffffffffffffffffffffffffffffffffff1673ffffffffffffffffffffffffffffffffffffffff168152602001906001019080831161113b575b50505050509750868054806020026020016040519081016040528092919081815260200182805480156111d757602002820191906000526020600020905b8154815260200190600101908083116111c3575b505050505096508580548060200260200160405190810160405280929190818152602001828054801561122957602002820191906000526020600020905b815481526020019060010190808311611215575b50505050509550808054806020026020016040519081016040528092919081815260200182805480156112a057602002820191906000526020600020906000905b82829054906101000a900460ff1615158152602001906001019060208260000104928301926001038202915080841161126a5790505b505050505090509a509a509a509a509a509a509a509a509a509a50509193959799509193959799565b6060600260008373ffffffffffffffffffffffffffffffffffffffff1673ffffffffffffffffffffffffffffffffffffffff16815260200190815260200160002080548060200260200160405190810160405280929190818152602001828054801561135457602002820191906000526020600020905b815481526020019060010190808311611340575b50505050509050919050565b60008060009054906101000a900473ffffffffffffffffffffffffffffffffffffffff1673ffffffffffffffffffffffffffffffffffffffff16632f54bf6e836040518263ffffffff167c0100000000000000000000000000000000000000000000000000000000028152600401808273ffffffffffffffffffffffffffffffffffffffff1673ffffffffffffffffffffffffffffffffffffffff168152602001915050602060405180830381600087803b15801561141e57600080fd5b505af1158015611432573d6000803e3d6000fd5b505050506040513d602081101561144857600080fd5b81019080805190602001909291905050509050919050565b3373ffffffffffffffffffffffffffffffffffffffff16600960003373ffffffffffffffffffffffffffffffffffffffff1673ffffffffffffffffffffffffffffffffffffffff1681526020019081526020016000205460405160006040518083038185875af192505050506000600960003373ffffffffffffffffffffffffffffffffffffffff1673ffffffffffffffffffffffffffffffffffffffff16815260200190815260200160002081905550565b6000806000600360008581526020019081526020016000209150600090505b81600501805490508110156115945760001515826005018281548110151561155657fe5b90600052602060002090602091828204019190069054906101000a900460ff16151514156115875760009250611599565b8080600101915050611532565b600192505b5050919050565b600060086000838152602001908152602001600020549050919050565b60008060009054906101000a900473ffffffffffffffffffffffffffffffffffffffff1673ffffffffffffffffffffffffffffffffffffffff1663465cbd67836040518263ffffffff167c0100000000000000000000000000000000000000000000000000000000028152600401808273ffffffffffffffffffffffffffffffffffffffff1673ffffffffffffffffffffffffffffffffffffffff168152602001915050602060405180830381600087803b15801561167b57600080fd5b505af115801561168f573d6000803e3d6000fd5b505050506040513d60208110156116a557600080fd5b81019080805190602001909291905050509050919050565b6000806000600360008681526020019081526020016000209150600090505b8160030180549050811015611770578373ffffffffffffffffffffffffffffffffffffffff16826003018281548110151561171357fe5b9060005260206000200160009054906101000a900473ffffffffffffffffffffffffffffffffffffffff1673ffffffffffffffffffffffffffffffffffffffff1614156117635760019250611775565b80806001019150506116dc565b600092505b505092915050565b60008060009054906101000a900473ffffffffffffffffffffffffffffffffffffffff16905090565b60008060006003600085815260200190815260200160002091506000826008015414806117ef575062dd7c006117ed836008015484600901546132de90919063ffffffff16565b105b806117fe5750600082600a0154145b1561180c57600092506118a0565b600090505b816003018054905081101561189b576000826007018281548110151561183357fe5b906000526020600020015414806118805750816007018181548110151561185657fe5b9060005260206000200154826006018281548110151561187257fe5b906000526020600020015411155b1561188e57600092506118a0565b8080600101915050611811565b600192505b5050919050565b606060006003600084815260200190815260200160002090508060050180548060200260200160405190810160405280929190818152602001828054801561193357602002820191906000526020600020906000905b82829054906101000a900460ff161515815260200190600101906020826000010492830192600103820291508084116118fd5790505b5050505050915050919050565b6060600660008373ffffffffffffffffffffffffffffffffffffffff1673ffffffffffffffffffffffffffffffffffffffff1681526020019081526020016000208054806020026020016040519081016040528092919081815260200182805480156119cb57602002820191906000526020600020905b8154815260200190600101908083116119b7575b50505050509050919050565b600073ffffffffffffffffffffffffffffffffffffffff166000809054906101000a900473ffffffffffffffffffffffffffffffffffffffff1673ffffffffffffffffffffffffffffffffffffffff16141515611a3357600080fd5b806000806101000a81548173ffffffffffffffffffffffffffffffffffffffff021916908373ffffffffffffffffffffffffffffffffffffffff16021790555050565b6000801515611a8487611513565b1515141515611a9257600080fd5b611a9c86336116bd565b1515611aa757600080fd5b62dd7c00611abe42856132de90919063ffffffff16565b10151515611acb57600080fd5b600082111515611ada57600080fd5b60036000878152602001908152602001600020905084816002019080519060200190611b07929190613ce1565b504281600801819055508281600901819055508181600a0181905550611b2c866132ff565b505050505050565b6000806000806000806003600089815260200190815260200160002095508560000160009054906101000a900460ff161515611b6f57600080fd5b42866008015411151515611b8257600080fd5b611bb3670de0b6b3a7640000611ba588600a01548a61338290919063ffffffff16565b61338290919063ffffffff16565b94508434141515611bc357600080fd5b611bd962278d008861338290919063ffffffff16565b93506007600089815260200190815260200160002060003373ffffffffffffffffffffffffffffffffffffffff1673ffffffffffffffffffffffffffffffffffffffff1681526020019081526020016000205492506000831415611d1857600560008981526020019081526020016000203390806001815401808255809150509060018203906000526020600020016000909192909190916101000a81548173ffffffffffffffffffffffffffffffffffffffff021916908373ffffffffffffffffffffffffffffffffffffffff16021790555050600660003373ffffffffffffffffffffffffffffffffffffffff1673ffffffffffffffffffffffffffffffffffffffff1681526020019081526020016000208890806001815401808255809150509060018203906000526020600020016000909192909190915055505b42831115611db1578560090154611d3885856133c090919063ffffffff16565b11151515611d4557600080fd5b611d5884846133c090919063ffffffff16565b600760008a815260200190815260200160002060003373ffffffffffffffffffffffffffffffffffffffff1673ffffffffffffffffffffffffffffffffffffffff16815260200190815260200160002081905550611e3e565b8560090154611dc985426133c090919063ffffffff16565b11151515611dd657600080fd5b611de984426133c090919063ffffffff16565b600760008a815260200190815260200160002060003373ffffffffffffffffffffffffffffffffffffffff1673ffffffffffffffffffffffffffffffffffffffff168152602001908152602001600020819055505b611e6485600860008b8152602001908152602001600020546133c090919063ffffffff16565b600860008a8152602001908152602001600020819055503073ffffffffffffffffffffffffffffffffffffffff166108fc869081150290604051600060405180830381858888f1935050505050600091505b8560030180549050821015611ff957611edf8660030180549050866133e190919063ffffffff16565b9050611f6e81600960008960030186815481101515611efa57fe5b9060005260206000200160009054906101000a900473ffffffffffffffffffffffffffffffffffffffff1673ffffffffffffffffffffffffffffffffffffffff1673ffffffffffffffffffffffffffffffffffffffff168152602001908152602001600020546133c090919063ffffffff16565b600960008860030185815481101515611f8357fe5b9060005260206000200160009054906101000a900473ffffffffffffffffffffffffffffffffffffffff1673ffffffffffffffffffffffffffffffffffffffff1673ffffffffffffffffffffffffffffffffffffffff168152602001908152602001600020819055508180600101925050611eb6565b5050505050505050565b60008060008060008060016000888152602001908152602001600020955060009450600092505b85600201805490508310156120bd573373ffffffffffffffffffffffffffffffffffffffff16866002018481548110151561206157fe5b9060005260206000200160009054906101000a900473ffffffffffffffffffffffffffffffffffffffff1673ffffffffffffffffffffffffffffffffffffffff1614156120b057600194508293505b828060010193505061202a565b8415156120c957600080fd5b6000151586600401858154811015156120de57fe5b90600052602060002090602091828204019190069054906101000a900460ff16151514151561210c57600080fd5b6001866004018581548110151561211f57fe5b90600052602060002090602091828204019190066101000a81548160ff02191690831515021790555060019150600090505b85600401805490508110156121af5760001515866004018281548110151561217557fe5b90600052602060002090602091828204019190069054906101000a900460ff16151514156121a257600091505b8080600101915050612151565b6121b88761340b565b81156121c8576121c78761357e565b5b50505050505050565b60008060008060008060009450600093505b600660008a73ffffffffffffffffffffffffffffffffffffffff1673ffffffffffffffffffffffffffffffffffffffff1681526020019081526020016000208054905084101561240857600660008a73ffffffffffffffffffffffffffffffffffffffff1673ffffffffffffffffffffffffffffffffffffffff1681526020019081526020016000208481548110151561227957fe5b90600052602060002001549250426007600085815260200190815260200160002060008b73ffffffffffffffffffffffffffffffffffffffff1673ffffffffffffffffffffffffffffffffffffffff168152602001908152602001600020541015156123f557600360008481526020019081526020016000209150600090505b81600401805490508110156123f0578673ffffffffffffffffffffffffffffffffffffffff16826004018281548110151561233057fe5b9060005260206000200160009054906101000a900473ffffffffffffffffffffffffffffffffffffffff1673ffffffffffffffffffffffffffffffffffffffff16148015612399575087826006018281548110151561238b57fe5b906000526020600020015411155b80156123bf57508482600701828154811015156123b257fe5b9060005260206000200154115b156123e35781600701818154811015156123d557fe5b906000526020600020015494505b80806001019150506122f9565b6123fa565b6123fb565b5b83806001019450506121e3565b84955050505050509392505050565b600042905090565b6060600560008381526020019081526020016000208054806020026020016040519081016040528092919081815260200182805480156124b457602002820191906000526020600020905b8160009054906101000a900473ffffffffffffffffffffffffffffffffffffffff1673ffffffffffffffffffffffffffffffffffffffff168152602001906001019080831161246a575b50505050509050919050565b6000806060806060600060016000888152602001908152602001600020905080600001548160010160009054906101000a900473ffffffffffffffffffffffffffffffffffffffff168260020183600301846004018280548060200260200160405190810160405280929190818152602001828054801561259657602002820191906000526020600020905b8160009054906101000a900473ffffffffffffffffffffffffffffffffffffffff1673ffffffffffffffffffffffffffffffffffffffff168152602001906001019080831161254c575b50505050509250818054600181600116156101000203166002900480601f0160208091040260200160405190810160405280929190818152602001828054600181600116156101000203166002900480156126325780601f1061260757610100808354040283529160200191612632565b820191906000526020600020905b81548152906001019060200180831161261557829003601f168201915b50505050509150808054806020026020016040519081016040528092919081815260200182805480156126a957602002820191906000526020600020906000905b82829054906101000a900460ff161515815260200190600101906020826000010492830192600103820291508084116126735790505b50505050509050955095509550955095505091939590929450565b6126cc613d61565b60006126e46001600b546133c090919063ffffffff16565b600b81905550600b548260200181815250506040805190810160405280600381526020017f4142430000000000000000000000000000000000000000000000000000000000815250826040018190525060039050806040519080825280602002602001820160405280156127675781602001602082028038833980820191505090505b50826060018190525073b2c6709463c084b00db413488f5d6677c39d27be8260600151600081518110151561279857fe5b9060200190602002019073ffffffffffffffffffffffffffffffffffffffff16908173ffffffffffffffffffffffffffffffffffffffff168152505073b53a4e90b720c68d5beb996739c2baa4fcbd10b6826060015160018151811015156127fc57fe5b9060200190602002019073ffffffffffffffffffffffffffffffffffffffff16908173ffffffffffffffffffffffffffffffffffffffff16815250507342033ed8a06df40fd4933f5d03e2558ae1412f158260600151600281518110151561286057fe5b9060200190602002019073ffffffffffffffffffffffffffffffffffffffff16908173ffffffffffffffffffffffffffffffffffffffff1681525050806040519080825280602002602001820160405280156128cb5781602001602082028038833980820191505090505b508260800181905250735e3263f3259f5e30f5ad31e1055433e006517d18826080015160008151811015156128fc57fe5b9060200190602002019073ffffffffffffffffffffffffffffffffffffffff16908173ffffffffffffffffffffffffffffffffffffffff168152505073e2fb20706a4c08129df1375f584c6cb4f4459fab8260800151600181518110151561296057fe5b9060200190602002019073ffffffffffffffffffffffffffffffffffffffff16908173ffffffffffffffffffffffffffffffffffffffff16815250507342033ed8a06df40fd4933f5d03e2558ae1412f15826080015160028151811015156129c457fe5b9060200190602002019073ffffffffffffffffffffffffffffffffffffffff16908173ffffffffffffffffffffffffffffffffffffffff168152505080604051908082528060200260200182016040528015612a2f5781602001602082028038833980820191505090505b508260a0018190525060018260a001516000815181101515612a4d57fe5b906020019060200201901515908115158152505060018260a001516001815181101515612a7657fe5b906020019060200201901515908115158152505060018260a001516002815181101515612a9f57fe5b9060200190602002019015159081151581525050600182600001901515908115158152505080604051908082528060200260200182016040528015612af35781602001602082028038833980820191505090505b508260c0018190525060648260c001516000815181101515612b1157fe5b906020019060200201818152505060648260c001516001815181101515612b3457fe5b906020019060200201818152505060648260c001516002815181101515612b5757fe5b906020019060200201818152505080604051908082528060200260200182016040528015612b945781602001602082028038833980820191505090505b508260e0018190525060148260e001516000815181101515612bb257fe5b906020019060200201818152505060148260e001516001815181101515612bd557fe5b906020019060200201818152505060148260e001516002815181101515612bf857fe5b90602001906020020181815250504282610100018181525050612c286301e13380426133c090919063ffffffff16565b826101200181815250506078826101400181815250508160036000600b54815260200190815260200160002060008201518160000160006101000a81548160ff021916908315150217905550602082015181600101556040820151816002019080519060200190612c9a929190613dbe565b506060820151816003019080519060200190612cb7929190613e3e565b506080820151816004019080519060200190612cd4929190613e3e565b5060a0820151816005019080519060200190612cf1929190613ec8565b5060c0820151816006019080519060200190612d0e929190613f6e565b5060e0820151816007019080519060200190612d2b929190613f6e565b506101008201518160080155610120820151816009015561014082015181600a01559050505050565b60008060011515612d64846117a6565b1515141515612d7257600080fd5b612d7c8333610f35565b9150600360008481526020019081526020016000209050600015158160050183815481101515612da857fe5b90600052602060002090602091828204019190069054906101000a900460ff161515141515612dd657600080fd5b60018160050183815481101515612de957fe5b90600052602060002090602091828204019190066101000a81548160ff02191690831515021790555060011515612e1f84611513565b15151415612e455760018160000160006101000a81548160ff0219169083151502179055505b612e4e83613bfd565b505050565b60008060001515612e6386611513565b1515141515612e7157600080fd5b600084111515612e8057600080fd5b8383111515612e8e57600080fd5b612e988533610f35565b9150600360008681526020019081526020016000209050838160070183815481101515612ec157fe5b9060005260206000200181905550828160060183815481101515612ee157fe5b9060005260206000200181905550612ef8856132ff565b5050505050565b6000600960003373ffffffffffffffffffffffffffffffffffffffff1673ffffffffffffffffffffffffffffffffffffffff16815260200190815260200160002054905090565b6000612f50613fbb565b6000612f5b33611360565b1515612f6657600080fd5b600092505b8451831015612ffb57612f948584815181101515612f8557fe5b90602001906020020151611360565b8015612fe357503373ffffffffffffffffffffffffffffffffffffffff168584815181101515612fc057fe5b9060200190602002015173ffffffffffffffffffffffffffffffffffffffff1614155b1515612fee57600080fd5b8280600101935050612f6b565b6130116001600a546133c090919063ffffffff16565b600a81905550600a5482600001818152505033826020019073ffffffffffffffffffffffffffffffffffffffff16908173ffffffffffffffffffffffffffffffffffffffff1681525050848260400181905250838260600181905250845160405190808252806020026020018201604052801561309d5781602001602082028038833980820191505090505b5082608001819052508160016000600a5481526020019081526020016000206000820151816000015560208201518160010160006101000a81548173ffffffffffffffffffffffffffffffffffffffff021916908373ffffffffffffffffffffffffffffffffffffffff1602179055506040820151816002019080519060200190613129929190613e3e565b506060820151816003019080519060200190613146929190613dbe565b506080820151816004019080519060200190613163929190613ec8565b50905050600260003373ffffffffffffffffffffffffffffffffffffffff1673ffffffffffffffffffffffffffffffffffffffff168152602001908152602001600020600a549080600181540180825580915050906001820390600052602060002001600090919290919091505550600090505b845181101561326f576002600086838151811015156131f257fe5b9060200190602002015173ffffffffffffffffffffffffffffffffffffffff1673ffffffffffffffffffffffffffffffffffffffff168152602001908152602001600020600a54908060018154018082558091505090600182039060005260206000200160009091929091909150555080806001019150506131d7565b61327c826000015161340b565b5050505050565b60006007600084815260200190815260200160002060008373ffffffffffffffffffffffffffffffffffffffff1673ffffffffffffffffffffffffffffffffffffffff16815260200190815260200160002054905092915050565b6000808383111515156132f057600080fd5b82840390508091505092915050565b600080600360008481526020019081526020016000209150600090505b8160030180549050811015613374576000826005018281548110151561333e57fe5b90600052602060002090602091828204019190066101000a81548160ff021916908315150217905550808060010191505061331c565b61337d83613bfd565b505050565b600080600084141561339757600091506133b9565b82840290508284828115156133a857fe5b041415156133b557600080fd5b8091505b5092915050565b60008082840190508381101515156133d757600080fd5b8091505092915050565b6000806000831115156133f357600080fd5b82848115156133fe57fe5b0490508091505092915050565b600080600160008481526020019081526020016000209150600090505b81600201805490508110156134ea577f2e0294094c2fe83c4c8991bc8dd4dbd1cf2e64d3f23e6d854504817c12911f89826002018281548110151561346957fe5b9060005260206000200160009054906101000a900473ffffffffffffffffffffffffffffffffffffffff1642604051808373ffffffffffffffffffffffffffffffffffffffff1673ffffffffffffffffffffffffffffffffffffffff1681526020018281526020019250505060405180910390a18080600101915050613428565b7f2e0294094c2fe83c4c8991bc8dd4dbd1cf2e64d3f23e6d854504817c12911f898260010160009054906101000a900473ffffffffffffffffffffffffffffffffffffffff1642604051808373ffffffffffffffffffffffffffffffffffffffff1673ffffffffffffffffffffffffffffffffffffffff1681526020018281526020019250505060405180910390a1505050565b6000613588613d61565b600080600085600b81905550600160008781526020019081526020016000209450600b54846020018181525050602060405190810160405280600081525084604001819052506135fa6001806000898152602001908152602001600020600201805490506133c090919063ffffffff16565b92508260405190808252806020026020018201604052801561362b5781602001602082028038833980820191505090505b508460600181905250826040519080825280602002602001820160405280156136635781602001602082028038833980820191505090505b5084608001819052508260405190808252806020026020018201604052801561369b5781602001602082028038833980820191505090505b508460a00181905250826040519080825280602002602001820160405280156136d35781602001602082028038833980820191505090505b508460c001819052508260405190808252806020026020018201604052801561370b5781602001602082028038833980820191505090505b508460e001819052506000846000019015159081151581525050600091505b8282101561395e57600082141561382e578460010160009054906101000a900473ffffffffffffffffffffffffffffffffffffffff1684606001518381518110151561377257fe5b9060200190602002019073ffffffffffffffffffffffffffffffffffffffff16908173ffffffffffffffffffffffffffffffffffffffff16815250506137db8560010160009054906101000a900473ffffffffffffffffffffffffffffffffffffffff166115bd565b8460800151838151811015156137ed57fe5b9060200190602002019073ffffffffffffffffffffffffffffffffffffffff16908173ffffffffffffffffffffffffffffffffffffffff1681525050613951565b846002016001830381548110151561384257fe5b9060005260206000200160009054906101000a900473ffffffffffffffffffffffffffffffffffffffff1684606001518381518110151561387f57fe5b9060200190602002019073ffffffffffffffffffffffffffffffffffffffff16908173ffffffffffffffffffffffffffffffffffffffff168152505061390285600201600184038154811015156138d257fe5b9060005260206000200160009054906101000a900473ffffffffffffffffffffffffffffffffffffffff166115bd565b84608001518381518110151561391457fe5b9060200190602002019073ffffffffffffffffffffffffffffffffffffffff16908173ffffffffffffffffffffffffffffffffffffffff16815250505b818060010192505061372a565b6000846101000181815250506000846101200181815250506000846101400181815250508360036000600b54815260200190815260200160002060008201518160000160006101000a81548160ff0219169083151502179055506020820151816001015560408201518160020190805190602001906139de929190613dbe565b5060608201518160030190805190602001906139fb929190613e3e565b506080820151816004019080519060200190613a18929190613e3e565b5060a0820151816005019080519060200190613a35929190613ec8565b5060c0820151816006019080519060200190613a52929190613f6e565b5060e0820151816007019080519060200190613a6f929190613f6e565b506101008201518160080155610120820151816009015561014082015181600a0155905050600460008660010160009054906101000a900473ffffffffffffffffffffffffffffffffffffffff1673ffffffffffffffffffffffffffffffffffffffff1673ffffffffffffffffffffffffffffffffffffffff168152602001908152602001600020600b549080600181540180825580915050906001820390600052602060002001600090919290919091505550600090505b8460020180549050811015613bea57600460008660020183815481101515613b4c57fe5b9060005260206000200160009054906101000a900473ffffffffffffffffffffffffffffffffffffffff1673ffffffffffffffffffffffffffffffffffffffff1673ffffffffffffffffffffffffffffffffffffffff168152602001908152602001600020600b5490806001815401808255809150509060018203906000526020600020016000909192909190915055508080600101915050613b28565b613bf5600b54613bfd565b505050505050565b600080600360008481526020019081526020016000209150600090505b8160030180549050811015613cdc577f60d4d43cc432db2e524fc7d40759cd4efb225e508100997fb57e0494d65c4e5e8260030182815481101515613c5b57fe5b9060005260206000200160009054906101000a900473ffffffffffffffffffffffffffffffffffffffff1642604051808373ffffffffffffffffffffffffffffffffffffffff1673ffffffffffffffffffffffffffffffffffffffff1681526020018281526020019250505060405180910390a18080600101915050613c1a565b505050565b828054600181600116156101000203166002900490600052602060002090601f016020900481019282601f10613d2257805160ff1916838001178555613d50565b82800160010185558215613d50579182015b82811115613d4f578251825591602001919060010190613d34565b5b509050613d5d9190614001565b5090565b61016060405190810160405280600015158152602001600081526020016060815260200160608152602001606081526020016060815260200160608152602001606081526020016000815260200160008152602001600081525090565b828054600181600116156101000203166002900490600052602060002090601f016020900481019282601f10613dff57805160ff1916838001178555613e2d565b82800160010185558215613e2d579182015b82811115613e2c578251825591602001919060010190613e11565b5b509050613e3a9190614001565b5090565b828054828255906000526020600020908101928215613eb7579160200282015b82811115613eb65782518260006101000a81548173ffffffffffffffffffffffffffffffffffffffff021916908373ffffffffffffffffffffffffffffffffffffffff16021790555091602001919060010190613e5e565b5b509050613ec49190614026565b5090565b82805482825590600052602060002090601f01602090048101928215613f5d5791602002820160005b83821115613f2e57835183826101000a81548160ff0219169083151502179055509260200192600101602081600001049283019260010302613ef1565b8015613f5b5782816101000a81549060ff0219169055600101602081600001049283019260010302613f2e565b505b509050613f6a9190614069565b5090565b828054828255906000526020600020908101928215613faa579160200282015b82811115613fa9578251825591602001919060010190613f8e565b5b509050613fb79190614001565b5090565b60a06040519081016040528060008152602001600073ffffffffffffffffffffffffffffffffffffffff1681526020016060815260200160608152602001606081525090565b61402391905b8082111561401f576000816000905550600101614007565b5090565b90565b61406691905b8082111561406257600081816101000a81549073ffffffffffffffffffffffffffffffffffffffff02191690555060010161402c565b5090565b90565b61409691905b8082111561409257600081816101000a81549060ff02191690555060010161406f565b5090565b905600a165627a7a72305820f1f338e12037e414b5e730e23ce1d840ce2dccb2039288eb40ff0781c09b1fa400294c6f72656d20697073756d20646f6c6f722073697420616d65742c20636f6e7365637465747565722061646970697363696e6720656c69742e2041656e65616e20636f6d6d6f646f206c6967756c61206567657420646f6c6f722e2041656e65616e206d617373612e2043756d20736f63696973206e61746f7175652070656e617469627573206574206d61676e6973206469732070617274757269656e74206d6f6e7465732c206e61736365747572207269646963756c7573206d75732e",
  "source": "pragma solidity 0.4.24;\nimport \"./MembershipRepository.sol\";\nimport \"./RestaurantRepository.sol\";\nimport \"./CommentRepository.sol\";\ncontract Deployment {\n    MembershipRepository private membershipRepository;\n    CommentRepository private commentRepository;\n    RestaurantRepository private restaurantRepository;\n    constructor(){\n        restaurantRepository = new RestaurantRepository();\n        commentRepository = new CommentRepository();\n        membershipRepository = new MembershipRepository();\n\n        restaurantRepository.setMembershipRepository(address(membershipRepository));\n        restaurantRepository.setCommentRepository(address(commentRepository));\n        membershipRepository.setRestaurantRepository(address(restaurantRepository));\n        commentRepository.setRestaurantRepository(address(restaurantRepository));\n\n        // Sample Data\n        string memory desc = \"Lorem ipsum dolor sit amet, consectetuer adipiscing elit. Aenean commodo ligula eget dolor. Aenean massa. Cum sociis natoque penatibus et magnis dis parturient montes, nascetur ridiculus mus.\";\n        string memory contact = \"abc@abc.com, XXXX-XXXX\";\n        restaurantRepository.registerRestaurantForTest(0xb2C6709463c084b00Db413488f5D6677C39d27BE, \"Restaurant 1\", desc, contact, \"/img/sample/banner/a.jpg\", 4);\n        restaurantRepository.registerRestaurantForTest(0xB53A4E90b720c68d5BeB996739c2BAA4fcBD10B6, \"Restaurant 2\", desc, contact, \"/img/sample/banner/b.jpg\", 4);\n        restaurantRepository.registerRestaurantForTest(0x42033Ed8A06DF40Fd4933F5D03E2558aE1412f15, \"Restaurant 3\", desc, contact, \"/img/sample/banner/c.jpg\", 4);\n\n        string memory menuDesc = \"Vivamus elementum semper nisi\";\n        for(uint i=0; i<restaurantRepository.getRestaurantAddressList().length; i++){\n            Restaurant r = Restaurant(restaurantRepository.getRestaurantAddressList()[i]);\n            r.addMenuItem(\"Chicken\", menuDesc, \"/img/sample/menu/chicken.jpg\", 150);\n            r.addMenuItem(\"Bibimbap\", menuDesc, \"/img/sample/menu/bibimbap.jpg\", 60);\n            r.addMenuItem(\"Dim Sum\", menuDesc, \"/img/sample/menu/dimsum.jpg\", 70);\n            r.addMenuItem(\"Dry Noodle\", menuDesc, \"/img/sample/menu/noodle.jpg\", 50);\n            r.addMenuItem(\"Tofu\", menuDesc, \"/img/sample/menu/tofu.jpg\", 40);\n            r.addMenuItem(\"Coffee\", menuDesc, \"/img/sample/menu/coffee.jpg\", 30);\n            r.addMenuItem(\"Milk Tea\", menuDesc, \"/img/sample/menu/milktea.jpg\", 25);\n            if (i==0){\n                r.setLocation(114, 175100, 22, 336990);\n            } else if(i==1){\n                r.setLocation(114, 178200, 22, 338588);\n            } else {\n                r.setLocation(114, 181065, 22, 330613);\n            }\n\n        }\n\n        membershipRepository.sampleMembership();\n    }\n    \n    function getRestaurantRepository() public view returns(address){\n        return address(restaurantRepository);\n    }\n    function getCommentRepository() public view returns(address){\n        return address(commentRepository);\n    }\n    function getMembershipRepository() public view returns(address){\n        return address(membershipRepository);\n    }\n}\n",
  "sourcePath": "/Users/noahkim/Documents/College/preps_v2/src/preps/src/core/contracts/Deployment.sol",
  "compiler": {
    "name": "solc",
    "version": "0.4.24+commit.e67f0147.Emscripten.clang"
  },
  "schemaVersion": "2.0.1",
  "updatedAt": "2019-04-06T08:57:33.138Z"
}