{
  "contractName": "MembershipRepository",
  "abi": [
    {
      "inputs": [],
      "payable": false,
      "stateMutability": "nonpayable",
      "type": "constructor"
    },
    {
      "anonymous": false,
      "inputs": [
        {
          "indexed": false,
          "name": "stakeholder",
          "type": "address"
        },
        {
          "indexed": false,
          "name": "date",
          "type": "uint256"
        }
      ],
      "name": "RequestEvent",
      "type": "event"
    },
    {
      "anonymous": false,
      "inputs": [
        {
          "indexed": false,
          "name": "stakeholder",
          "type": "address"
        },
        {
          "indexed": false,
          "name": "date",
          "type": "uint256"
        }
      ],
      "name": "PlanEvent",
      "type": "event"
    },
    {
      "constant": false,
      "inputs": [
        {
          "name": "no",
          "type": "uint256"
        },
        {
          "name": "numOfMonths",
          "type": "uint256"
        }
      ],
      "name": "subscribeMembership",
      "outputs": [],
      "payable": true,
      "stateMutability": "payable",
      "type": "function"
    },
    {
      "constant": true,
      "inputs": [],
      "name": "getBalance",
      "outputs": [
        {
          "name": "",
          "type": "uint256"
        }
      ],
      "payable": false,
      "stateMutability": "view",
      "type": "function"
    },
    {
      "constant": false,
      "inputs": [],
      "name": "withdraw",
      "outputs": [],
      "payable": false,
      "stateMutability": "nonpayable",
      "type": "function"
    },
    {
      "constant": true,
      "inputs": [],
      "name": "getAmtToWithdraw",
      "outputs": [
        {
          "name": "",
          "type": "uint256"
        }
      ],
      "payable": false,
      "stateMutability": "view",
      "type": "function"
    },
    {
      "constant": true,
      "inputs": [
        {
          "name": "customer",
          "type": "address"
        },
        {
          "name": "originalPriceToPay",
          "type": "uint256"
        },
        {
          "name": "restaurant",
          "type": "address"
        }
      ],
      "name": "getDiscountAmount",
      "outputs": [
        {
          "name": "",
          "type": "uint256"
        }
      ],
      "payable": false,
      "stateMutability": "view",
      "type": "function"
    },
    {
      "constant": false,
      "inputs": [
        {
          "name": "_partners",
          "type": "address[]"
        },
        {
          "name": "_msg",
          "type": "string"
        }
      ],
      "name": "proposePartnership",
      "outputs": [],
      "payable": false,
      "stateMutability": "nonpayable",
      "type": "function"
    },
    {
      "constant": false,
      "inputs": [
        {
          "name": "_no",
          "type": "uint256"
        }
      ],
      "name": "acceptPartnershipRequest",
      "outputs": [],
      "payable": false,
      "stateMutability": "nonpayable",
      "type": "function"
    },
    {
      "constant": false,
      "inputs": [
        {
          "name": "no",
          "type": "uint256"
        },
        {
          "name": "discountAmt",
          "type": "uint256"
        },
        {
          "name": "minSpentAmt",
          "type": "uint256"
        }
      ],
      "name": "setPlanDiscountAmt",
      "outputs": [],
      "payable": false,
      "stateMutability": "nonpayable",
      "type": "function"
    },
    {
      "constant": false,
      "inputs": [
        {
          "name": "no",
          "type": "uint256"
        },
        {
          "name": "_name",
          "type": "string"
        },
        {
          "name": "_startDate",
          "type": "uint256"
        },
        {
          "name": "_endDate",
          "type": "uint256"
        },
        {
          "name": "_monthlyFee",
          "type": "uint256"
        }
      ],
      "name": "setPlan",
      "outputs": [],
      "payable": false,
      "stateMutability": "nonpayable",
      "type": "function"
    },
    {
      "constant": false,
      "inputs": [
        {
          "name": "no",
          "type": "uint256"
        }
      ],
      "name": "acceptPlan",
      "outputs": [],
      "payable": false,
      "stateMutability": "nonpayable",
      "type": "function"
    },
    {
      "constant": true,
      "inputs": [
        {
          "name": "no",
          "type": "uint256"
        }
      ],
      "name": "isValidPlan",
      "outputs": [
        {
          "name": "",
          "type": "bool"
        }
      ],
      "payable": false,
      "stateMutability": "view",
      "type": "function"
    },
    {
      "constant": true,
      "inputs": [
        {
          "name": "no",
          "type": "uint256"
        }
      ],
      "name": "isReachedOnAgreement",
      "outputs": [
        {
          "name": "",
          "type": "bool"
        }
      ],
      "payable": false,
      "stateMutability": "view",
      "type": "function"
    },
    {
      "constant": true,
      "inputs": [
        {
          "name": "no",
          "type": "uint256"
        },
        {
          "name": "addr",
          "type": "address"
        }
      ],
      "name": "checkInPartnership",
      "outputs": [
        {
          "name": "",
          "type": "bool"
        }
      ],
      "payable": false,
      "stateMutability": "view",
      "type": "function"
    },
    {
      "constant": true,
      "inputs": [
        {
          "name": "no",
          "type": "uint256"
        },
        {
          "name": "addr",
          "type": "address"
        }
      ],
      "name": "getIndexInPlan",
      "outputs": [
        {
          "name": "",
          "type": "uint256"
        }
      ],
      "payable": false,
      "stateMutability": "view",
      "type": "function"
    },
    {
      "constant": false,
      "inputs": [
        {
          "name": "repositoryAddress",
          "type": "address"
        }
      ],
      "name": "setRestaurantRepository",
      "outputs": [],
      "payable": false,
      "stateMutability": "nonpayable",
      "type": "function"
    },
    {
      "constant": true,
      "inputs": [],
      "name": "getRestaurantRepositoryAddress",
      "outputs": [
        {
          "name": "",
          "type": "address"
        }
      ],
      "payable": false,
      "stateMutability": "view",
      "type": "function"
    },
    {
      "constant": false,
      "inputs": [
        {
          "name": "addr",
          "type": "address"
        }
      ],
      "name": "isOwner",
      "outputs": [
        {
          "name": "",
          "type": "bool"
        }
      ],
      "payable": false,
      "stateMutability": "nonpayable",
      "type": "function"
    },
    {
      "constant": false,
      "inputs": [
        {
          "name": "owner",
          "type": "address"
        }
      ],
      "name": "getRestaurantAddress",
      "outputs": [
        {
          "name": "",
          "type": "address"
        }
      ],
      "payable": false,
      "stateMutability": "nonpayable",
      "type": "function"
    },
    {
      "constant": true,
      "inputs": [
        {
          "name": "addr",
          "type": "address"
        }
      ],
      "name": "getRequestNoList",
      "outputs": [
        {
          "name": "",
          "type": "uint256[]"
        }
      ],
      "payable": false,
      "stateMutability": "view",
      "type": "function"
    },
    {
      "constant": true,
      "inputs": [
        {
          "name": "addr",
          "type": "address"
        }
      ],
      "name": "getPlanNoList",
      "outputs": [
        {
          "name": "",
          "type": "uint256[]"
        }
      ],
      "payable": false,
      "stateMutability": "view",
      "type": "function"
    },
    {
      "constant": true,
      "inputs": [
        {
          "name": "no",
          "type": "uint256"
        }
      ],
      "name": "getRequest",
      "outputs": [
        {
          "name": "",
          "type": "uint256"
        },
        {
          "name": "",
          "type": "address"
        },
        {
          "name": "",
          "type": "address[]"
        },
        {
          "name": "",
          "type": "string"
        },
        {
          "name": "",
          "type": "bool[]"
        }
      ],
      "payable": false,
      "stateMutability": "view",
      "type": "function"
    },
    {
      "constant": true,
      "inputs": [
        {
          "name": "no",
          "type": "uint256"
        }
      ],
      "name": "getPlan",
      "outputs": [
        {
          "name": "",
          "type": "uint256"
        },
        {
          "name": "",
          "type": "string"
        },
        {
          "name": "",
          "type": "address[]"
        },
        {
          "name": "",
          "type": "uint256[]"
        },
        {
          "name": "",
          "type": "uint256[]"
        },
        {
          "name": "",
          "type": "uint256"
        },
        {
          "name": "",
          "type": "uint256"
        },
        {
          "name": "",
          "type": "uint256"
        },
        {
          "name": "",
          "type": "bool"
        },
        {
          "name": "",
          "type": "bool[]"
        }
      ],
      "payable": false,
      "stateMutability": "view",
      "type": "function"
    },
    {
      "constant": true,
      "inputs": [
        {
          "name": "no",
          "type": "uint256"
        }
      ],
      "name": "getPlanSignature",
      "outputs": [
        {
          "name": "",
          "type": "bool[]"
        }
      ],
      "payable": false,
      "stateMutability": "view",
      "type": "function"
    },
    {
      "constant": true,
      "inputs": [],
      "name": "getCurrentPlanNo",
      "outputs": [
        {
          "name": "",
          "type": "uint256"
        }
      ],
      "payable": false,
      "stateMutability": "view",
      "type": "function"
    },
    {
      "constant": true,
      "inputs": [
        {
          "name": "no",
          "type": "uint256"
        }
      ],
      "name": "getMembers",
      "outputs": [
        {
          "name": "",
          "type": "address[]"
        }
      ],
      "payable": false,
      "stateMutability": "view",
      "type": "function"
    },
    {
      "constant": true,
      "inputs": [
        {
          "name": "addr",
          "type": "address"
        }
      ],
      "name": "getPurchasedMembershipNoList",
      "outputs": [
        {
          "name": "",
          "type": "uint256[]"
        }
      ],
      "payable": false,
      "stateMutability": "view",
      "type": "function"
    },
    {
      "constant": true,
      "inputs": [
        {
          "name": "no",
          "type": "uint256"
        },
        {
          "name": "member",
          "type": "address"
        }
      ],
      "name": "getExpiryDate",
      "outputs": [
        {
          "name": "",
          "type": "uint256"
        }
      ],
      "payable": false,
      "stateMutability": "view",
      "type": "function"
    },
    {
      "constant": true,
      "inputs": [
        {
          "name": "no",
          "type": "uint256"
        }
      ],
      "name": "getTotalAmtCollected",
      "outputs": [
        {
          "name": "",
          "type": "uint256"
        }
      ],
      "payable": false,
      "stateMutability": "view",
      "type": "function"
    },
    {
      "constant": true,
      "inputs": [],
      "name": "getNow",
      "outputs": [
        {
          "name": "",
          "type": "uint256"
        }
      ],
      "payable": false,
      "stateMutability": "view",
      "type": "function"
    },
    {
      "constant": false,
      "inputs": [],
      "name": "sampleMembership",
      "outputs": [],
      "payable": false,
      "stateMutability": "nonpayable",
      "type": "function"
    }
  ],
  "bytecode": "0x608060405234801561001057600080fd5b506140c5806100206000396000f300608060405260043610610180576000357c0100000000000000000000000000000000000000000000000000000000900463ffffffff16806312065fe0146101855780631ce109b6146101b0578063234c566d146101db578063238d66241461027357806326cd5274146102d45780632bd5d82d146104c15780632f54bf6e146105595780633ccfd60b146105b45780633eb474ae146105cb57806345a08c9314610610578063465cbd67146106515780634b5ad89c146106d457806351a348ce14610739578063616b51761461079057806364bb4904146107d557806366730814146108575780638167892a146108ef57806384cd5206146109325780638a722f45146109c3578063980d408e146109ed578063acd1ddc814610a1a578063bbe4fd5014610a9b578063c477ecab14610ac6578063c58343ef14610b48578063e0dcd96a14610cb8578063e93ab2a114610ccf578063e9a672ff14610cfc578063ea31985414610d3d578063f4dbfabb14610d68578063f7952fef14610e14575b600080fd5b34801561019157600080fd5b5061019a610e75565b6040518082815260200191505060405180910390f35b3480156101bc57600080fd5b506101c5610e94565b6040518082815260200191505060405180910390f35b3480156101e757600080fd5b5061021c600480360381019080803573ffffffffffffffffffffffffffffffffffffffff169060200190929190505050610e9e565b6040518080602001828103825283818151815260200191508051906020019060200280838360005b8381101561025f578082015181840152602081019050610244565b505050509050019250505060405180910390f35b34801561027f57600080fd5b506102be60048036038101908080359060200190929190803573ffffffffffffffffffffffffffffffffffffffff169060200190929190505050610f35565b6040518082815260200191505060405180910390f35b3480156102e057600080fd5b506102ff60048036038101908080359060200190929190505050611007565b604051808b8152602001806020018060200180602001806020018a8152602001898152602001888152602001871515151581526020018060200186810386528f818151815260200191508051906020019080838360005b83811015610371578082015181840152602081019050610356565b50505050905090810190601f16801561039e5780820380516001836020036101000a031916815260200191505b5086810385528e818151815260200191508051906020019060200280838360005b838110156103da5780820151818401526020810190506103bf565b5050505090500186810384528d818151815260200191508051906020019060200280838360005b8381101561041c578082015181840152602081019050610401565b5050505090500186810383528c818151815260200191508051906020019060200280838360005b8381101561045e578082015181840152602081019050610443565b50505050905001868103825287818151815260200191508051906020019060200280838360005b838110156104a0578082015181840152602081019050610485565b505050509050019f5050505050505050505050505050505060405180910390f35b3480156104cd57600080fd5b50610502600480360381019080803573ffffffffffffffffffffffffffffffffffffffff1690602001909291905050506112c9565b6040518080602001828103825283818151815260200191508051906020019060200280838360005b8381101561054557808201518184015260208101905061052a565b505050509050019250505060405180910390f35b34801561056557600080fd5b5061059a600480360381019080803573ffffffffffffffffffffffffffffffffffffffff169060200190929190505050611360565b604051808215151515815260200191505060405180910390f35b3480156105c057600080fd5b506105c9611460565b005b3480156105d757600080fd5b506105f660048036038101908080359060200190929190505050611513565b604051808215151515815260200191505060405180910390f35b34801561061c57600080fd5b5061063b600480360381019080803590602001909291905050506115a0565b6040518082815260200191505060405180910390f35b34801561065d57600080fd5b50610692600480360381019080803573ffffffffffffffffffffffffffffffffffffffff1690602001909291905050506115bd565b604051808273ffffffffffffffffffffffffffffffffffffffff1673ffffffffffffffffffffffffffffffffffffffff16815260200191505060405180910390f35b3480156106e057600080fd5b5061071f60048036038101908080359060200190929190803573ffffffffffffffffffffffffffffffffffffffff1690602001909291905050506116bd565b604051808215151515815260200191505060405180910390f35b34801561074557600080fd5b5061074e61177d565b604051808273ffffffffffffffffffffffffffffffffffffffff1673ffffffffffffffffffffffffffffffffffffffff16815260200191505060405180910390f35b34801561079c57600080fd5b506107bb600480360381019080803590602001909291905050506117a6565b604051808215151515815260200191505060405180910390f35b3480156107e157600080fd5b50610800600480360381019080803590602001909291905050506118a7565b6040518080602001828103825283818151815260200191508051906020019060200280838360005b83811015610843578082015181840152602081019050610828565b505050509050019250505060405180910390f35b34801561086357600080fd5b50610898600480360381019080803573ffffffffffffffffffffffffffffffffffffffff169060200190929190505050611940565b6040518080602001828103825283818151815260200191508051906020019060200280838360005b838110156108db5780820151818401526020810190506108c0565b505050509050019250505060405180910390f35b3480156108fb57600080fd5b50610930600480360381019080803573ffffffffffffffffffffffffffffffffffffffff1690602001909291905050506119d7565b005b34801561093e57600080fd5b506109c160048036038101908080359060200190929190803590602001908201803590602001908080601f0160208091040260200160405190810160405280939291908181526020018383808284378201915050505050509192919290803590602001909291908035906020019092919080359060200190929190505050611a76565b005b6109eb6004803603810190808035906020019092919080359060200190929190505050611b34565b005b3480156109f957600080fd5b50610a1860048036038101908080359060200190929190505050612003565b005b348015610a2657600080fd5b50610a85600480360381019080803573ffffffffffffffffffffffffffffffffffffffff16906020019092919080359060200190929190803573ffffffffffffffffffffffffffffffffffffffff1690602001909291905050506121d1565b6040518082815260200191505060405180910390f35b348015610aa757600080fd5b50610ab0612417565b6040518082815260200191505060405180910390f35b348015610ad257600080fd5b50610af16004803603810190808035906020019092919050505061241f565b6040518080602001828103825283818151815260200191508051906020019060200280838360005b83811015610b34578082015181840152602081019050610b19565b505050509050019250505060405180910390f35b348015610b5457600080fd5b50610b73600480360381019080803590602001909291905050506124c0565b604051808681526020018573ffffffffffffffffffffffffffffffffffffffff1673ffffffffffffffffffffffffffffffffffffffff168152602001806020018060200180602001848103845287818151815260200191508051906020019060200280838360005b83811015610bf6578082015181840152602081019050610bdb565b50505050905001848103835286818151815260200191508051906020019080838360005b83811015610c35578082015181840152602081019050610c1a565b50505050905090810190601f168015610c625780820380516001836020036101000a031916815260200191505b50848103825285818151815260200191508051906020019060200280838360005b83811015610c9e578082015181840152602081019050610c83565b505050509050019850505050505050505060405180910390f35b348015610cc457600080fd5b50610ccd6126c4565b005b348015610cdb57600080fd5b50610cfa60048036038101908080359060200190929190505050612d54565b005b348015610d0857600080fd5b50610d3b600480360381019080803590602001909291908035906020019092919080359060200190929190505050612e53565b005b348015610d4957600080fd5b50610d52612eff565b6040518082815260200191505060405180910390f35b348015610d7457600080fd5b50610e1260048036038101908080359060200190820180359060200190808060200260200160405190810160405280939291908181526020018383602002808284378201915050505050509192919290803590602001908201803590602001908080601f0160208091040260200160405190810160405280939291908181526020018383808284378201915050505050509192919290505050612f46565b005b348015610e2057600080fd5b50610e5f60048036038101908080359060200190929190803573ffffffffffffffffffffffffffffffffffffffff169060200190929190505050613283565b6040518082815260200191505060405180910390f35b60003073ffffffffffffffffffffffffffffffffffffffff1631905090565b6000600b54905090565b6060600460008373ffffffffffffffffffffffffffffffffffffffff1673ffffffffffffffffffffffffffffffffffffffff168152602001908152602001600020805480602002602001604051908101604052809291908181526020018280548015610f2957602002820191906000526020600020905b815481526020019060010190808311610f15575b50505050509050919050565b600080600080600060036000888152602001908152602001600020935060009250600090505b8360030180549050811015610fee578573ffffffffffffffffffffffffffffffffffffffff168460030182815481101515610f9257fe5b9060005260206000200160009054906101000a900473ffffffffffffffffffffffffffffffffffffffff1673ffffffffffffffffffffffffffffffffffffffff161415610fe157809150600192505b8080600101915050610f5b565b821515610ffa57600080fd5b8194505050505092915050565b600060608060608060008060008060606000600360008d815260200190815260200160002090508060010154816002018260030183600601846007018560080154866009015487600a01548860000160009054906101000a900460ff1689600501888054600181600116156101000203166002900480601f0160208091040260200160405190810160405280929190818152602001828054600181600116156101000203166002900480156110fd5780601f106110d2576101008083540402835291602001916110fd565b820191906000526020600020905b8154815290600101906020018083116110e057829003601f168201915b505050505098508780548060200260200160405190810160405280929190818152602001828054801561118557602002820191906000526020600020905b8160009054906101000a900473ffffffffffffffffffffffffffffffffffffffff1673ffffffffffffffffffffffffffffffffffffffff168152602001906001019080831161113b575b50505050509750868054806020026020016040519081016040528092919081815260200182805480156111d757602002820191906000526020600020905b8154815260200190600101908083116111c3575b505050505096508580548060200260200160405190810160405280929190818152602001828054801561122957602002820191906000526020600020905b815481526020019060010190808311611215575b50505050509550808054806020026020016040519081016040528092919081815260200182805480156112a057602002820191906000526020600020906000905b82829054906101000a900460ff1615158152602001906001019060208260000104928301926001038202915080841161126a5790505b505050505090509a509a509a509a509a509a509a509a509a509a50509193959799509193959799565b6060600260008373ffffffffffffffffffffffffffffffffffffffff1673ffffffffffffffffffffffffffffffffffffffff16815260200190815260200160002080548060200260200160405190810160405280929190818152602001828054801561135457602002820191906000526020600020905b815481526020019060010190808311611340575b50505050509050919050565b60008060009054906101000a900473ffffffffffffffffffffffffffffffffffffffff1673ffffffffffffffffffffffffffffffffffffffff16632f54bf6e836040518263ffffffff167c0100000000000000000000000000000000000000000000000000000000028152600401808273ffffffffffffffffffffffffffffffffffffffff1673ffffffffffffffffffffffffffffffffffffffff168152602001915050602060405180830381600087803b15801561141e57600080fd5b505af1158015611432573d6000803e3d6000fd5b505050506040513d602081101561144857600080fd5b81019080805190602001909291905050509050919050565b3373ffffffffffffffffffffffffffffffffffffffff16600960003373ffffffffffffffffffffffffffffffffffffffff1673ffffffffffffffffffffffffffffffffffffffff1681526020019081526020016000205460405160006040518083038185875af192505050506000600960003373ffffffffffffffffffffffffffffffffffffffff1673ffffffffffffffffffffffffffffffffffffffff16815260200190815260200160002081905550565b6000806000600360008581526020019081526020016000209150600090505b81600501805490508110156115945760001515826005018281548110151561155657fe5b90600052602060002090602091828204019190069054906101000a900460ff16151514156115875760009250611599565b8080600101915050611532565b600192505b5050919050565b600060086000838152602001908152602001600020549050919050565b60008060009054906101000a900473ffffffffffffffffffffffffffffffffffffffff1673ffffffffffffffffffffffffffffffffffffffff1663465cbd67836040518263ffffffff167c0100000000000000000000000000000000000000000000000000000000028152600401808273ffffffffffffffffffffffffffffffffffffffff1673ffffffffffffffffffffffffffffffffffffffff168152602001915050602060405180830381600087803b15801561167b57600080fd5b505af115801561168f573d6000803e3d6000fd5b505050506040513d60208110156116a557600080fd5b81019080805190602001909291905050509050919050565b6000806000600360008681526020019081526020016000209150600090505b8160030180549050811015611770578373ffffffffffffffffffffffffffffffffffffffff16826003018281548110151561171357fe5b9060005260206000200160009054906101000a900473ffffffffffffffffffffffffffffffffffffffff1673ffffffffffffffffffffffffffffffffffffffff1614156117635760019250611775565b80806001019150506116dc565b600092505b505092915050565b60008060009054906101000a900473ffffffffffffffffffffffffffffffffffffffff16905090565b60008060006003600085815260200190815260200160002091506000826008015414806117ef575062dd7c006117ed836008015484600901546132de90919063ffffffff16565b105b806117fe5750600082600a0154145b1561180c57600092506118a0565b600090505b816003018054905081101561189b576000826007018281548110151561183357fe5b906000526020600020015414806118805750816007018181548110151561185657fe5b9060005260206000200154826006018281548110151561187257fe5b906000526020600020015411155b1561188e57600092506118a0565b8080600101915050611811565b600192505b5050919050565b606060006003600084815260200190815260200160002090508060050180548060200260200160405190810160405280929190818152602001828054801561193357602002820191906000526020600020906000905b82829054906101000a900460ff161515815260200190600101906020826000010492830192600103820291508084116118fd5790505b5050505050915050919050565b6060600660008373ffffffffffffffffffffffffffffffffffffffff1673ffffffffffffffffffffffffffffffffffffffff1681526020019081526020016000208054806020026020016040519081016040528092919081815260200182805480156119cb57602002820191906000526020600020905b8154815260200190600101908083116119b7575b50505050509050919050565b600073ffffffffffffffffffffffffffffffffffffffff166000809054906101000a900473ffffffffffffffffffffffffffffffffffffffff1673ffffffffffffffffffffffffffffffffffffffff16141515611a3357600080fd5b806000806101000a81548173ffffffffffffffffffffffffffffffffffffffff021916908373ffffffffffffffffffffffffffffffffffffffff16021790555050565b6000801515611a8487611513565b1515141515611a9257600080fd5b611a9c86336116bd565b1515611aa757600080fd5b62dd7c00611abe42856132de90919063ffffffff16565b10151515611acb57600080fd5b600082111515611ada57600080fd5b60036000878152602001908152602001600020905084816002019080519060200190611b07929190613ce1565b504281600801819055508281600901819055508181600a0181905550611b2c866132ff565b505050505050565b6000806000806000806003600089815260200190815260200160002095508560000160009054906101000a900460ff161515611b6f57600080fd5b42866008015411151515611b8257600080fd5b611bb3670de0b6b3a7640000611ba588600a01548a61338290919063ffffffff16565b61338290919063ffffffff16565b94508434141515611bc357600080fd5b611bd962278d008861338290919063ffffffff16565b93506007600089815260200190815260200160002060003373ffffffffffffffffffffffffffffffffffffffff1673ffffffffffffffffffffffffffffffffffffffff1681526020019081526020016000205492506000831415611d1857600560008981526020019081526020016000203390806001815401808255809150509060018203906000526020600020016000909192909190916101000a81548173ffffffffffffffffffffffffffffffffffffffff021916908373ffffffffffffffffffffffffffffffffffffffff16021790555050600660003373ffffffffffffffffffffffffffffffffffffffff1673ffffffffffffffffffffffffffffffffffffffff1681526020019081526020016000208890806001815401808255809150509060018203906000526020600020016000909192909190915055505b42831115611db1578560090154611d3885856133c090919063ffffffff16565b11151515611d4557600080fd5b611d5884846133c090919063ffffffff16565b600760008a815260200190815260200160002060003373ffffffffffffffffffffffffffffffffffffffff1673ffffffffffffffffffffffffffffffffffffffff16815260200190815260200160002081905550611e3e565b8560090154611dc985426133c090919063ffffffff16565b11151515611dd657600080fd5b611de984426133c090919063ffffffff16565b600760008a815260200190815260200160002060003373ffffffffffffffffffffffffffffffffffffffff1673ffffffffffffffffffffffffffffffffffffffff168152602001908152602001600020819055505b611e6485600860008b8152602001908152602001600020546133c090919063ffffffff16565b600860008a8152602001908152602001600020819055503073ffffffffffffffffffffffffffffffffffffffff166108fc869081150290604051600060405180830381858888f1935050505050600091505b8560030180549050821015611ff957611edf8660030180549050866133e190919063ffffffff16565b9050611f6e81600960008960030186815481101515611efa57fe5b9060005260206000200160009054906101000a900473ffffffffffffffffffffffffffffffffffffffff1673ffffffffffffffffffffffffffffffffffffffff1673ffffffffffffffffffffffffffffffffffffffff168152602001908152602001600020546133c090919063ffffffff16565b600960008860030185815481101515611f8357fe5b9060005260206000200160009054906101000a900473ffffffffffffffffffffffffffffffffffffffff1673ffffffffffffffffffffffffffffffffffffffff1673ffffffffffffffffffffffffffffffffffffffff168152602001908152602001600020819055508180600101925050611eb6565b5050505050505050565b60008060008060008060016000888152602001908152602001600020955060009450600092505b85600201805490508310156120bd573373ffffffffffffffffffffffffffffffffffffffff16866002018481548110151561206157fe5b9060005260206000200160009054906101000a900473ffffffffffffffffffffffffffffffffffffffff1673ffffffffffffffffffffffffffffffffffffffff1614156120b057600194508293505b828060010193505061202a565b8415156120c957600080fd5b6000151586600401858154811015156120de57fe5b90600052602060002090602091828204019190069054906101000a900460ff16151514151561210c57600080fd5b6001866004018581548110151561211f57fe5b90600052602060002090602091828204019190066101000a81548160ff02191690831515021790555060019150600090505b85600401805490508110156121af5760001515866004018281548110151561217557fe5b90600052602060002090602091828204019190069054906101000a900460ff16151514156121a257600091505b8080600101915050612151565b6121b88761340b565b81156121c8576121c78761357e565b5b50505050505050565b60008060008060008060009450600093505b600660008a73ffffffffffffffffffffffffffffffffffffffff1673ffffffffffffffffffffffffffffffffffffffff1681526020019081526020016000208054905084101561240857600660008a73ffffffffffffffffffffffffffffffffffffffff1673ffffffffffffffffffffffffffffffffffffffff1681526020019081526020016000208481548110151561227957fe5b90600052602060002001549250426007600085815260200190815260200160002060008b73ffffffffffffffffffffffffffffffffffffffff1673ffffffffffffffffffffffffffffffffffffffff168152602001908152602001600020541015156123f557600360008481526020019081526020016000209150600090505b81600401805490508110156123f0578673ffffffffffffffffffffffffffffffffffffffff16826004018281548110151561233057fe5b9060005260206000200160009054906101000a900473ffffffffffffffffffffffffffffffffffffffff1673ffffffffffffffffffffffffffffffffffffffff16148015612399575087826006018281548110151561238b57fe5b906000526020600020015411155b80156123bf57508482600701828154811015156123b257fe5b9060005260206000200154115b156123e35781600701818154811015156123d557fe5b906000526020600020015494505b80806001019150506122f9565b6123fa565b6123fb565b5b83806001019450506121e3565b84955050505050509392505050565b600042905090565b6060600560008381526020019081526020016000208054806020026020016040519081016040528092919081815260200182805480156124b457602002820191906000526020600020905b8160009054906101000a900473ffffffffffffffffffffffffffffffffffffffff1673ffffffffffffffffffffffffffffffffffffffff168152602001906001019080831161246a575b50505050509050919050565b6000806060806060600060016000888152602001908152602001600020905080600001548160010160009054906101000a900473ffffffffffffffffffffffffffffffffffffffff168260020183600301846004018280548060200260200160405190810160405280929190818152602001828054801561259657602002820191906000526020600020905b8160009054906101000a900473ffffffffffffffffffffffffffffffffffffffff1673ffffffffffffffffffffffffffffffffffffffff168152602001906001019080831161254c575b50505050509250818054600181600116156101000203166002900480601f0160208091040260200160405190810160405280929190818152602001828054600181600116156101000203166002900480156126325780601f1061260757610100808354040283529160200191612632565b820191906000526020600020905b81548152906001019060200180831161261557829003601f168201915b50505050509150808054806020026020016040519081016040528092919081815260200182805480156126a957602002820191906000526020600020906000905b82829054906101000a900460ff161515815260200190600101906020826000010492830192600103820291508084116126735790505b50505050509050955095509550955095505091939590929450565b6126cc613d61565b60006126e46001600b546133c090919063ffffffff16565b600b81905550600b548260200181815250506040805190810160405280600381526020017f4142430000000000000000000000000000000000000000000000000000000000815250826040018190525060039050806040519080825280602002602001820160405280156127675781602001602082028038833980820191505090505b50826060018190525073b2c6709463c084b00db413488f5d6677c39d27be8260600151600081518110151561279857fe5b9060200190602002019073ffffffffffffffffffffffffffffffffffffffff16908173ffffffffffffffffffffffffffffffffffffffff168152505073b53a4e90b720c68d5beb996739c2baa4fcbd10b6826060015160018151811015156127fc57fe5b9060200190602002019073ffffffffffffffffffffffffffffffffffffffff16908173ffffffffffffffffffffffffffffffffffffffff16815250507342033ed8a06df40fd4933f5d03e2558ae1412f158260600151600281518110151561286057fe5b9060200190602002019073ffffffffffffffffffffffffffffffffffffffff16908173ffffffffffffffffffffffffffffffffffffffff1681525050806040519080825280602002602001820160405280156128cb5781602001602082028038833980820191505090505b508260800181905250735e3263f3259f5e30f5ad31e1055433e006517d18826080015160008151811015156128fc57fe5b9060200190602002019073ffffffffffffffffffffffffffffffffffffffff16908173ffffffffffffffffffffffffffffffffffffffff168152505073e2fb20706a4c08129df1375f584c6cb4f4459fab8260800151600181518110151561296057fe5b9060200190602002019073ffffffffffffffffffffffffffffffffffffffff16908173ffffffffffffffffffffffffffffffffffffffff16815250507342033ed8a06df40fd4933f5d03e2558ae1412f15826080015160028151811015156129c457fe5b9060200190602002019073ffffffffffffffffffffffffffffffffffffffff16908173ffffffffffffffffffffffffffffffffffffffff168152505080604051908082528060200260200182016040528015612a2f5781602001602082028038833980820191505090505b508260a0018190525060018260a001516000815181101515612a4d57fe5b906020019060200201901515908115158152505060018260a001516001815181101515612a7657fe5b906020019060200201901515908115158152505060018260a001516002815181101515612a9f57fe5b9060200190602002019015159081151581525050600182600001901515908115158152505080604051908082528060200260200182016040528015612af35781602001602082028038833980820191505090505b508260c0018190525060648260c001516000815181101515612b1157fe5b906020019060200201818152505060648260c001516001815181101515612b3457fe5b906020019060200201818152505060648260c001516002815181101515612b5757fe5b906020019060200201818152505080604051908082528060200260200182016040528015612b945781602001602082028038833980820191505090505b508260e0018190525060148260e001516000815181101515612bb257fe5b906020019060200201818152505060148260e001516001815181101515612bd557fe5b906020019060200201818152505060148260e001516002815181101515612bf857fe5b90602001906020020181815250504282610100018181525050612c286301e13380426133c090919063ffffffff16565b826101200181815250506078826101400181815250508160036000600b54815260200190815260200160002060008201518160000160006101000a81548160ff021916908315150217905550602082015181600101556040820151816002019080519060200190612c9a929190613dbe565b506060820151816003019080519060200190612cb7929190613e3e565b506080820151816004019080519060200190612cd4929190613e3e565b5060a0820151816005019080519060200190612cf1929190613ec8565b5060c0820151816006019080519060200190612d0e929190613f6e565b5060e0820151816007019080519060200190612d2b929190613f6e565b506101008201518160080155610120820151816009015561014082015181600a01559050505050565b60008060011515612d64846117a6565b1515141515612d7257600080fd5b612d7c8333610f35565b9150600360008481526020019081526020016000209050600015158160050183815481101515612da857fe5b90600052602060002090602091828204019190069054906101000a900460ff161515141515612dd657600080fd5b60018160050183815481101515612de957fe5b90600052602060002090602091828204019190066101000a81548160ff02191690831515021790555060011515612e1f84611513565b15151415612e455760018160000160006101000a81548160ff0219169083151502179055505b612e4e83613bfd565b505050565b60008060001515612e6386611513565b1515141515612e7157600080fd5b600084111515612e8057600080fd5b8383111515612e8e57600080fd5b612e988533610f35565b9150600360008681526020019081526020016000209050838160070183815481101515612ec157fe5b9060005260206000200181905550828160060183815481101515612ee157fe5b9060005260206000200181905550612ef8856132ff565b5050505050565b6000600960003373ffffffffffffffffffffffffffffffffffffffff1673ffffffffffffffffffffffffffffffffffffffff16815260200190815260200160002054905090565b6000612f50613fbb565b6000612f5b33611360565b1515612f6657600080fd5b600092505b8451831015612ffb57612f948584815181101515612f8557fe5b90602001906020020151611360565b8015612fe357503373ffffffffffffffffffffffffffffffffffffffff168584815181101515612fc057fe5b9060200190602002015173ffffffffffffffffffffffffffffffffffffffff1614155b1515612fee57600080fd5b8280600101935050612f6b565b6130116001600a546133c090919063ffffffff16565b600a81905550600a5482600001818152505033826020019073ffffffffffffffffffffffffffffffffffffffff16908173ffffffffffffffffffffffffffffffffffffffff1681525050848260400181905250838260600181905250845160405190808252806020026020018201604052801561309d5781602001602082028038833980820191505090505b5082608001819052508160016000600a5481526020019081526020016000206000820151816000015560208201518160010160006101000a81548173ffffffffffffffffffffffffffffffffffffffff021916908373ffffffffffffffffffffffffffffffffffffffff1602179055506040820151816002019080519060200190613129929190613e3e565b506060820151816003019080519060200190613146929190613dbe565b506080820151816004019080519060200190613163929190613ec8565b50905050600260003373ffffffffffffffffffffffffffffffffffffffff1673ffffffffffffffffffffffffffffffffffffffff168152602001908152602001600020600a549080600181540180825580915050906001820390600052602060002001600090919290919091505550600090505b845181101561326f576002600086838151811015156131f257fe5b9060200190602002015173ffffffffffffffffffffffffffffffffffffffff1673ffffffffffffffffffffffffffffffffffffffff168152602001908152602001600020600a54908060018154018082558091505090600182039060005260206000200160009091929091909150555080806001019150506131d7565b61327c826000015161340b565b5050505050565b60006007600084815260200190815260200160002060008373ffffffffffffffffffffffffffffffffffffffff1673ffffffffffffffffffffffffffffffffffffffff16815260200190815260200160002054905092915050565b6000808383111515156132f057600080fd5b82840390508091505092915050565b600080600360008481526020019081526020016000209150600090505b8160030180549050811015613374576000826005018281548110151561333e57fe5b90600052602060002090602091828204019190066101000a81548160ff021916908315150217905550808060010191505061331c565b61337d83613bfd565b505050565b600080600084141561339757600091506133b9565b82840290508284828115156133a857fe5b041415156133b557600080fd5b8091505b5092915050565b60008082840190508381101515156133d757600080fd5b8091505092915050565b6000806000831115156133f357600080fd5b82848115156133fe57fe5b0490508091505092915050565b600080600160008481526020019081526020016000209150600090505b81600201805490508110156134ea577f2e0294094c2fe83c4c8991bc8dd4dbd1cf2e64d3f23e6d854504817c12911f89826002018281548110151561346957fe5b9060005260206000200160009054906101000a900473ffffffffffffffffffffffffffffffffffffffff1642604051808373ffffffffffffffffffffffffffffffffffffffff1673ffffffffffffffffffffffffffffffffffffffff1681526020018281526020019250505060405180910390a18080600101915050613428565b7f2e0294094c2fe83c4c8991bc8dd4dbd1cf2e64d3f23e6d854504817c12911f898260010160009054906101000a900473ffffffffffffffffffffffffffffffffffffffff1642604051808373ffffffffffffffffffffffffffffffffffffffff1673ffffffffffffffffffffffffffffffffffffffff1681526020018281526020019250505060405180910390a1505050565b6000613588613d61565b600080600085600b81905550600160008781526020019081526020016000209450600b54846020018181525050602060405190810160405280600081525084604001819052506135fa6001806000898152602001908152602001600020600201805490506133c090919063ffffffff16565b92508260405190808252806020026020018201604052801561362b5781602001602082028038833980820191505090505b508460600181905250826040519080825280602002602001820160405280156136635781602001602082028038833980820191505090505b5084608001819052508260405190808252806020026020018201604052801561369b5781602001602082028038833980820191505090505b508460a00181905250826040519080825280602002602001820160405280156136d35781602001602082028038833980820191505090505b508460c001819052508260405190808252806020026020018201604052801561370b5781602001602082028038833980820191505090505b508460e001819052506000846000019015159081151581525050600091505b8282101561395e57600082141561382e578460010160009054906101000a900473ffffffffffffffffffffffffffffffffffffffff1684606001518381518110151561377257fe5b9060200190602002019073ffffffffffffffffffffffffffffffffffffffff16908173ffffffffffffffffffffffffffffffffffffffff16815250506137db8560010160009054906101000a900473ffffffffffffffffffffffffffffffffffffffff166115bd565b8460800151838151811015156137ed57fe5b9060200190602002019073ffffffffffffffffffffffffffffffffffffffff16908173ffffffffffffffffffffffffffffffffffffffff1681525050613951565b846002016001830381548110151561384257fe5b9060005260206000200160009054906101000a900473ffffffffffffffffffffffffffffffffffffffff1684606001518381518110151561387f57fe5b9060200190602002019073ffffffffffffffffffffffffffffffffffffffff16908173ffffffffffffffffffffffffffffffffffffffff168152505061390285600201600184038154811015156138d257fe5b9060005260206000200160009054906101000a900473ffffffffffffffffffffffffffffffffffffffff166115bd565b84608001518381518110151561391457fe5b9060200190602002019073ffffffffffffffffffffffffffffffffffffffff16908173ffffffffffffffffffffffffffffffffffffffff16815250505b818060010192505061372a565b6000846101000181815250506000846101200181815250506000846101400181815250508360036000600b54815260200190815260200160002060008201518160000160006101000a81548160ff0219169083151502179055506020820151816001015560408201518160020190805190602001906139de929190613dbe565b5060608201518160030190805190602001906139fb929190613e3e565b506080820151816004019080519060200190613a18929190613e3e565b5060a0820151816005019080519060200190613a35929190613ec8565b5060c0820151816006019080519060200190613a52929190613f6e565b5060e0820151816007019080519060200190613a6f929190613f6e565b506101008201518160080155610120820151816009015561014082015181600a0155905050600460008660010160009054906101000a900473ffffffffffffffffffffffffffffffffffffffff1673ffffffffffffffffffffffffffffffffffffffff1673ffffffffffffffffffffffffffffffffffffffff168152602001908152602001600020600b549080600181540180825580915050906001820390600052602060002001600090919290919091505550600090505b8460020180549050811015613bea57600460008660020183815481101515613b4c57fe5b9060005260206000200160009054906101000a900473ffffffffffffffffffffffffffffffffffffffff1673ffffffffffffffffffffffffffffffffffffffff1673ffffffffffffffffffffffffffffffffffffffff168152602001908152602001600020600b5490806001815401808255809150509060018203906000526020600020016000909192909190915055508080600101915050613b28565b613bf5600b54613bfd565b505050505050565b600080600360008481526020019081526020016000209150600090505b8160030180549050811015613cdc577f60d4d43cc432db2e524fc7d40759cd4efb225e508100997fb57e0494d65c4e5e8260030182815481101515613c5b57fe5b9060005260206000200160009054906101000a900473ffffffffffffffffffffffffffffffffffffffff1642604051808373ffffffffffffffffffffffffffffffffffffffff1673ffffffffffffffffffffffffffffffffffffffff1681526020018281526020019250505060405180910390a18080600101915050613c1a565b505050565b828054600181600116156101000203166002900490600052602060002090601f016020900481019282601f10613d2257805160ff1916838001178555613d50565b82800160010185558215613d50579182015b82811115613d4f578251825591602001919060010190613d34565b5b509050613d5d9190614001565b5090565b61016060405190810160405280600015158152602001600081526020016060815260200160608152602001606081526020016060815260200160608152602001606081526020016000815260200160008152602001600081525090565b828054600181600116156101000203166002900490600052602060002090601f016020900481019282601f10613dff57805160ff1916838001178555613e2d565b82800160010185558215613e2d579182015b82811115613e2c578251825591602001919060010190613e11565b5b509050613e3a9190614001565b5090565b828054828255906000526020600020908101928215613eb7579160200282015b82811115613eb65782518260006101000a81548173ffffffffffffffffffffffffffffffffffffffff021916908373ffffffffffffffffffffffffffffffffffffffff16021790555091602001919060010190613e5e565b5b509050613ec49190614026565b5090565b82805482825590600052602060002090601f01602090048101928215613f5d5791602002820160005b83821115613f2e57835183826101000a81548160ff0219169083151502179055509260200192600101602081600001049283019260010302613ef1565b8015613f5b5782816101000a81549060ff0219169055600101602081600001049283019260010302613f2e565b505b509050613f6a9190614069565b5090565b828054828255906000526020600020908101928215613faa579160200282015b82811115613fa9578251825591602001919060010190613f8e565b5b509050613fb79190614001565b5090565b60a06040519081016040528060008152602001600073ffffffffffffffffffffffffffffffffffffffff1681526020016060815260200160608152602001606081525090565b61402391905b8082111561401f576000816000905550600101614007565b5090565b90565b61406691905b8082111561406257600081816101000a81549073ffffffffffffffffffffffffffffffffffffffff02191690555060010161402c565b5090565b90565b61409691905b8082111561409257600081816101000a81549060ff02191690555060010161406f565b5090565b905600a165627a7a72305820f1f338e12037e414b5e730e23ce1d840ce2dccb2039288eb40ff0781c09b1fa40029",
  "source": "pragma solidity 0.4.24;\n\nimport \"./RestaurantRepositoryInterface.sol\";\nimport \"./SafeMath.sol\";\n\ncontract MembershipRepository {\n    event RequestEvent(address stakeholder, uint date);\n    event PlanEvent(address stakeholder, uint date);\n\n    using SafeMath for uint;\n    address private restaurantRepository;\n    mapping(uint => PartnershipRequest) private queryRequest;\n    mapping(address => uint[]) private queryRequestNoList;\n    mapping(uint => MembershipPlan) private queryPlan;\n    mapping(address => uint[]) private queryPlanNoList;\n\n    mapping(uint => address[]) private queryMembers; //no=>members\n    mapping(address => uint[]) private queryPurchasedMembershipNoList; //member=>membershipNoList\n    mapping(uint => mapping(address => uint)) private queryExpiryDate; //no=>member=>date\n    mapping(uint => uint) private queryTotalAmtCollected;\n    mapping(address => uint) private queryAmtToWithdraw;\n\n    uint private currentRequestNo;\n    uint private currentPlanNo;\n\n\n    struct PartnershipRequest {\n        uint no;\n        address proposer;\n        address[] partners;\n        string msgFromProposer;\n        bool[] signature;\n    }\n\n    struct MembershipPlan {\n        bool active;\n        uint no;\n        string name;\n        address[] owners;\n        address[] restaurants;\n        bool[] signature;\n        uint[] minSpentAmtList;\n        uint[] discountAmtList;\n        uint startDate;\n        uint endDate;\n        uint monthlyFee;\n    }\n\n\n\n    constructor () public {\n    }\n\n\n    function subscribeMembership(uint no, uint numOfMonths) public payable {\n        MembershipPlan storage targetPlan = queryPlan[no];\n        require(targetPlan.active);\n        require(targetPlan.startDate <= now);\n        uint amtToPay = numOfMonths.mul(targetPlan.monthlyFee).mul(1 ether);\n        require(msg.value == amtToPay);\n\n        uint sec = numOfMonths.mul(30 days);\n        uint expiryDate = queryExpiryDate[no][msg.sender];\n\n        if (expiryDate == 0) {\n            //new member\n\n            queryMembers[no].push(msg.sender);\n            queryPurchasedMembershipNoList[msg.sender].push(no);\n\n        }\n\n        if (expiryDate > now) {\n            require(expiryDate.add(sec) <= targetPlan.endDate);\n            queryExpiryDate[no][msg.sender] = expiryDate.add(sec);\n        } else {\n            require(now.add(sec) <= targetPlan.endDate);\n            queryExpiryDate[no][msg.sender] = now.add(sec);\n        }\n\n        queryTotalAmtCollected[no] = queryTotalAmtCollected[no].add(amtToPay);\n        address(this).send(amtToPay);\n        for (uint i = 0; i < targetPlan.owners.length; i++) {\n            uint amtToWithdraw = amtToPay.div(targetPlan.owners.length);\n            queryAmtToWithdraw[targetPlan.owners[i]] = queryAmtToWithdraw[targetPlan.owners[i]].add(amtToWithdraw);\n        }\n\n\n    }\n\n    function getBalance() public view returns (uint){\n        return address(this).balance;\n    }\n\n    function withdraw() public {\n        //        msg.sender.send(queryAmtToWithdraw[msg.sender]);\n        msg.sender.call.value(queryAmtToWithdraw[msg.sender])();\n        queryAmtToWithdraw[msg.sender] = 0;\n    }\n\n    function getAmtToWithdraw() public view returns (uint){\n        return queryAmtToWithdraw[msg.sender];\n    }\n\n\n    //    function getDiscountAmount(address customer, uint originalPriceToPay) public view returns(uint){\n    //        uint maxDiscountAmt = 0;\n    //\n    //        return maxDiscountAmt;\n    //    }\n\n    //    struct MembershipPlan {\n    //        bool active;\n    //        uint no;\n    //        string name;\n    //        address[] owners;\n    //        address[] restaurants;\n    //        bool[] signature;\n    //        uint[] minSpentAmtList;\n    //        uint[] discountAmtList;\n    //        uint startDate;\n    //        uint endDate;\n    //        uint monthlyFee;\n    //    }\n\n\n    function getDiscountAmount(address customer, uint originalPriceToPay, address restaurant) public view returns (uint){\n        uint maxDiscountAmt = 0;\n        for (uint i = 0; i < queryPurchasedMembershipNoList[customer].length; i++) {\n            uint planNO = queryPurchasedMembershipNoList[customer][i];\n            if (queryExpiryDate[planNO][customer] >= now) {\n                MembershipPlan storage targetPlan = queryPlan[planNO];\n                for (uint j = 0; j < targetPlan.restaurants.length; j++) {\n                    if (targetPlan.restaurants[j] == restaurant && targetPlan.minSpentAmtList[j] <= originalPriceToPay && targetPlan.discountAmtList[j] > maxDiscountAmt) {\n                        maxDiscountAmt = targetPlan.discountAmtList[j];\n                    }\n                }\n            } else {\n                continue;\n            }\n        }\n        return maxDiscountAmt;\n    }\n\n    function proposePartnership(address[] _partners, string _msg) public {\n        require(isOwner(msg.sender));\n        for (uint i = 0; i < _partners.length; i++) {\n            require(isOwner(_partners[i]) && _partners[i] != msg.sender);\n        }\n        currentRequestNo = currentRequestNo.add(1);\n        PartnershipRequest memory request;\n        request.no = currentRequestNo;\n        request.proposer = msg.sender;\n        request.partners = _partners;\n        request.msgFromProposer = _msg;\n        request.signature = new bool[](_partners.length);\n        queryRequest[currentRequestNo] = request;\n\n        queryRequestNoList[msg.sender].push(currentRequestNo);\n        for (uint j = 0; j < _partners.length; j++) {\n            queryRequestNoList[_partners[j]].push(currentRequestNo);\n        }\n        emitRequestEvent(request.no);\n\n\n    }\n\n    function emitRequestEvent(uint _no) private {\n        PartnershipRequest storage targetRequest = queryRequest[_no];\n        for (uint i = 0; i < targetRequest.partners.length; i++) {\n            emit RequestEvent(targetRequest.partners[i], now);\n        }\n        emit RequestEvent(targetRequest.proposer, now);\n    }\n\n    function emitPlanEvent(uint _no) private {\n        MembershipPlan storage targetPlan = queryPlan[_no];\n\n        for (uint i = 0; i < targetPlan.owners.length; i++) {\n            emit PlanEvent(targetPlan.owners[i], now);\n        }\n    }\n\n    function acceptPartnershipRequest(uint _no) public {\n        PartnershipRequest storage targetRequest = queryRequest[_no];\n        bool inPartnership = false;\n        uint sigIndex;\n        for (uint i = 0; i < targetRequest.partners.length; i++) {\n            if (targetRequest.partners[i] == msg.sender) {\n                inPartnership = true;\n                sigIndex = i;\n            }\n        }\n        require(inPartnership);\n        require(targetRequest.signature[sigIndex] == false);\n        targetRequest.signature[sigIndex] = true;\n\n        bool onConsensus = true;\n        for (uint j = 0; j < targetRequest.signature.length; j++) {\n            if (targetRequest.signature[j] == false) {\n                onConsensus = false;\n            }\n        }\n        emitRequestEvent(_no);\n        if (onConsensus) {\n            initMembershipPlan(_no);\n        }\n\n    }\n\n    function initMembershipPlan(uint requestNo) private {\n        currentPlanNo = requestNo;\n        PartnershipRequest storage targetRequest = queryRequest[requestNo];\n        MembershipPlan memory plan;\n        plan.no = currentPlanNo;\n        plan.name = \"\";\n        uint numOfParties = queryRequest[requestNo].partners.length.add(1);\n        plan.owners = new address[](numOfParties);\n        plan.restaurants = new address[](numOfParties);\n        plan.signature = new bool[](numOfParties);\n        plan.minSpentAmtList = new uint[](numOfParties);\n        plan.discountAmtList = new uint[](numOfParties);\n        plan.active = false;\n\n\n        for (uint i = 0; i < numOfParties; i++) {\n            if (i == 0) {\n                plan.owners[i] = targetRequest.proposer;\n                plan.restaurants[i] = getRestaurantAddress(targetRequest.proposer);\n            } else {\n                plan.owners[i] = targetRequest.partners[i - 1];\n                plan.restaurants[i] = getRestaurantAddress(targetRequest.partners[i - 1]);\n            }\n        }\n        plan.startDate = 0;\n        plan.endDate = 0;\n        plan.monthlyFee = 0;\n\n        queryPlan[currentPlanNo] = plan;\n\n        queryPlanNoList[targetRequest.proposer].push(currentPlanNo);\n        for (uint j = 0; j < targetRequest.partners.length; j++) {\n            queryPlanNoList[targetRequest.partners[j]].push(currentPlanNo);\n        }\n        emitPlanEvent(currentPlanNo);\n\n\n    }\n\n    function setPlanDiscountAmt(uint no, uint discountAmt, uint minSpentAmt) public {\n        require(isReachedOnAgreement(no) == false);\n        require(discountAmt > 0);\n        require(minSpentAmt > discountAmt);\n        uint index = getIndexInPlan(no, msg.sender);\n        MembershipPlan storage targetPlan = queryPlan[no];\n        targetPlan.discountAmtList[index] = discountAmt;\n        targetPlan.minSpentAmtList[index] = minSpentAmt;\n\n        initSignature(no);\n    }\n\n    function setPlan(uint no, string _name, uint _startDate, uint _endDate, uint _monthlyFee) public {\n        require(isReachedOnAgreement(no) == false);\n        require(checkInPartnership(no, msg.sender));\n        //        require(_startDate > now);\n        require(_endDate.sub(now) >= 24 weeks);\n        require(_monthlyFee > 0);\n        MembershipPlan storage targetPlan = queryPlan[no];\n        targetPlan.name = _name;\n        targetPlan.startDate = now;\n        targetPlan.endDate = _endDate;\n        targetPlan.monthlyFee = _monthlyFee;\n\n        initSignature(no);\n    }\n\n    function acceptPlan(uint no) public {\n        require(isValidPlan(no) == true);\n        uint index = getIndexInPlan(no, msg.sender);\n        MembershipPlan storage targetPlan = queryPlan[no];\n        require(targetPlan.signature[index] == false);\n        targetPlan.signature[index] = true;\n\n        if (isReachedOnAgreement(no) == true) {\n            targetPlan.active = true;\n        }\n        emitPlanEvent(no);\n    }\n\n    function isValidPlan(uint no) public view returns (bool) {\n        MembershipPlan storage targetPlan = queryPlan[no];\n        if (targetPlan.startDate == 0 || targetPlan.endDate.sub(targetPlan.startDate) < 24 weeks || targetPlan.monthlyFee == 0) {\n            return false;\n        }\n        for (uint i = 0; i < targetPlan.owners.length; i++) {\n            if (targetPlan.discountAmtList[i] == 0 || targetPlan.minSpentAmtList[i] <= targetPlan.discountAmtList[i]) {\n                return false;\n            }\n        }\n        return true;\n    }\n\n    function isReachedOnAgreement(uint no) public view returns (bool){\n        MembershipPlan storage targetPlan = queryPlan[no];\n        for (uint i = 0; i < targetPlan.signature.length; i++) {\n            if (targetPlan.signature[i] == false) {\n                return false;\n            }\n        }\n        return true;\n    }\n\n    function checkInPartnership(uint no, address addr) public view returns (bool){\n        MembershipPlan storage targetPlan = queryPlan[no];\n        for (uint i = 0; i < targetPlan.owners.length; i++) {\n            if (targetPlan.owners[i] == addr) {\n                return true;\n            }\n        }\n        return false;\n    }\n\n    function getIndexInPlan(uint no, address addr) public view returns (uint) {\n        MembershipPlan storage targetPlan = queryPlan[no];\n        bool found = false;\n        uint index;\n        for (uint i = 0; i < targetPlan.owners.length; i++) {\n            if (targetPlan.owners[i] == addr) {\n                index = i;\n                found = true;\n            }\n        }\n        require(found);\n        return index;\n    }\n\n    function initSignature(uint no) private {\n        MembershipPlan storage targetPlan = queryPlan[no];\n        for (uint i = 0; i < targetPlan.owners.length; i++) {\n            targetPlan.signature[i] = false;\n        }\n        emitPlanEvent(no);\n    }\n\n    function setRestaurantRepository(address repositoryAddress) public {\n        require(restaurantRepository == address(0));\n        restaurantRepository = repositoryAddress;\n    }\n\n    function getRestaurantRepositoryAddress() public view returns (address){\n        return restaurantRepository;\n    }\n\n\n    function isOwner(address addr) public returns (bool){\n        return RestaurantRepositoryInterface(restaurantRepository).isOwner(addr);\n    }\n\n    function getRestaurantAddress(address owner) public returns (address){\n        return RestaurantRepositoryInterface(restaurantRepository).getRestaurantAddress(owner);\n    }\n\n\n    function getRequestNoList(address addr) public view returns (uint[]){\n        return queryRequestNoList[addr];\n    }\n\n    function getPlanNoList(address addr) public view returns (uint[]){\n        return queryPlanNoList[addr];\n    }\n\n    function getRequest(uint no) public view returns (uint, address, address[], string, bool[]){\n        PartnershipRequest storage r = queryRequest[no];\n        return (r.no, r.proposer, r.partners, r.msgFromProposer, r.signature);\n    }\n\n    function getPlan(uint no) public view returns (uint, string, address[], uint[], uint[], uint, uint, uint, bool, bool[]){\n        MembershipPlan storage p = queryPlan[no];\n        return (p.no, p.name, p.owners, p.minSpentAmtList, p.discountAmtList, p.startDate, p.endDate, p.monthlyFee, p.active, p.signature);\n    }\n\n    function getPlanSignature(uint no) public view returns (bool[]){\n        MembershipPlan storage p = queryPlan[no];\n        return p.signature;\n    }\n\n    function getCurrentPlanNo() public view returns (uint){\n        return currentPlanNo;\n    }\n\n\n    function getMembers(uint no) public view returns (address[]){\n        return queryMembers[no];\n    }\n\n    function getPurchasedMembershipNoList(address addr) public view returns (uint[]){\n        return queryPurchasedMembershipNoList[addr];\n    }\n\n    function getExpiryDate(uint no, address member) public view returns (uint){\n        return queryExpiryDate[no][member];\n    }\n\n    function getTotalAmtCollected(uint no) public view returns (uint){\n        return queryTotalAmtCollected[no];\n    }\n\n    function getNow()public view returns(uint){\n        return now;\n    }\n\n    function sampleMembership() public {\n        currentPlanNo = currentPlanNo.add(1);\n        MembershipPlan memory Plan;\n        Plan.no = currentPlanNo;\n        Plan.name = \"ABC\";\n        uint numOfParties = 3;\n        Plan.owners = new address[](numOfParties);\n        Plan.owners[0] = 0xb2C6709463c084b00Db413488f5D6677C39d27BE;\n        Plan.owners[1] = 0xB53A4E90b720c68d5BeB996739c2BAA4fcBD10B6;\n        Plan.owners[2] = 0x42033Ed8A06DF40Fd4933F5D03E2558aE1412f15;\n        Plan.restaurants = new address[](numOfParties);\n        Plan.restaurants[0] = 0x5E3263F3259F5e30F5Ad31e1055433E006517d18;\n        Plan.restaurants[1] = 0xe2fb20706A4C08129DF1375f584C6cb4f4459fab;\n        Plan.restaurants[2] = 0x42033Ed8A06DF40Fd4933F5D03E2558aE1412f15;\n        Plan.signature = new bool[](numOfParties);\n        Plan.signature[0] = true;\n        Plan.signature[1] = true;\n        Plan.signature[2] = true;\n        Plan.active = true;\n        Plan.minSpentAmtList = new uint[](numOfParties);\n        Plan.minSpentAmtList[0] = 100;\n        Plan.minSpentAmtList[1] = 100;\n        Plan.minSpentAmtList[2] = 100;\n        Plan.discountAmtList = new uint[](numOfParties);\n        Plan.discountAmtList[0] = 20;\n        Plan.discountAmtList[1] = 20;\n        Plan.discountAmtList[2] = 20;\n        Plan.startDate = now;\n        Plan.endDate = now.add(1 years);\n        Plan.monthlyFee = 120;\n        queryPlan[currentPlanNo] = Plan;\n    }\n\n\n}\n",
  "sourcePath": "/Users/noahkim/Documents/College/preps_v2/src/preps/src/core/contracts/MembershipRepository.sol",
  "compiler": {
    "name": "solc",
    "version": "0.4.24+commit.e67f0147.Emscripten.clang"
  },
  "schemaVersion": "2.0.1",
  "updatedAt": "2019-04-06T08:57:33.184Z"
}