{
  "contractName": "RestaurantRepository",
  "abi": [
    {
      "inputs": [],
      "payable": false,
      "stateMutability": "nonpayable",
      "type": "constructor"
    },
    {
      "anonymous": false,
      "inputs": [
        {
          "indexed": false,
          "name": "restaurant",
          "type": "address"
        },
        {
          "indexed": false,
          "name": "payer",
          "type": "address"
        },
        {
          "indexed": false,
          "name": "orderNo",
          "type": "uint256"
        }
      ],
      "name": "PaidOrder",
      "type": "event"
    },
    {
      "constant": false,
      "inputs": [
        {
          "name": "_name",
          "type": "string"
        },
        {
          "name": "_desc",
          "type": "string"
        },
        {
          "name": "_contact",
          "type": "string"
        },
        {
          "name": "_imgURL",
          "type": "string"
        },
        {
          "name": "_numOfTables",
          "type": "uint256"
        }
      ],
      "name": "registerRestaurant",
      "outputs": [
        {
          "name": "",
          "type": "address"
        }
      ],
      "payable": false,
      "stateMutability": "nonpayable",
      "type": "function"
    },
    {
      "constant": false,
      "inputs": [
        {
          "name": "owner",
          "type": "address"
        },
        {
          "name": "_name",
          "type": "string"
        },
        {
          "name": "_desc",
          "type": "string"
        },
        {
          "name": "_contact",
          "type": "string"
        },
        {
          "name": "_imgURL",
          "type": "string"
        },
        {
          "name": "_numOfTables",
          "type": "uint256"
        }
      ],
      "name": "registerRestaurantForTest",
      "outputs": [
        {
          "name": "",
          "type": "address"
        }
      ],
      "payable": false,
      "stateMutability": "nonpayable",
      "type": "function"
    },
    {
      "constant": false,
      "inputs": [
        {
          "name": "repositoryAddress",
          "type": "address"
        }
      ],
      "name": "setMembershipRepository",
      "outputs": [],
      "payable": false,
      "stateMutability": "nonpayable",
      "type": "function"
    },
    {
      "constant": false,
      "inputs": [
        {
          "name": "repositoryAddress",
          "type": "address"
        }
      ],
      "name": "setCommentRepository",
      "outputs": [],
      "payable": false,
      "stateMutability": "nonpayable",
      "type": "function"
    },
    {
      "constant": true,
      "inputs": [
        {
          "name": "owner",
          "type": "address"
        }
      ],
      "name": "isOwner",
      "outputs": [
        {
          "name": "",
          "type": "bool"
        }
      ],
      "payable": false,
      "stateMutability": "view",
      "type": "function"
    },
    {
      "constant": true,
      "inputs": [
        {
          "name": "owner",
          "type": "address"
        }
      ],
      "name": "getRestaurantAddress",
      "outputs": [
        {
          "name": "",
          "type": "address"
        }
      ],
      "payable": false,
      "stateMutability": "view",
      "type": "function"
    },
    {
      "constant": true,
      "inputs": [],
      "name": "getRestaurantAddressList",
      "outputs": [
        {
          "name": "",
          "type": "address[]"
        }
      ],
      "payable": false,
      "stateMutability": "view",
      "type": "function"
    },
    {
      "constant": true,
      "inputs": [
        {
          "name": "addr",
          "type": "address"
        }
      ],
      "name": "isRegisteredRestaurant",
      "outputs": [
        {
          "name": "",
          "type": "bool"
        }
      ],
      "payable": false,
      "stateMutability": "view",
      "type": "function"
    },
    {
      "constant": false,
      "inputs": [
        {
          "name": "payer",
          "type": "address"
        }
      ],
      "name": "setVisitedRestaurant",
      "outputs": [],
      "payable": false,
      "stateMutability": "nonpayable",
      "type": "function"
    },
    {
      "constant": false,
      "inputs": [
        {
          "name": "payer",
          "type": "address"
        }
      ],
      "name": "removeVisitedRestaurant",
      "outputs": [],
      "payable": false,
      "stateMutability": "nonpayable",
      "type": "function"
    },
    {
      "constant": true,
      "inputs": [
        {
          "name": "addr",
          "type": "address"
        }
      ],
      "name": "getVisitedRestaurant",
      "outputs": [
        {
          "name": "",
          "type": "address"
        }
      ],
      "payable": false,
      "stateMutability": "view",
      "type": "function"
    },
    {
      "constant": false,
      "inputs": [
        {
          "name": "payer",
          "type": "address"
        },
        {
          "name": "orderNo",
          "type": "uint256"
        }
      ],
      "name": "informOrderPaid",
      "outputs": [],
      "payable": false,
      "stateMutability": "nonpayable",
      "type": "function"
    }
  ],
  "bytecode": "0x608060405234801561001057600080fd5b50615706806100206000396000f300608060405260043610620000c7576000357c0100000000000000000000000000000000000000000000000000000000900463ffffffff168063234b185014620000cc5780632f54bf6e14620001125780633ddadf7c1462000170578063465cbd6714620001f65780634b035bea146200027c57806356baf8a114620002c25780638a7169c0146200044a5780639268683214620004bb578063a67514261462000519578063d0e314f4146200055f578063df721e7f14620005af578063f1b2685914620005f5575b600080fd5b348015620000d957600080fd5b5062000110600480360381019080803573ffffffffffffffffffffffffffffffffffffffff1690602001909291905050506200079d565b005b3480156200011f57600080fd5b5062000156600480360381019080803573ffffffffffffffffffffffffffffffffffffffff16906020019092919050505062000835565b604051808215151515815260200191505060405180910390f35b3480156200017d57600080fd5b50620001b4600480360381019080803573ffffffffffffffffffffffffffffffffffffffff169060200190929190505050620008cc565b604051808273ffffffffffffffffffffffffffffffffffffffff1673ffffffffffffffffffffffffffffffffffffffff16815260200191505060405180910390f35b3480156200020357600080fd5b506200023a600480360381019080803573ffffffffffffffffffffffffffffffffffffffff16906020019092919050505062000935565b604051808273ffffffffffffffffffffffffffffffffffffffff1673ffffffffffffffffffffffffffffffffffffffff16815260200191505060405180910390f35b3480156200028957600080fd5b50620002c0600480360381019080803573ffffffffffffffffffffffffffffffffffffffff169060200190929190505050620009b4565b005b348015620002cf57600080fd5b5062000408600480360381019080803590602001908201803590602001908080601f0160208091040260200160405190810160405280939291908181526020018383808284378201915050505050509192919290803590602001908201803590602001908080601f0160208091040260200160405190810160405280939291908181526020018383808284378201915050505050509192919290803590602001908201803590602001908080601f0160208091040260200160405190810160405280939291908181526020018383808284378201915050505050509192919290803590602001908201803590602001908080601f01602080910402602001604051908101604052809392919081815260200183838082843782019150505050505091929192908035906020019092919050505062000a56565b604051808273ffffffffffffffffffffffffffffffffffffffff1673ffffffffffffffffffffffffffffffffffffffff16815260200191505060405180910390f35b3480156200045757600080fd5b506200046262000ec8565b6040518080602001828103825283818151815260200191508051906020019060200280838360005b83811015620004a75780820151818401526020810190506200048a565b505050509050019250505060405180910390f35b348015620004c857600080fd5b50620004ff600480360381019080803573ffffffffffffffffffffffffffffffffffffffff16906020019092919050505062000f58565b604051808215151515815260200191505060405180910390f35b3480156200052657600080fd5b506200055d600480360381019080803573ffffffffffffffffffffffffffffffffffffffff16906020019092919050505062001018565b005b3480156200056c57600080fd5b50620005ad600480360381019080803573ffffffffffffffffffffffffffffffffffffffff16906020019092919080359060200190929190505050620010b1565b005b348015620005bc57600080fd5b50620005f3600480360381019080803573ffffffffffffffffffffffffffffffffffffffff1690602001909291905050506200116b565b005b3480156200060257600080fd5b506200075b600480360381019080803573ffffffffffffffffffffffffffffffffffffffff169060200190929190803590602001908201803590602001908080601f0160208091040260200160405190810160405280939291908181526020018383808284378201915050505050509192919290803590602001908201803590602001908080601f0160208091040260200160405190810160405280939291908181526020018383808284378201915050505050509192919290803590602001908201803590602001908080601f0160208091040260200160405190810160405280939291908181526020018383808284378201915050505050509192919290803590602001908201803590602001908080601f0160208091040260200160405190810160405280939291908181526020018383808284378201915050505050509192919290803590602001909291905050506200120d565b604051808273ffffffffffffffffffffffffffffffffffffffff1673ffffffffffffffffffffffffffffffffffffffff16815260200191505060405180910390f35b620007a83362000f58565b1515620007b457600080fd5b33600460008373ffffffffffffffffffffffffffffffffffffffff1673ffffffffffffffffffffffffffffffffffffffff16815260200190815260200160002060006101000a81548173ffffffffffffffffffffffffffffffffffffffff021916908373ffffffffffffffffffffffffffffffffffffffff16021790555050565b60008073ffffffffffffffffffffffffffffffffffffffff166000808473ffffffffffffffffffffffffffffffffffffffff1673ffffffffffffffffffffffffffffffffffffffff16815260200190815260200160002060009054906101000a900473ffffffffffffffffffffffffffffffffffffffff1673ffffffffffffffffffffffffffffffffffffffff1614159050919050565b6000600460008373ffffffffffffffffffffffffffffffffffffffff1673ffffffffffffffffffffffffffffffffffffffff16815260200190815260200160002060009054906101000a900473ffffffffffffffffffffffffffffffffffffffff169050919050565b6000620009428262000835565b15156200094e57600080fd5b6000808373ffffffffffffffffffffffffffffffffffffffff1673ffffffffffffffffffffffffffffffffffffffff16815260200190815260200160002060009054906101000a900473ffffffffffffffffffffffffffffffffffffffff169050919050565b600073ffffffffffffffffffffffffffffffffffffffff16600260009054906101000a900473ffffffffffffffffffffffffffffffffffffffff1673ffffffffffffffffffffffffffffffffffffffff1614151562000a1257600080fd5b80600260006101000a81548173ffffffffffffffffffffffffffffffffffffffff021916908373ffffffffffffffffffffffffffffffffffffffff16021790555050565b60008060008311151562000a6957600080fd5b600073ffffffffffffffffffffffffffffffffffffffff166000803373ffffffffffffffffffffffffffffffffffffffff1673ffffffffffffffffffffffffffffffffffffffff16815260200190815260200160002060009054906101000a900473ffffffffffffffffffffffffffffffffffffffff1673ffffffffffffffffffffffffffffffffffffffff1614151562000b0357600080fd5b338787878787600260009054906101000a900473ffffffffffffffffffffffffffffffffffffffff16600360009054906101000a900473ffffffffffffffffffffffffffffffffffffffff1662000b5962001680565b808973ffffffffffffffffffffffffffffffffffffffff1673ffffffffffffffffffffffffffffffffffffffff168152602001806020018060200180602001806020018881526020018773ffffffffffffffffffffffffffffffffffffffff1673ffffffffffffffffffffffffffffffffffffffff1681526020018673ffffffffffffffffffffffffffffffffffffffff1673ffffffffffffffffffffffffffffffffffffffff16815260200185810385528c818151815260200191508051906020019080838360005b8381101562000c4057808201518184015260208101905062000c23565b50505050905090810190601f16801562000c6e5780820380516001836020036101000a031916815260200191505b5085810384528b818151815260200191508051906020019080838360005b8381101562000ca957808201518184015260208101905062000c8c565b50505050905090810190601f16801562000cd75780820380516001836020036101000a031916815260200191505b5085810383528a818151815260200191508051906020019080838360005b8381101562000d1257808201518184015260208101905062000cf5565b50505050905090810190601f16801562000d405780820380516001836020036101000a031916815260200191505b50858103825289818151815260200191508051906020019080838360005b8381101562000d7b57808201518184015260208101905062000d5e565b50505050905090810190601f16801562000da95780820380516001836020036101000a031916815260200191505b509c50505050505050505050505050604051809103906000f08015801562000dd5573d6000803e3d6000fd5b509050806000803373ffffffffffffffffffffffffffffffffffffffff1673ffffffffffffffffffffffffffffffffffffffff16815260200190815260200160002060006101000a81548173ffffffffffffffffffffffffffffffffffffffff021916908373ffffffffffffffffffffffffffffffffffffffff16021790555060018190806001815401808255809150509060018203906000526020600020016000909192909190916101000a81548173ffffffffffffffffffffffffffffffffffffffff021916908373ffffffffffffffffffffffffffffffffffffffff160217905550508091505095945050505050565b6060600180548060200260200160405190810160405280929190818152602001828054801562000f4e57602002820191906000526020600020905b8160009054906101000a900473ffffffffffffffffffffffffffffffffffffffff1673ffffffffffffffffffffffffffffffffffffffff168152602001906001019080831162000f03575b5050505050905090565b60008060008391508173ffffffffffffffffffffffffffffffffffffffff16630c4f65bd6040518163ffffffff167c0100000000000000000000000000000000000000000000000000000000028152600401602060405180830381600087803b15801562000fc557600080fd5b505af115801562000fda573d6000803e3d6000fd5b505050506040513d602081101562000ff157600080fd5b810190808051906020019092919050505090506200100f8162000835565b92505050919050565b620010233362000f58565b15156200102f57600080fd5b6000600460008373ffffffffffffffffffffffffffffffffffffffff1673ffffffffffffffffffffffffffffffffffffffff16815260200190815260200160002060006101000a81548173ffffffffffffffffffffffffffffffffffffffff021916908373ffffffffffffffffffffffffffffffffffffffff16021790555050565b620010bc3362000f58565b1515620010c857600080fd5b7f9401eb2eee112cf064424252893cfb3c017f15304636d37d7a2ba143bc76ec73338383604051808473ffffffffffffffffffffffffffffffffffffffff1673ffffffffffffffffffffffffffffffffffffffff1681526020018373ffffffffffffffffffffffffffffffffffffffff1673ffffffffffffffffffffffffffffffffffffffff168152602001828152602001935050505060405180910390a15050565b600073ffffffffffffffffffffffffffffffffffffffff16600360009054906101000a900473ffffffffffffffffffffffffffffffffffffffff1673ffffffffffffffffffffffffffffffffffffffff16141515620011c957600080fd5b80600360006101000a81548173ffffffffffffffffffffffffffffffffffffffff021916908373ffffffffffffffffffffffffffffffffffffffff16021790555050565b6000806000831115156200122057600080fd5b600073ffffffffffffffffffffffffffffffffffffffff166000808a73ffffffffffffffffffffffffffffffffffffffff1673ffffffffffffffffffffffffffffffffffffffff16815260200190815260200160002060009054906101000a900473ffffffffffffffffffffffffffffffffffffffff1673ffffffffffffffffffffffffffffffffffffffff16141515620012ba57600080fd5b878787878787600260009054906101000a900473ffffffffffffffffffffffffffffffffffffffff16600360009054906101000a900473ffffffffffffffffffffffffffffffffffffffff166200131062001680565b808973ffffffffffffffffffffffffffffffffffffffff1673ffffffffffffffffffffffffffffffffffffffff168152602001806020018060200180602001806020018881526020018773ffffffffffffffffffffffffffffffffffffffff1673ffffffffffffffffffffffffffffffffffffffff1681526020018673ffffffffffffffffffffffffffffffffffffffff1673ffffffffffffffffffffffffffffffffffffffff16815260200185810385528c818151815260200191508051906020019080838360005b83811015620013f7578082015181840152602081019050620013da565b50505050905090810190601f168015620014255780820380516001836020036101000a031916815260200191505b5085810384528b818151815260200191508051906020019080838360005b838110156200146057808201518184015260208101905062001443565b50505050905090810190601f1680156200148e5780820380516001836020036101000a031916815260200191505b5085810383528a818151815260200191508051906020019080838360005b83811015620014c9578082015181840152602081019050620014ac565b50505050905090810190601f168015620014f75780820380516001836020036101000a031916815260200191505b50858103825289818151815260200191508051906020019080838360005b838110156200153257808201518184015260208101905062001515565b50505050905090810190601f168015620015605780820380516001836020036101000a031916815260200191505b509c50505050505050505050505050604051809103906000f0801580156200158c573d6000803e3d6000fd5b509050806000808a73ffffffffffffffffffffffffffffffffffffffff1673ffffffffffffffffffffffffffffffffffffffff16815260200190815260200160002060006101000a81548173ffffffffffffffffffffffffffffffffffffffff021916908373ffffffffffffffffffffffffffffffffffffffff16021790555060018190806001815401808255809150509060018203906000526020600020016000909192909190916101000a81548173ffffffffffffffffffffffffffffffffffffffff021916908373ffffffffffffffffffffffffffffffffffffffff16021790555050809150509695505050505050565b604051614049806200169283390190560060806040523480156200001157600080fd5b5060405162004049380380620040498339810180604052810190808051906020019092919080518201929190602001805182019291906020018051820192919060200180518201929190602001805190602001909291908051906020019092919080519060200190929190505050336000806101000a81548173ffffffffffffffffffffffffffffffffffffffff021916908373ffffffffffffffffffffffffffffffffffffffff16021790555081600160006101000a81548173ffffffffffffffffffffffffffffffffffffffff021916908373ffffffffffffffffffffffffffffffffffffffff16021790555087600560006101000a81548173ffffffffffffffffffffffffffffffffffffffff021916908373ffffffffffffffffffffffffffffffffffffffff16021790555086600390805190602001906200015992919062000216565b5085600490805190602001906200017292919062000216565b5084600690805190602001906200018b92919062000216565b508360079080519060200190620001a492919062000216565b506000601460006101000a81548160ff0219169083151502179055508260088190555080600260006101000a81548173ffffffffffffffffffffffffffffffffffffffff021916908373ffffffffffffffffffffffffffffffffffffffff1602179055505050505050505050620002c5565b828054600181600116156101000203166002900490600052602060002090601f016020900481019282601f106200025957805160ff19168380011785556200028a565b828001600101855582156200028a579182015b82811115620002895782518255916020019190600101906200026c565b5b5090506200029991906200029d565b5090565b620002c291905b80821115620002be576000816000905550600101620002a4565b5090565b90565b613d7480620002d56000396000f3006080604052600436106101d8576000357c0100000000000000000000000000000000000000000000000000000000900463ffffffff1680630b9362a2146101dd5780630c4f65bd146102495780630cd0fe86146102a05780630d94bed5146102cd5780630dd7cba9146102fa57806312065fe01461043f57806321bd3bec1461046a57806321ed0f6414610573578063249f748e146105a0578063282c4161146105d7578063290bb4531461062e57806334b1b7c2146106975780633ca14969146107035780633cbeb84b1461073257806340fcf56b146107a957806343d726d6146107f45780635edfe03c1461080b578063699028531461086257806370c3fa081461089157806372ad34e4146108bc57806379fbab91146108f357806386896d041461095f578063986646a7146109cb5780639ab35f8314610aca578063a0df976f14610b2b578063a373529014610b94578063add7d41d14610bb4578063ae0a2eb414610beb578063b1ef2d8b14610e04578063bc55491914610e86578063cd42bc1814610ec6578063ce8bb0bd14610ef1578063d09ef24114610f1e578063e8224de014611053578063f3cb8c311461109e578063f943eecd146110e1578063fcfff16f14611278578063fdfd7c981461128f575b600080fd5b3480156101e957600080fd5b506101f26112c2565b6040518080602001828103825283818151815260200191508051906020019060200280838360005b8381101561023557808201518184015260208101905061021a565b505050509050019250505060405180910390f35b34801561025557600080fd5b5061025e611350565b604051808273ffffffffffffffffffffffffffffffffffffffff1673ffffffffffffffffffffffffffffffffffffffff16815260200191505060405180910390f35b3480156102ac57600080fd5b506102cb6004803603810190808035906020019092919050505061137a565b005b3480156102d957600080fd5b506102f8600480360381019080803590602001909291905050506113ec565b005b34801561030657600080fd5b5061043d600480360381019080803590602001908201803590602001908080601f0160208091040260200160405190810160405280939291908181526020018383808284378201915050505050509192919290803590602001908201803590602001908080601f0160208091040260200160405190810160405280939291908181526020018383808284378201915050505050509192919290803590602001908201803590602001908080601f0160208091040260200160405190810160405280939291908181526020018383808284378201915050505050509192919290803590602001908201803590602001908080601f0160208091040260200160405190810160405280939291908181526020018383808284378201915050505050509192919290803590602001909291905050506114d1565b005b34801561044b57600080fd5b5061045461155d565b6040518082815260200191505060405180910390f35b34801561047657600080fd5b5061057160048036038101908080359060200190929190803590602001908201803590602001908080601f0160208091040260200160405190810160405280939291908181526020018383808284378201915050505050509192919290803590602001908201803590602001908080601f0160208091040260200160405190810160405280939291908181526020018383808284378201915050505050509192919290803590602001908201803590602001908080601f01602080910402602001604051908101604052809392919081815260200183838082843782019150505050505091929192908035906020019092919050505061157c565b005b34801561057f57600080fd5b5061059e600480360381019080803590602001909291905050506116f3565b005b3480156105ac57600080fd5b506105d560048036038101908080359060200190929190803590602001909291905050506117eb565b005b3480156105e357600080fd5b506105ec611a65565b604051808273ffffffffffffffffffffffffffffffffffffffff1673ffffffffffffffffffffffffffffffffffffffff16815260200191505060405180910390f35b34801561063a57600080fd5b50610695600480360381019080803590602001908201803590602001908080601f0160208091040260200160405190810160405280939291908181526020018383808284378201915050505050509192919290505050611a8e565b005b3480156106a357600080fd5b506106ac611b3d565b6040518080602001828103825283818151815260200191508051906020019060200280838360005b838110156106ef5780820151818401526020810190506106d4565b505050509050019250505060405180910390f35b34801561070f57600080fd5b50610718611b95565b604051808215151515815260200191505060405180910390f35b6107936004803603810190808035906020019092919080359060200190820180359060200190808060200260200160405190810160405280939291908181526020018383602002808284378201915050505050509192919290505050611bb5565b6040518082815260200191505060405180910390f35b3480156107b557600080fd5b506107f260048036038101908080359060200190929190803590602001909291908035906020019092919080359060200190929190505050612073565b005b34801561080057600080fd5b506108096120c3565b005b34801561081757600080fd5b506108206120e0565b604051808273ffffffffffffffffffffffffffffffffffffffff1673ffffffffffffffffffffffffffffffffffffffff16815260200191505060405180910390f35b34801561086e57600080fd5b5061087761210a565b604051808215151515815260200191505060405180910390f35b34801561089d57600080fd5b506108a6612119565b6040518082815260200191505060405180910390f35b3480156108c857600080fd5b506108f16004803603810190808035906020019092919080359060200190929190505050612160565b005b3480156108ff57600080fd5b5061090861236b565b6040518080602001828103825283818151815260200191508051906020019060200280838360005b8381101561094b578082015181840152602081019050610930565b505050509050019250505060405180910390f35b34801561096b57600080fd5b506109746123c3565b6040518080602001828103825283818151815260200191508051906020019060200280838360005b838110156109b757808201518184015260208101905061099c565b505050509050019250505060405180910390f35b3480156109d757600080fd5b50610ac8600480360381019080803590602001908201803590602001908080601f0160208091040260200160405190810160405280939291908181526020018383808284378201915050505050509192919290803590602001908201803590602001908080601f0160208091040260200160405190810160405280939291908181526020018383808284378201915050505050509192919290803590602001908201803590602001908080601f01602080910402602001604051908101604052809392919081815260200183838082843782019150505050505091929192908035906020019092919050505061241b565b005b348015610ad657600080fd5b50610b15600480360381019080803573ffffffffffffffffffffffffffffffffffffffff1690602001909291908035906020019092919050505061257e565b6040518082815260200191505060405180910390f35b348015610b3757600080fd5b50610b92600480360381019080803590602001908201803590602001908080601f01602080910402602001604051908101604052809392919081815260200183838082843782019150505050505091929192905050506126bc565b005b610bb2600480360381019080803590602001909291905050506127c0565b005b348015610bc057600080fd5b50610be96004803603810190808035906020019092919080359060200190929190505050612f39565b005b348015610bf757600080fd5b50610c00613146565b604051808873ffffffffffffffffffffffffffffffffffffffff1673ffffffffffffffffffffffffffffffffffffffff168152602001806020018060200180602001806020018781526020018615151515815260200185810385528b818151815260200191508051906020019080838360005b83811015610c8e578082015181840152602081019050610c73565b50505050905090810190601f168015610cbb5780820380516001836020036101000a031916815260200191505b5085810384528a818151815260200191508051906020019080838360005b83811015610cf4578082015181840152602081019050610cd9565b50505050905090810190601f168015610d215780820380516001836020036101000a031916815260200191505b50858103835289818151815260200191508051906020019080838360005b83811015610d5a578082015181840152602081019050610d3f565b50505050905090810190601f168015610d875780820380516001836020036101000a031916815260200191505b50858103825288818151815260200191508051906020019080838360005b83811015610dc0578082015181840152602081019050610da5565b50505050905090810190601f168015610ded5780820380516001836020036101000a031916815260200191505b509b50505050505050505050505060405180910390f35b348015610e1057600080fd5b50610e2f60048036038101908080359060200190929190505050613416565b6040518080602001828103825283818151815260200191508051906020019060200280838360005b83811015610e72578082015181840152602081019050610e57565b505050509050019250505060405180910390f35b348015610e9257600080fd5b50610e9b6134bc565b6040518085815260200184815260200183815260200182815260200194505050505060405180910390f35b348015610ed257600080fd5b50610edb6134e8565b6040518082815260200191505060405180910390f35b348015610efd57600080fd5b50610f1c600480360381019080803590602001909291905050506134f5565b005b348015610f2a57600080fd5b50610f496004803603810190808035906020019092919050505061353c565b604051808c81526020018b73ffffffffffffffffffffffffffffffffffffffff1673ffffffffffffffffffffffffffffffffffffffff1681526020018a81526020018981526020018881526020018060200187815260200186815260200185815260200184815260200180602001838103835289818151815260200191508051906020019060200280838360005b83811015610ff2578082015181840152602081019050610fd7565b50505050905001838103825284818151815260200191508051906020019060200280838360005b83811015611034578082015181840152602081019050611019565b505050509050019d505050505050505050505050505060405180910390f35b34801561105f57600080fd5b50611088600480360381019080803590602001909291908035906020019092919050505061364e565b6040518082815260200191505060405180910390f35b3480156110aa57600080fd5b506110df600480360381019080803573ffffffffffffffffffffffffffffffffffffffff169060200190929190505050613695565b005b3480156110ed57600080fd5b5061110c600480360381019080803590602001909291905050506137b5565b6040518087815260200180602001806020018060200186151515158152602001858152602001848103845289818151815260200191508051906020019080838360005b8381101561116a57808201518184015260208101905061114f565b50505050905090810190601f1680156111975780820380516001836020036101000a031916815260200191505b50848103835288818151815260200191508051906020019080838360005b838110156111d05780820151818401526020810190506111b5565b50505050905090810190601f1680156111fd5780820380516001836020036101000a031916815260200191505b50848103825287818151815260200191508051906020019080838360005b8381101561123657808201518184015260208101905061121b565b50505050905090810190601f1680156112635780820380516001836020036101000a031916815260200191505b50995050505050505050505060405180910390f35b34801561128457600080fd5b5061128d6139e8565b005b34801561129b57600080fd5b506112a4613a27565b60405180826000191660001916815260200191505060405180910390f35b6060600980548060200260200160405190810160405280929190818152602001828054801561134657602002820191906000526020600020905b8160009054906101000a900473ffffffffffffffffffffffffffffffffffffffff1673ffffffffffffffffffffffffffffffffffffffff16815260200190600101908083116112fc575b5050505050905090565b6000600560009054906101000a900473ffffffffffffffffffffffffffffffffffffffff16905090565b6000600b600083815260200190815260200160002090508060040160009054906101000a900460ff16156113ca5760008160040160006101000a81548160ff0219169083151502179055506113e8565b60018160040160006101000a81548160ff0219169083151502179055505b5050565b60008060001515601460009054906101000a900460ff16151514151561141157600080fd5b60009150600090505b600a805490508110156114c05782600a8281548110151561143757fe5b906000526020600020015414156114b35760019150600a6001600a805490500381548110151561146357fe5b9060005260206000200154600a8281548110151561147d57fe5b90600052602060002001819055506114a46001600a80549050613a3190919063ffffffff16565b600a816114b19190613adb565b505b808060010191505061141a565b8115156114cc57600080fd5b505050565b60001515601460009054906101000a900460ff1615151415156114f357600080fd5b8460039080519060200190611509929190613b07565b508360049080519060200190611520929190613b07565b508260069080519060200190611537929190613b07565b50816007908051906020019061154e929190613b07565b50806008819055505050505050565b60003073ffffffffffffffffffffffffffffffffffffffff1631905090565b60008060001515601460009054906101000a900460ff1615151415156115a157600080fd5b60009150600090505b600a805490508110156116de5786600a828154811015156115c757fe5b906000526020600020015414156116d1576001915060c060405190810160405280888152602001878152602001868152602001858152602001600b60008a815260200190815260200160002060040160009054906101000a900460ff161515815260200184815250600b6000898152602001908152602001600020600082015181600001556020820151816001019080519060200190611668929190613b87565b506040820151816002019080519060200190611685929190613b87565b5060608201518160030190805190602001906116a2929190613b87565b5060808201518160040160006101000a81548160ff02191690831515021790555060a082015181600501559050505b80806001019150506115aa565b8115156116ea57600080fd5b50505050505050565b60001515601460009054906101000a900460ff16151514151561171557600080fd5b6009805490508110151561172857600080fd5b600960016009805490500381548110151561173f57fe5b9060005260206000200160009054906101000a900473ffffffffffffffffffffffffffffffffffffffff1660098281548110151561177957fe5b9060005260206000200160006101000a81548173ffffffffffffffffffffffffffffffffffffffff021916908373ffffffffffffffffffffffffffffffffffffffff1602179055506117da6001600980549050613a3190919063ffffffff16565b6009816117e79190613c07565b5050565b600080600060011515601460009054906101000a900460ff16151514151561181257600080fd5b8484600060126000848152602001908152602001600020600001541180156118525750806012600084815260200190815260200160002060050180549050115b8015611874575060006012600084815260200190815260200160002060030154145b151561187f57600080fd5b60126000888152602001908152602001600020945060136000888152602001908152602001600020600087815260200190815260200160002060009054906101000a900460ff169350600060048111156118d557fe5b8460048111156118e157fe5b14806119035750600160048111156118f557fe5b84600481111561190157fe5b145b151561190e57600080fd5b846005018681548110151561191f57fe5b906000526020600020015492506000600481111561193957fe5b84600481111561194557fe5b141561198557611978600b6000858152602001908152602001600020600501548660070154613a5290919063ffffffff16565b85600701819055506119ce565b6119c56119b26002600b600087815260200190815260200160002060050154613a7390919063ffffffff16565b8660070154613a5290919063ffffffff16565b85600701819055505b600260136000898152602001908152602001600020600088815260200190815260200160002060006101000a81548160ff02191690836004811115611a0f57fe5b02179055507f6268dfae090a8e5f077f6d575fdfa2c0811ed556ce19184492bfb265039c47608742604051808381526020018281526020019250505060405180910390a1611a5c876127c0565b50505050505050565b60008060009054906101000a900473ffffffffffffffffffffffffffffffffffffffff16905090565b6002816040518082805190602001908083835b602083101515611ac65780518252602082019150602081019050602083039250611aa1565b6001836020036101000a0380198251168184511680821785525050505050509050019150506020604051808303816000865af1158015611b0a573d6000803e3d6000fd5b5050506040513d6020811015611b1f57600080fd5b81019080805190602001909291905050506010816000191690555050565b6060600e805480602002602001604051908101604052809291908181526020018280548015611b8b57602002820191906000526020600020905b815481526020019060010190808311611b77575b5050505050905090565b600080601560020154138015611bb057506000601560000154135b905090565b6000806000806000611bc5613c33565b60011515601460009054906101000a900460ff161515141515611be757600080fd5b87600081118015611bfa57506008548111155b1515611c0557600080fd5b6000955042601160003373ffffffffffffffffffffffffffffffffffffffff1673ffffffffffffffffffffffffffffffffffffffff16815260200190815260200160002054111515611c5657600080fd5b600094505b8751851015611d6d5760009350600092505b600a80549050831015611d5457600a83815481101515611c8957fe5b90600052602060002001548886815181101515611ca257fe5b906020019060200201511415611d475760019350600b6000600a85815481101515611cc957fe5b9060005260206000200154815260200190815260200160002060040160009054906101000a900460ff161515611cfe57600080fd5b611d40600b6000600a86815481101515611d1457fe5b906000526020600020015481526020019081526020016000206005015487613a5290919063ffffffff16565b9550611d54565b8280600101935050611c6d565b831515611d6057600080fd5b8480600101955050611c5b565b611d88670de0b6b3a764000087613a9d90919063ffffffff16565b34141515611d9557600080fd5b3073ffffffffffffffffffffffffffffffffffffffff166108fc349081150290604051600060405180830381858888f1935050505050611de16001600d54613a5290919063ffffffff16565b600d8190555061014060405190810160405280600d5481526020013373ffffffffffffffffffffffffffffffffffffffff168152602001428152602001600081526020018a81526020018981526020018781526020016000815260200160008152602001600081525091508160126000600d5481526020019081526020016000206000820151816000015560208201518160010160006101000a81548173ffffffffffffffffffffffffffffffffffffffff021916908373ffffffffffffffffffffffffffffffffffffffff16021790555060408201518160020155606082015181600301556080820151816004015560a0820151816005019080519060200190611eed929190613c9d565b5060c0820151816006015560e0820151816007015561010082015181600801556101208201518160090155905050600e600d5490806001815401808255809150509060018203906000526020600020016000909192909190915055506000809054906101000a900473ffffffffffffffffffffffffffffffffffffffff1673ffffffffffffffffffffffffffffffffffffffff1663234b185083602001516040518263ffffffff167c0100000000000000000000000000000000000000000000000000000000028152600401808273ffffffffffffffffffffffffffffffffffffffff1673ffffffffffffffffffffffffffffffffffffffff168152602001915050600060405180830381600087803b15801561200957600080fd5b505af115801561201d573d6000803e3d6000fd5b505050507fa8e6270d089961394d47c9439cc915b4dd3a0228f301d98cd623c4e44fede679600d5442604051808381526020018281526020019250505060405180910390a1600d54965050505050505092915050565b60001515601460009054906101000a900460ff16151514151561209557600080fd5b8360156000018190555082601560010181905550816015600201819055508060156003018190555050505050565b6000601460006101000a81548160ff021916908315150217905550565b6000600160009054906101000a900473ffffffffffffffffffffffffffffffffffffffff16905090565b600080600a8054905011905090565b6000601160003373ffffffffffffffffffffffffffffffffffffffff1673ffffffffffffffffffffffffffffffffffffffff16815260200190815260200160002054905090565b600060011515601460009054906101000a900460ff16151514151561218457600080fd5b8282600060126000848152602001908152602001600020600001541180156121c45750806012600084815260200190815260200160002060050180549050115b80156121e6575060006012600084815260200190815260200160002060030154145b15156121f157600080fd5b60136000868152602001908152602001600020600085815260200190815260200160002060009054906101000a900460ff1692506000600481111561223257fe5b83600481111561223e57fe5b148061226057506001600481111561225257fe5b83600481111561225e57fe5b145b151561226b57600080fd5b6000600481111561227857fe5b83600481111561228457fe5b14156122d557600160136000878152602001908152602001600020600086815260200190815260200160002060006101000a81548160ff021916908360048111156122cb57fe5b021790555061231c565b600460136000878152602001908152602001600020600086815260200190815260200160002060006101000a81548160ff0219169083600481111561231657fe5b02179055505b7f6268dfae090a8e5f077f6d575fdfa2c0811ed556ce19184492bfb265039c47608542604051808381526020018281526020019250505060405180910390a1612364856127c0565b5050505050565b6060600f8054806020026020016040519081016040528092919081815260200182805480156123b957602002820191906000526020600020905b8154815260200190600101908083116123a5575b5050505050905090565b6060600a80548060200260200160405190810160405280929190818152602001828054801561241157602002820191906000526020600020905b8154815260200190600101908083116123fd575b5050505050905090565b612423613cea565b60001515601460009054906101000a900460ff16151514151561244557600080fd5b60008211151561245457600080fd5b61246a6001600c54613a5290919063ffffffff16565b600c8190555060c060405190810160405280600c548152602001868152602001858152602001848152602001600115158152602001838152509050600a600c54908060018154018082558091505090600182039060005260206000200160009091929091909150555080600b6000600c54815260200190815260200160002060008201518160000155602082015181600101908051906020019061250f929190613b87565b50604082015181600201908051906020019061252c929190613b87565b506060820151816003019080519060200190612549929190613b87565b5060808201518160040160006101000a81548160ff02191690831515021790555060a082015181600501559050505050505050565b6000600160009054906101000a900473ffffffffffffffffffffffffffffffffffffffff1673ffffffffffffffffffffffffffffffffffffffff1663acd1ddc88484306040518463ffffffff167c0100000000000000000000000000000000000000000000000000000000028152600401808473ffffffffffffffffffffffffffffffffffffffff1673ffffffffffffffffffffffffffffffffffffffff1681526020018381526020018273ffffffffffffffffffffffffffffffffffffffff1673ffffffffffffffffffffffffffffffffffffffff1681526020019350505050602060405180830381600087803b15801561267957600080fd5b505af115801561268d573d6000803e3d6000fd5b505050506040513d60208110156126a357600080fd5b8101908080519060200190929190505050905092915050565b6002816040518082805190602001908083835b6020831015156126f457805182526020820191506020810190506020830392506126cf565b6001836020036101000a0380198251168184511680821785525050505050509050019150506020604051808303816000865af1158015612738573d6000803e3d6000fd5b5050506040513d602081101561274d57600080fd5b8101908080519060200190929190505050600019166010546000191614151561277557600080fd5b610e104201601160003373ffffffffffffffffffffffffffffffffffffffff1673ffffffffffffffffffffffffffffffffffffffff1681526020019081526020016000208190555050565b6000806000806000806000806000601260008b81526020019081526020016000209850600089600301541415156127f657600080fd5b60019750600096505b886005018054905087101561289457601360008b8152602001908152602001600020600088815260200190815260200160002060009054906101000a900460ff1695506000600481111561284f57fe5b86600481111561285b57fe5b148061287d57506001600481111561286f57fe5b86600481111561287b57fe5b145b1561288757600097505b86806001019750506127ff565b8715612f2d576128b589600701548a60060154613a3190919063ffffffff16565b94506128e58960010160009054906101000a900473ffffffffffffffffffffffffffffffffffffffff168661257e565b8960080181905550612904896008015486613a3190919063ffffffff16565b896009018190555061292789600901548a60060154613a3190919063ffffffff16565b9350600560009054906101000a900473ffffffffffffffffffffffffffffffffffffffff1673ffffffffffffffffffffffffffffffffffffffff166108fc612984670de0b6b3a76400008c60090154613a9d90919063ffffffff16565b9081150290604051600060405180830381858888f19350505050508860010160009054906101000a900473ffffffffffffffffffffffffffffffffffffffff1673ffffffffffffffffffffffffffffffffffffffff166108fc612a12670de0b6b3a7640000612a048d600801548e60070154613a5290919063ffffffff16565b613a9d90919063ffffffff16565b9081150290604051600060405180830381858888f19350505050504289600301819055507f7c3f93091d6a13e0438473f0d6ba31c52b56b0c08e0220f29ef563a5ab833a0a8a42604051808381526020018281526020019250505060405180910390a1600260009054906101000a900473ffffffffffffffffffffffffffffffffffffffff1673ffffffffffffffffffffffffffffffffffffffff1663b1243af08a60010160009054906101000a900473ffffffffffffffffffffffffffffffffffffffff166040518263ffffffff167c0100000000000000000000000000000000000000000000000000000000028152600401808273ffffffffffffffffffffffffffffffffffffffff1673ffffffffffffffffffffffffffffffffffffffff168152602001915050600060405180830381600087803b158015612b5657600080fd5b505af1158015612b6a573d6000803e3d6000fd5b50505050600092505b600e80549050831015612c5a5789600e84815481101515612b9057fe5b90600052602060002001541415612c4d57600f600e84815481101515612bb257fe5b90600052602060002001549080600181540180825580915050906001820390600052602060002001600090919290919091505550600e6001600e8054905003815481101515612bfd57fe5b9060005260206000200154600e84815481101515612c1757fe5b9060005260206000200181905550612c3e6001600e80549050613a3190919063ffffffff16565b600e81612c4b9190613adb565b505b8280600101935050612b73565b60019150600090505b600e80549050811015612d2d578860010160009054906101000a900473ffffffffffffffffffffffffffffffffffffffff1673ffffffffffffffffffffffffffffffffffffffff1660126000600e84815481101515612cbe57fe5b9060005260206000200154815260200190815260200160002060010160009054906101000a900473ffffffffffffffffffffffffffffffffffffffff1673ffffffffffffffffffffffffffffffffffffffff161415612d205760009150612d2d565b8080600101915050612c63565b8115612e2c576000809054906101000a900473ffffffffffffffffffffffffffffffffffffffff1673ffffffffffffffffffffffffffffffffffffffff1663a67514268a60010160009054906101000a900473ffffffffffffffffffffffffffffffffffffffff166040518263ffffffff167c0100000000000000000000000000000000000000000000000000000000028152600401808273ffffffffffffffffffffffffffffffffffffffff1673ffffffffffffffffffffffffffffffffffffffff168152602001915050600060405180830381600087803b158015612e1357600080fd5b505af1158015612e27573d6000803e3d6000fd5b505050505b6000809054906101000a900473ffffffffffffffffffffffffffffffffffffffff1673ffffffffffffffffffffffffffffffffffffffff1663d0e314f48a60010160009054906101000a900473ffffffffffffffffffffffffffffffffffffffff168c6040518363ffffffff167c0100000000000000000000000000000000000000000000000000000000028152600401808373ffffffffffffffffffffffffffffffffffffffff1673ffffffffffffffffffffffffffffffffffffffff16815260200182815260200192505050600060405180830381600087803b158015612f1457600080fd5b505af1158015612f28573d6000803e3d6000fd5b505050505b50505050505050505050565b600080600060011515601460009054906101000a900460ff161515141515612f6057600080fd5b848460006012600084815260200190815260200160002060000154118015612fa05750806012600084815260200190815260200160002060050180549050115b8015612fc2575060006012600084815260200190815260200160002060030154145b1515612fcd57600080fd5b60126000888152602001908152602001600020945060136000888152602001908152602001600020600087815260200190815260200160002060009054906101000a900460ff1693506000600481111561302357fe5b84600481111561302f57fe5b148061305157506001600481111561304357fe5b84600481111561304f57fe5b145b151561305c57600080fd5b846005018681548110151561306d57fe5b906000526020600020015492506130a7600b6000858152602001908152602001600020600501548660070154613a5290919063ffffffff16565b8560070181905550600360136000898152602001908152602001600020600088815260200190815260200160002060006101000a81548160ff021916908360048111156130f057fe5b02179055507f6268dfae090a8e5f077f6d575fdfa2c0811ed556ce19184492bfb265039c47608742604051808381526020018281526020019250505060405180910390a161313d876127c0565b50505050505050565b6000606080606080600080600560009054906101000a900473ffffffffffffffffffffffffffffffffffffffff166003600460066007600854601460009054906101000a900460ff16858054600181600116156101000203166002900480601f0160208091040260200160405190810160405280929190818152602001828054600181600116156101000203166002900480156132245780601f106131f957610100808354040283529160200191613224565b820191906000526020600020905b81548152906001019060200180831161320757829003601f168201915b50505050509550848054600181600116156101000203166002900480601f0160208091040260200160405190810160405280929190818152602001828054600181600116156101000203166002900480156132c05780601f10613295576101008083540402835291602001916132c0565b820191906000526020600020905b8154815290600101906020018083116132a357829003601f168201915b50505050509450838054600181600116156101000203166002900480601f01602080910402602001604051908101604052809291908181526020018280546001816001161561010002031660029004801561335c5780601f106133315761010080835404028352916020019161335c565b820191906000526020600020905b81548152906001019060200180831161333f57829003601f168201915b50505050509350828054600181600116156101000203166002900480601f0160208091040260200160405190810160405280929190818152602001828054600181600116156101000203166002900480156133f85780601f106133cd576101008083540402835291602001916133f8565b820191906000526020600020905b8154815290600101906020018083116133db57829003601f168201915b50505050509250965096509650965096509650965090919293949596565b606060008060606000601260008781526020019081526020016000209350836005018054905092508260405190808252806020026020018201604052801561346d5781602001602082028038833980820191505090505b509150600090505b828110156134b057613487868261364e565b828281518110151561349557fe5b90602001906020020181815250508080600101915050613475565b81945050505050919050565b600080600080601560000154601560010154601560020154601560030154935093509350935090919293565b6000600e80549050905090565b60001515601460009054906101000a900460ff16151514151561351757600080fd5b6000811180156135275750606481105b151561353257600080fd5b8060088190555050565b6000806000806000606060008060008060606000601260008e815260200190815260200160002090506000816000015411151561357857600080fd5b80600001548160010160009054906101000a900473ffffffffffffffffffffffffffffffffffffffff168260020154836003015484600401548560050186600601548760070154886008015489600901546135d68b60000154613416565b8580548060200260200160405190810160405280929190818152602001828054801561362157602002820191906000526020600020905b81548152602001906001019080831161360d575b505050505095509b509b509b509b509b509b509b509b509b509b509b505091939597999b90929496989a50565b600060136000848152602001908152602001600020600083815260200190815260200160002060009054906101000a900460ff16600481111561368d57fe5b905092915050565b6000801515601460009054906101000a900460ff1615151415156136b857600080fd5b600090505b60098054905081101561374b578173ffffffffffffffffffffffffffffffffffffffff166009828154811015156136f057fe5b9060005260206000200160009054906101000a900473ffffffffffffffffffffffffffffffffffffffff1673ffffffffffffffffffffffffffffffffffffffff161415151561373e57600080fd5b80806001019150506136bd565b60098290806001815401808255809150509060018203906000526020600020016000909192909190916101000a81548173ffffffffffffffffffffffffffffffffffffffff021916908373ffffffffffffffffffffffffffffffffffffffff160217905550505050565b600060608060606000806000600b6000898152602001908152602001600020905080600001548160010182600201836003018460040160009054906101000a900460ff168560050154848054600181600116156101000203166002900480601f0160208091040260200160405190810160405280929190818152602001828054600181600116156101000203166002900480156138935780601f1061386857610100808354040283529160200191613893565b820191906000526020600020905b81548152906001019060200180831161387657829003601f168201915b50505050509450838054600181600116156101000203166002900480601f01602080910402602001604051908101604052809291908181526020018280546001816001161561010002031660029004801561392f5780601f106139045761010080835404028352916020019161392f565b820191906000526020600020905b81548152906001019060200180831161391257829003601f168201915b50505050509350828054600181600116156101000203166002900480601f0160208091040260200160405190810160405280929190818152602001828054600181600116156101000203166002900480156139cb5780601f106139a0576101008083540402835291602001916139cb565b820191906000526020600020905b8154815290600101906020018083116139ae57829003601f168201915b505050505092509650965096509650965096505091939550919395565b6000600a805490501180156139ff57506000600854115b1515613a0a57600080fd5b6001601460006101000a81548160ff021916908315150217905550565b6000601054905090565b600080838311151515613a4357600080fd5b82840390508091505092915050565b6000808284019050838110151515613a6957600080fd5b8091505092915050565b600080600083111515613a8557600080fd5b8284811515613a9057fe5b0490508091505092915050565b6000806000841415613ab25760009150613ad4565b8284029050828482811515613ac357fe5b04141515613ad057600080fd5b8091505b5092915050565b815481835581811115613b0257818360005260206000209182019101613b019190613d23565b5b505050565b828054600181600116156101000203166002900490600052602060002090601f016020900481019282601f10613b4857805160ff1916838001178555613b76565b82800160010185558215613b76579182015b82811115613b75578251825591602001919060010190613b5a565b5b509050613b839190613d23565b5090565b828054600181600116156101000203166002900490600052602060002090601f016020900481019282601f10613bc857805160ff1916838001178555613bf6565b82800160010185558215613bf6579182015b82811115613bf5578251825591602001919060010190613bda565b5b509050613c039190613d23565b5090565b815481835581811115613c2e57818360005260206000209182019101613c2d9190613d23565b5b505050565b6101406040519081016040528060008152602001600073ffffffffffffffffffffffffffffffffffffffff16815260200160008152602001600081526020016000815260200160608152602001600081526020016000815260200160008152602001600081525090565b828054828255906000526020600020908101928215613cd9579160200282015b82811115613cd8578251825591602001919060010190613cbd565b5b509050613ce69190613d23565b5090565b60c06040519081016040528060008152602001606081526020016060815260200160608152602001600015158152602001600081525090565b613d4591905b80821115613d41576000816000905550600101613d29565b5090565b905600a165627a7a72305820b3c98530b8ae885187a8a73549308882fc3cd78914e65516c0b27a5524b930f00029a165627a7a72305820fe33732a98e4ee9dfd2c0a6d8639535caa2c4c9cebf1a916fa06d0b79af39d630029",
  "source": "pragma solidity 0.4.24;\nimport \"./SafeMath.sol\";\nimport \"./Restaurant.sol\";\n\ncontract RestaurantRepository {\n    mapping(address=>address) private queryRestaurant;\n    address[] private restaurantAddressList;\n    address private membershipRepository;\n    address private commentRepository;\n    mapping(address=>address) private queryVisitedRestaurant; // pater => restaurant\n    event PaidOrder(address restaurant, address payer, uint orderNo);\n\n    constructor() public {\n    }\n\n    function registerRestaurant(string _name, string _desc, string _contact, string _imgURL, uint _numOfTables) public returns(address){\n        require(_numOfTables>0);\n\n\n        require(queryRestaurant[msg.sender]==address(0));\n        Restaurant r = new Restaurant(msg.sender, _name, _desc, _contact, _imgURL, _numOfTables, membershipRepository, commentRepository);\n        queryRestaurant[msg.sender] = address(r);\n        restaurantAddressList.push(address(r));\n        return address(r);\n    }\n\n    function registerRestaurantForTest(address owner, string _name, string _desc, string _contact, string _imgURL, uint _numOfTables) public returns(address){\n        require(_numOfTables>0);\n\n        require(queryRestaurant[owner]==address(0));\n        Restaurant r = new Restaurant(owner, _name, _desc, _contact, _imgURL, _numOfTables, membershipRepository, commentRepository);\n        queryRestaurant[owner] = address(r);\n        restaurantAddressList.push(address(r));\n        return address(r);\n    }\n\n    function setMembershipRepository(address repositoryAddress) public{\n        require(membershipRepository==address(0));\n        membershipRepository = repositoryAddress;\n    }\n\n    function setCommentRepository(address repositoryAddress) public{\n        require(commentRepository==address(0));\n        commentRepository = repositoryAddress;\n    }\n\n    function isOwner(address owner) public view returns (bool) {\n        return queryRestaurant[owner]!=address(0);\n    }\n\n    function getRestaurantAddress(address owner) public view returns (address){\n        require(isOwner(owner));\n        return queryRestaurant[owner];\n    }\n\n    function getRestaurantAddressList() public view returns (address[]){\n        return restaurantAddressList;\n    }\n\n    function isRegisteredRestaurant(address addr) public view returns(bool){\n        Restaurant r = Restaurant(addr);\n        address owner = r.getOwnerAddress();\n        return isOwner(owner);\n    }\n\n    function setVisitedRestaurant(address payer) public {\n        require(isRegisteredRestaurant(msg.sender));\n        queryVisitedRestaurant[payer] = msg.sender;\n    }\n\n    function removeVisitedRestaurant(address payer) public {\n        require(isRegisteredRestaurant(msg.sender));\n        queryVisitedRestaurant[payer] = address(0);\n    }\n\n    function getVisitedRestaurant(address addr) public view returns(address){\n        return queryVisitedRestaurant[addr];\n    }\n\n    function informOrderPaid(address payer, uint orderNo) public{\n        require(isRegisteredRestaurant(msg.sender));\n        emit PaidOrder(msg.sender, payer, orderNo);\n    }\n\n}\n",
  "sourcePath": "/Users/noahkim/Documents/College/preps_v2/src/preps/src/core/contracts/RestaurantRepository.sol",
  "compiler": {
    "name": "solc",
    "version": "0.4.24+commit.e67f0147.Emscripten.clang"
  },
  "schemaVersion": "2.0.1",
  "updatedAt": "2019-04-06T08:57:33.142Z"
}